:020000040800F2
:1000000000000220B92B00086D2300086F230008B0
:100010007123000873230008752300080000000006
:100020000000000000000000000000000156000871
:10003000772300080000000031560008955600089C
:10004000092C0008092C0008092C0008092C0008BC
:10005000092C0008092C0008092C0008092C0008AC
:10006000092C0008092C0008092C0008092C00089C
:10007000092C0008092C0008092C0008092C00088C
:10008000092C0008092C0008092C0008092C00087C
:1000900079230008092C0008092C0008092C000805
:1000A000092C0008092C0008092C0008092C00085C
:1000B00089230008092C0008092C0008092C0008D5
:1000C000092C0008092C0008092C0008092C00083C
:1000D000092C000899230008A9230008092C00080E
:1000E000092C0008092C0008092C0008092C00081C
:1000F000092C0008092C0008092C0008092C00080C
:10010000092C0008092C0008092C0008092C0008FB
:10011000092C0008092C0008092C0008092C0008EB
:10012000092C0008092C0008092C0008092C0008DB
:10013000092C0008092C0008092C0008092C0008CB
:10014000092C0008092C0008092C0008092C0008BB
:10015000092C0008092C0008092C0008B923000804
:10016000092C0008092C0008092C0008092C00089B
:10017000092C0008092C0008092C000800000000C8
:08018000092C0008092C0008FD
:1001C00081F0004102E000BF83F0004330B54FEA08
:1001D00041044FEA430594EA050F08BF90EA020F75
:1001E0001FBF54EA000C55EA020C7FEA645C7FEA08
:1001F000655C00F0E2804FEA5454D4EB5555B8BF2B
:100200006D420CDD2C4480EA020281EA030382EA9B
:10021000000083EA010180EA020281EA0303362D2D
:1002200088BF30BD11F0004F4FEA01314FF4801C00
:100230004CEA113102D0404261EB410113F0004F12
:100240004FEA03334CEA133302D0524263EB4303C9
:1002500094EA050F00F0A780A4F10104D5F1200E67
:100260000DDB02FA0EFC22FA05F2801841F10001C2
:1002700003FA0EF2801843FA05F359410EE0A5F196
:1002800020050EF1200E012A03FA0EFC28BF4CF0C7
:10029000020C43FA05F3C01851EBE37101F000457D
:1002A00007D54FF0000EDCF1000C7EEB00006EEB8A
:1002B0000101B1F5801F1BD3B1F5001F0CD3490814
:1002C0005FEA30004FEA3C0C04F101044FEA44526B
:1002D00012F5800F80F09A80BCF1004F08BF5FEAF2
:1002E000500C50F1000041EB045141EA050130BDD2
:1002F0005FEA4C0C404141EB0101013C28BFB1F5E4
:10030000801FE9D291F0000F04BF01460020B1FA2E
:1003100081F308BF2033A3F10B03B3F120020CDA01
:100320000C3208DD02F1140CC2F10C0201FA0CF0DF
:1003300021FA02F10CE002F11402D8BFC2F1200C44
:1003400001FA02F120FA0CFCDCBF41EA0C019040FA
:10035000E41AA2BF01EB0451294330BD6FEA040443
:100360001F3C1CDA0C340EDC04F11404C4F120022E
:1003700020FA04F001FA02F340EA030021FA04F340
:1003800045EA030130BDC4F10C04C4F1200220FA97
:1003900002F001FA04F340EA0300294630BD21FAD5
:1003A00004F0294630BD94F0000F83F4801306BF9B
:1003B00081F480110134013D4EE77FEA645C18BF8F
:1003C0007FEA655C29D094EA050F08BF90EA020F26
:1003D00005D054EA000C04BF1946104630BD91EA1E
:1003E000030F1EBF0021002030BD5FEA545C05D121
:1003F0004000494128BF41F0004130BD14F5800460
:100400003CBF01F5801130BD01F0004545F0FE41D3
:1004100041F470014FF0000030BD7FEA645C1ABF08
:10042000194610467FEA655C1CBF0B46024650EA3F
:10043000013406BF52EA033591EA030F41F400216B
:1004400030BD00BF90F0000F04BF0021704730B5F1
:100450004FF4806404F132044FF000054FF00001C6
:1004600050E700BF90F0000F04BF0021704730B587
:100470004FF4806404F1320410F0004548BF40425C
:100480004FF000013EE700BF42004FEAE2014FEAB1
:1004900031014FEA02701FBF12F07F4393F07F4F8C
:1004A00081F06051704732F07F4208BF704793F08F
:1004B0007F4F04BF41F40021704730B54FF46074A2
:1004C00001F0004521F000411CE700BF50EA0102A5
:1004D00008BF704730B54FF000050AE050EA01024E
:1004E00008BF704730B511F0004502D5404261EBBE
:1004F00041014FF4806404F132045FEA915C3FF4FF
:10050000D8AE4FF003025FEADC0C18BF03325FEA9B
:10051000DC0C18BF033202EBDC02C2F1200300FA4C
:1005200003FC20FA02F001FA03FE40EA0E0021FA71
:1005300002F11444BDE600BF70B54FF0FF0C4CF45F
:10054000E06C1CEA11541DBF1CEA135594EA0C0F11
:1005500095EA0C0F00F0DEF82C4481EA030621EA4C
:100560004C5123EA4C5350EA013518BF52EA033587
:1005700041F4801143F4801338D0A0FB02CE4FF039
:100580000005E1FB02E506F00042E0FB03E54FF069
:100590000006E1FB03569CF0000F18BF4EF0010E61
:1005A000A4F1FF04B6F5007F64F5407404D25FEA5D
:1005B0004E0E6D4146EB060642EAC62141EA555110
:1005C0004FEAC52040EA5E504FEACE2EB4F1FD0C52
:1005D00088BFBCF5E06F1ED8BEF1004F08BF5FEAD0
:1005E000500E50F1000041EB045170BD06F0004682
:1005F00046EA010140EA020081EA0301B4EB5C042F
:10060000C2BFD4EB0C0541EA045170BD41F4801126
:100610004FF0000E013C00F3AB8014F1360FDEBF4B
:10062000002001F0004170BDC4F10004203C35DA27
:100630000C341BDC04F11404C4F1200500FA05F3AA
:1006400020FA04F001FA05F240EA020001F000424B
:1006500021F0004110EBD37021FA04F642EB0601C1
:100660005EEA430E08BF20EAD37070BDC4F10C04EB
:10067000C4F1200500FA04F320FA05F001FA04F2AF
:1006800040EA020001F0004110EBD37041F100019B
:100690005EEA430E08BF20EAD37070BDC4F12005A6
:1006A00000FA05F24EEA020E20FA04F301FA05F20E
:1006B00043EA020321FA04F001F0004121FA04F2B6
:1006C00020EA020000EBD3705EEA430E08BF20EA86
:1006D000D37070BD94F0000F0FD101F000464000C0
:1006E00041EB010111F4801F08BF013CF7D041EA42
:1006F000060195F0000F18BF704703F00046520046
:1007000043EB030313F4801F08BF013DF7D043EA16
:100710000603704794EA0C0F0CEA135518BF95EACC
:100720000C0F0CD050EA410618BF52EA4306D1D153
:1007300081EA030101F000414FF0000070BD50EA72
:10074000410606BF1046194652EA430619D094EAFC
:100750000C0F02D150EA013613D195EA0C0F05D1E6
:1007600052EA03361CBF104619460AD181EA03013A
:1007700001F0004141F0FE4141F470014FF00000F2
:1007800070BD41F0FE4141F4780170BD70B54FF08D
:10079000FF0C4CF4E06C1CEA11541DBF1CEA13550D
:1007A00094EA0C0F95EA0C0F00F0A7F8A4EB0504EF
:1007B00081EA030E52EA03354FEA013100F08880E6
:1007C0004FEA03334FF0805545EA131343EA1263AF
:1007D0004FEA022245EA111545EA10654FEA002664
:1007E0000EF000419D4208BF964244F1FD0404F51D
:1007F000407402D25B084FEA3202B61A65EB030579
:100800005B084FEA32024FF480104FF4002CB6EB35
:10081000020E75EB030E22BFB61A754640EA0C00B5
:100820005B084FEA3202B6EB020E75EB030E22BFF5
:10083000B61A754640EA5C005B084FEA3202B6EB36
:10084000020E75EB030E22BFB61A754640EA9C00F5
:100850005B084FEA3202B6EB020E75EB030E22BFC5
:10086000B61A754640EADC0055EA060E18D04FEA83
:10087000051545EA16754FEA06164FEAC30343EA23
:1008800052734FEAC2025FEA1C1CC0D111F4801FF0
:100890000BD141EA00014FF000004FF0004CB6E7E9
:1008A00011F4801F04BF01430020B4F1FD0C88BF88
:1008B000BCF5E06F3FF6AFAEB5EB030C04BFB6EB93
:1008C000020C5FEA500C50F1000041EB045170BD86
:1008D0000EF0004E4EEA113114EB5C04C2BFD4EBB3
:1008E0000C0541EA045170BD41F480114FF0000E37
:1008F000013C90E645EA060E8DE60CEA135594EAB3
:100900000C0F08BF95EA0C0F3FF43BAF94EA0C0FB5
:100910000AD150EA01347FF434AF95EA0C0F7FF42A
:1009200025AF104619462CE795EA0C0F06D152EA7E
:1009300003353FF4FDAE1046194622E750EA410662
:1009400018BF52EA43067FF4C5AE50EA41047FF473
:100950000DAF52EA43057FF4EBAE12E74FF0FF3CD8
:1009600006E000BF4FF0010C02E000BF4FF0010CA9
:100970004DF804CD4FEA410C7FEA6C5C4FEA430C22
:1009800018BF7FEA6C5C1BD001B050EA410C0CBF71
:1009900052EA430C91EA030F02BF90EA020F0020D3
:1009A000704710F1000F91EA030F58BF994208BF3A
:1009B00090422CBFD8176FEAE37040F001007047F7
:1009C0004FEA410C7FEA6C5C02D150EA013C07D14E
:1009D0004FEA430C7FEA6C5CD6D152EA033CD3D099
:1009E0005DF8040B704700BF8446104662468C4693
:1009F0001946634600E000BF01B5FFF7B7FF0028C6
:100A000048BF10F1000F01BD4DF808EDFFF7F4FFEE
:100A10000CBF012000205DF808FB00BF4DF808ED79
:100A2000FFF7EAFF34BF012000205DF808FB00BF9C
:100A30004DF808EDFFF7E0FF94BF012000205DF8BE
:100A400008FB00BF4DF808EDFFF7CEFF94BF012073
:100A500000205DF808FB00BF4DF808EDFFF7C4FF6C
:100A600034BF012000205DF808FB00BF4FEA4102BF
:100A700012F5001215D211D56FF47873B3EB6252F0
:100A800012D94FEAC12343F0004343EA505311F017
:100A9000004F23FA02F018BF404270474FF00000A9
:100AA000704750EA013005D111F0004008BF6FF0E7
:100AB000004070474FF00000704700BF53B94AB97B
:100AC000002908BF00281CBF4FF0FF314FF0FF3056
:100AD00000F00CB8ADF1080C6DE904CE04F0DEFEB8
:100AE000DDF804E0DDE9022304B07047704700BF81
:100AF000844641EA000313F003036DD1403A41D329
:100B000051F8043B40F8043B51F8043B40F8043BE7
:100B100051F8043B40F8043B51F8043B40F8043BD7
:100B200051F8043B40F8043B51F8043B40F8043BC7
:100B300051F8043B40F8043B51F8043B40F8043BB7
:100B400051F8043B40F8043B51F8043B40F8043BA7
:100B500051F8043B40F8043B51F8043B40F8043B97
:100B600051F8043B40F8043B51F8043B40F8043B87
:100B700051F8043B40F8043B51F8043B40F8043B77
:100B8000403ABDD2303211D351F8043B40F8043B17
:100B900051F8043B40F8043B51F8043B40F8043B57
:100BA00051F8043B40F8043B103AEDD20C3205D327
:100BB00051F8043B40F8043B043AF9D2043208D01F
:100BC000D2071CBF11F8013B00F8013B01D30B8891
:100BD00003806046704700BF082A13D38B078DD06F
:100BE00010F003038AD0C3F10403D21ADB071CBF41
:100BF00011F8013B00F8013B80D331F8023B20F8AB
:100C0000023B7BE7043AD9D3013A11F8013B00F8E3
:100C1000013BF9D20B7803704B7843708B7883706B
:100C20006046704700000000000000000000000067
:100C300000000000000000000000000000000000B4
:100C400030B490F800F020F007016FF0000C10F0C5
:100C5000070491F820F040F048804FF000046FF056
:100C60000700D1E9002391F840F000F1080082FA72
:100C70004CF2A4FA8CF283FA4CF3A2FA8CF34BBB3D
:100C8000D1E9022382FA4CF200F10800A4FA8CF2B6
:100C900083FA4CF3A2FA8CF3E3B9D1E9042382FA84
:100CA0004CF200F10800A4FA8CF283FA4CF3A2FA99
:100CB0008CF37BB9D1E9062301F1200182FA4CF2D1
:100CC00000F10800A4FA8CF283FA4CF3A2FA8CF338
:100CD000002BC6D0002A04BF04301A4612BAB2FA5A
:100CE00082F200EBD20030BC7047D1E9002304F05F
:100CF0000305C4F100004FEAC50514F0040F91F894
:100D000040F00CFA05F562EA05021CBF63EA050330
:100D100062464FF00004AAE7000000000000000057
:100D200001F0FF01102A2BDB10F0070F08D010F89C
:100D3000013B013A8B422DD010F0070F42B3F6D1A0
:100D4000F0B441EA012141EA014122F007047FF0B9
:100D500000070023F0E80256083C85EA010586EA10
:100D6000010685FA47F5A3FA87F586FA47F6A5FA4C
:100D700087F68EB9EED1F0BC01F0FF0102F0070258
:100D800032B110F8013B013A83EA010313B1F8D103
:100D90000020704701387047002D06BF35460338E4
:100DA000073815F0010F07D1013015F4807F02BF1D
:100DB000013015F4C03F0130F0BC0138704700BF6E
:100DC0004FEA410C7FEA6C5C02D150EA013C0AD147
:100DD0004FEA430C7FEA6C5C02D152EA033C02D139
:100DE0004FF0000070474FF00100704710B5054C00
:100DF000237833B9044B13B10448AFF300800123C7
:100E0000237010BDD00A00200000000090CF000821
:100E100008B5034B1BB103490348AFF3008008BD7D
:100E200000000000D40A002090CF000800B58BB06D
:100E300000230693012207920093019302930393E8
:100E400004930E2305930892694601F0C5FF0BB089
:100E50005DF804FBF0B589B00546002440F2052397
:100E600001930294039404940823059301F0F4FE83
:100E70003F4B1B68C01AB0F5FA7F0ED83D4B01AA54
:100E80000021284602F0F0F8019BA3F20123032B76
:100E900014D8DFE803F0120C0E104FF480613648CE
:100EA00002F08AFC01F0D8FE314B1860E6E701241D
:100EB00004E0022402E0032400E00024A4462F4DB5
:100EC00004EB44010E0105EB0111B1F80CE0A1F8AF
:100ED0000EE028480278437843EA02238B81877822
:100EE000C27842EA0722AA530579427942EA0522EA
:100EF00007EE902AF8EEE77AB1EE047A67EE877A89
:100F00009FED1F7A67EE877AC1ED017A82798A7246
:100F1000A3EB0E0EBEF5805F1EDD04EB4402174905
:100F200001EB0212516901395161144A0CEB4C0179
:100F300002EB0111486903EB4033098A5B1A0CEBA1
:100F40004C0C02EB0C1293610E4B1A68536943F080
:100F50000203536109B0F0BD1EF5805FE5DA04EBD2
:100F60004401064A02EB0112516901315161DCE78B
:100F7000F40A0020EC0A0020001C0240F80A0020BD
:100F800000008038B80B002030B58BB0BDF938C0F8
:100F9000002401944FF40075049505940694079479
:100FA000082508958DF8244041FA05F48DF808408D
:100FB0008DF8091042FA05F18DF80A108DF80B2012
:100FC00043FA05F28DF80C208DF80D309DF939307B
:100FD0008DF80E308DF80FC001AB0DEB050204A9A2
:100FE00001F0C4FF0BB030BD08B50E480E4B0360D6
:100FF0000323436000238360C3604FF40022026137
:101000004FF4401242610376012242768376C37622
:101010000377437701F03AFE00B908BD00F01DFAEE
:10102000FBE700BFB80B00200064004010B588B09B
:101030000023039304930593069307930268184BC8
:101040009A4201D008B010BD0024019403F5EA33A0
:101050001A6C42F000721A641A6C02F0007201926B
:10106000019A02941A6B42F008021A631B6B03F098
:1010700008030293029B0323039302220492069324
:101080000923079303A9074802F09AFA224605218B
:10109000142002F019FA142002F026FAD2E700BF59
:1010A00000640040000C0240034B1A68536943F08F
:1010B00002035361704700BFB80B00200EB470B537
:1010C00083B0054607AA52F8041B0192084E304629
:1010D00005F046F904464FF6FF7382B231462846C2
:1010E00004F001F8204603B0BDE8704003B070473B
:1010F000E00B00202DE9F84F0746894615464FF0D2
:10110000000BD846DA462EE008F101080134AC4263
:1011100027DA07EB4B1606EBC40100220023D1E9C6
:101120000001FFF771FCE0B16B1EA342EED10AF1A2
:10113000010A0022AA42E7DA06EBC20191ED007B28
:10114000A9EB080303F10063013B07EB431303EB37
:10115000C20393ED006B81ED006B83ED007B0132E8
:10116000E8E70BF1010BA9EB08035B4501DD002467
:10117000CDE75046BDE8F88F2DE9F04F89B0044621
:1011800006900F46FFF7B6FF3F1A07F1FF38F80049
:1011900004F0DAFC4FF000093E460790274639E09C
:1011A0000BEBC405D5E900890AEBC401DDE9002396
:1011B000D1E90001FFF7C0F902460B464046494617
:1011C000FFF702F8C5E900010134B442E8DD039DF0
:1011D000DDF81090DDF814800135454518DC4D45EB
:1011E000FADD07EB451B0BEBC90107EB491A0AEBCC
:1011F000C903D3E90023D1E90001FFF7C7FACDE91C
:10120000000100240395CDF81090CDF81480DCE7A0
:1012100009F10109C14501DC0025DEE7DDF81CA06C
:10122000069D05EB481303EBC60103EBC8030AEB6D
:10123000C804D3E90023D1E90001FFF7A7FAC4E904
:101240000001A6F10209B3462CE005EB491101EBC0
:10125000C4010AEBC403D3E90023D1E90001FFF77D
:101260006BF902460B4630463946FEF7AFFF06469D
:101270000F4601344445E8DD05EB491404EBCB018E
:1012800032463B46D1E90001FEF79EFF04EBC9045C
:101290000AEBC906D4E90023FFF778FAC6E9000192
:1012A00009F1FF39B9F1000F04DB09F1010400264F
:1012B0000027DFE7504609B0BDE8F08F30B58FB0AA
:1012C000002409940A940B940C940D940194324BCD
:1012D0001A6B42F040021A631A6B02F0400201924C
:1012E000019A02941A6B42F001021A631A6B02F01F
:1012F00001020292029A03941A6B42F002021A63EC
:101300001A6B02F002020392039A04941A6B42F0E1
:1013100008021A631A6B02F008020492049A0594F8
:101320001A6B42F004021A631A6B02F0040205926F
:10133000059A06941A6B42F020021A631A6B02F0A7
:1013400020020692069A07941A6B42F080021A63F2
:101350001A6B02F080020792079A08941A6B42F007
:1013600010021A631B6B03F010030893089B0B4DCC
:1013700001224FF48061284602F018FA4FF480638E
:10138000099301230A930B940C9409A9284602F0AF
:1013900017F90FB030BD00BF00380240001C0240FA
:1013A00008B50B480B4B03600B4B43600023836075
:1013B000C3604FF48042026143618361C361036291
:1013C00002F05EFB00B908BD00F047F8FBE700BF84
:1013D000E00D002000580040A086010030B589B023
:1013E0000023039304930593069307930268134B1A
:1013F0009A4201D009B030BD00250195104C236BF5
:1014000043F020032363236B03F020030193019B2C
:10141000032303931222049206930423079303A940
:10142000084802F0CDF80295236C43F4800323644E
:10143000236C03F480030293029BDBE70058004017
:10144000003802400014024008B50368B3F1804F31
:1014500000D008BD01F0F4FBFBE772B6FEE7000028
:1014600000B595B03022002108A804F095FF0023B4
:10147000039304930593069307930193204A116CF9
:1014800041F080511164126C02F080520192019A75
:1014900002931C4B1A6842F480421A601B6803F4E2
:1014A00080430293029B012308934FF480330993F6
:1014B00002230E934FF480020F9206221092A8226C
:1014C000119212930423139308A802F073FC98B9A5
:1014D0000F23039302230493002305934FF4A05397
:1014E00006934FF480530793052103A802F0B2FE40
:1014F00020B915B05DF804FBFFF7AFFFFFF7ADFFB4
:1015000000380240007000402DE9F0472DED068BB9
:10151000E4B001F07BFBFFF7A3FFFFF7CFFEFFF77F
:1015200063FD01F00FF901F027F901F03FF9FFF732
:1015300037FF01F093F8364C204603F047F80021BE
:10154000204603F085FB334C204601F0E1FC2046A9
:10155000FFF76CFC0221204601F02BFE01222E49F0
:101560002E4804F010F802222D492E4804F00BF802
:1015700000F0D1FA00F0CAFA2B4B009340238022EE
:101580000021084600F066FB00F084FA4FF47A7000
:1015900001F068FB9FED163B9FED172B9FED181B8D
:1015A0009FED190B00F08CFB204B1860002418E015
:1015B00002EB42011E4B03EB01139B8903F58053A1
:1015C0005942C3F30C03C1F30C0158BF4B421949F4
:1015D00041F822300132022AEADD012001F042FB0B
:1015E0000134B4F5FA7F80F224820022F3E700BFD1
:1015F0000000000000005E40000000000080564037
:101600000000000000404540000000000080444011
:10161000C8130020B80B0020740E0020981400207E
:10162000780E00201014002000000020340E00204E
:10163000F80A0020380E0020B34B53F8240004EBC6
:101640004402B24B03EB02139B89C01AFEF70AFF58
:101650000022AF4BFEF770FFA1A3D3E90023FEF7F2
:10166000B5FD02460B46FEF7B1FD9FA3D3E900236B
:10167000FEF762FFA74B03EBC403C3E9000101348B
:10168000022CD9DDA44C2068A24BD3E90067C0E945
:101690004667D3E90267C0E94867D3E90423C0E994
:1016A0004A2300F0D9FD2368D3F830313BB19B4980
:1016B0009B48FFF703FD23680022C3F83021602216
:1016C00000214CA804F068FE48242246954916A83B
:1016D000FFF70EFA2246002128A804F05DFE2246FC
:1016E00000213AA804F058FE8B4C28AA16A92068BD
:1016F00001F074F920682EAA1CA9183001F06EF9C7
:10170000206834AA22A9303001F068F928A801F035
:10171000DBF953EC102B00208349FFF737F841EC3D
:10172000100B28A9084601F0B1F92EA801F0CCF958
:1017300053EC102B00207C49FFF728F841EC100BEC
:101740002EA9084601F0A2F934A801F0BDF953EC26
:10175000102B00207449FFF719F841EC100B34A945
:10176000084601F093F921683AAA01F1D80001F086
:1017700017F9206840AA00F11801D83001F010F9DB
:10178000206846AA00F13001D83001F009F93AA8E2
:1017900001F09AF953EC102B00206349FEF7F6FF95
:1017A00041EC100B3AA9084601F070F940A801F08D
:1017B0008BF953EC102B00205B49FEF7E7FF41EC5F
:1017C000100B40A9084601F061F946A801F07CF928
:1017D00053EC102B00205449FEF7D8FF41EC100BBE
:1017E00046A9084601F052F9DDE93A23CDE94C2338
:1017F000DDE94023CDE94E23DDE94623CDE9502341
:101800003BA3D3E90023CDE95223DDE93C23CDE915
:101810005423DDE94223CDE95623DDE94823CDE910
:10182000582300240025CDE95A45DDE93E23CDE9C2
:101830005C23DDE94423CDE95E23DDE94A23CDE9DC
:1018400060232DA3D3E90023CDE9622304220321E1
:101850004CA8FFF791FC8246D0E90067CDE90A6702
:10186000D0E90289CDE90C8990ED048B8DED0E8BCA
:1018700028A93AA801F051F953EC102B304639460B
:10188000FEF75AFE06460F46CDE90A672EA940A884
:1018900001F043F953EC102B40464946FEF74CFE4D
:1018A00080468946CDE90C8934A946A801F035F96E
:1018B00053EC102B51EC180BFEF73EFE41EC180BCD
:1018C000CDE90E01CDE91045CDE912450CA3D3E9D0
:1018D0000023CDE9142328A910A801F01EF925E062
:1018E0002B61319B9E3BB23F182D4454FB21094094
:1018F000B81E85EB51B8BEBFCDCCCCCCCCCCEC3F28
:10190000CDCCCCCCCCCCFC3F380E0020F80A00204B
:101910000000203F480E0020340E0020F0CF0008C9
:1019200098140020A8CF00080000F03F55EC104BA1
:101930008DED040B2EA910A801F0EFF8B0EE40AA2F
:10194000F0EE60AA8DED060B34A910A801F0E5F8C1
:10195000B0EE409AF0EE609A8DED080B8DED028BA3
:10196000CDE9008932463B4637493848FFF7A6FBA8
:1019700031A3D3E9002320462946FEF7DDFD0446C6
:101980000D462FA3D3E9002330463946FEF7D4FD98
:1019900002460B4620462946FEF718FC04460D4633
:1019A00025A3D3E9002351EC1A0BFEF7C5FD06462B
:1019B0000F4623A3D3E9002340464946FEF7BCFD6A
:1019C00002460B4630463946FEF700FC06460F46F7
:1019D00019A3D3E9002351EC190BFEF7ADFD8046A6
:1019E000894617A3D3E9002351EC180BFEF7A4FD99
:1019F00002460B4640464946FEF7E8FBFFF736F83D
:101A00000FFA80F830463946FFF730F806B2204624
:101A10002946FFF72BF8002300934346324601B2D4
:101A20000B48FFF7B1FA504604F096F8012001F098
:101A300019F9002424E600BF0000000000F89140DE
:101A4000000000000011C240F8CF000898140020E8
:101A5000B80B002000B585B08DF80C008DF80D1086
:101A60000A230093022303AA7821034802F0E6F830
:101A700005B05DF804FB00BFE00D002008B501468D
:101A80000020FFF7E7FF08BD08B501464020FFF73B
:101A9000E1FF08BD38B500250CE00E4B8C2202FB9F
:101AA0000533185DFFF7F0FF0134A4B2832CF4D99D
:101AB0000135ADB2072D0CD8A5F15000C0B2FFF72B
:101AC000DDFF0020FFF7DAFF1020FFF7D7FF00242B
:101AD000ECE738BD7C0E002008B5844600200BE002
:101AE000094A8C2101FB002202F803C001339BB29A
:101AF0007F2BF5D9013080B2072801D80023F7E702
:101B0000FFF7C8FF08BD00BF7C0E002008B500200D
:101B1000FFF7E2FF08BD08B54FF4FA7001F0A2F834
:101B2000AE20FFF7ABFF2020FFF7A8FF1020FFF744
:101B3000A5FFB020FFF7A2FFC820FFF79FFF0020FE
:101B4000FFF79CFF1020FFF799FF4020FFF796FF5B
:101B50008120FFF793FFFF20FFF790FFA120FFF701
:101B60008DFFA620FFF78AFFA820FFF787FF3F2001
:101B7000FFF784FFA420FFF781FFD320FFF77EFF4C
:101B80000020FFF77BFFD520FFF778FFF020FFF75D
:101B900075FFD920FFF772FF2220FFF76FFFDA20D1
:101BA000FFF76CFF1220FFF769FFDB20FFF766FFEE
:101BB0002020FFF763FF8D20FFF760FF1420FFF761
:101BC0005DFFAF20FFF75AFFFFF7A0FF08BD000041
:101BD00083B27F2B39D8002937DB3F2935DCDAB1D6
:101BE0000B46002916DBDA10194B4FF08C0C0CFB5E
:101BF00002331A5CD1F1000C01F007010CF0070C64
:101C000058BFCCF100014FF0010C0CFA01F10A436E
:101C10001A547047CB1DE6E70B46002916DBDB1094
:101C20000B4A4FF08C0C0CFB032212F800C04B4205
:101C300001F0070103F0070358BF594201238B400D
:101C4000DB435BB20CEA030313547047CB1DE6E79A
:101C50007C0E00202DE9F0470F46089E81B27F29B7
:101C60000ED8814600EB0208B8F1800F08DC002F87
:101C700006DB3F2F04DC07EB030ABAF1400F18DD47
:101C8000BDE8F0879CB2E11932781A4102F00102F6
:101C900009B22846FFF79CFF013423B2072BF1DD80
:101CA000013601352DB2A84501DD0023F6E70837DE
:101CB0003FB2BA45E4DD4D46F5E700000000000004
:101CC0002DE9D04F2DED048B57EC106B59EC118B97
:101CD0005BEC12ABB0EE438AF0EE638A4FF49C707B
:101CE00003F032FF0446C0E94067C0E94289C0E919
:101CF0003CAB80ED3E8B42464B4630463946FEF7C4
:101D000063FAC4E9440104F148089FED278B9FED75
:101D1000282BB0EE481AF0EE681AB0EE480AF0EE42
:101D2000680A404600F018FE04F160079FED229B10
:101D3000B0EE492AF0EE692A9FED211BB0EE480A69
:101D4000F0EE680A384600F007FE04F17806B0EEBF
:101D5000492AF0EE692A9FED1C1BB0EE480AF0EE0E
:101D6000680A304600F0F8FD04F19001404694ED19
:101D7000440B00F08BFE04F1A801384694ED440BAF
:101D800000F084FE04F1C001304694ED440B00F0F5
:101D90007DFE0023C4F830312046BDEC048BBDE845
:101DA000D08F00BFAFF300800000000000000000F3
:101DB000000000000000F03FFFFFFFFFFFFFDFBF5C
:101DC000AB4C58E87AB6EB3FAB4C58E87AB6EBBF71
:101DD0002DE9F04F83B057EC106B59EC118B5BEC95
:101DE00012AB42464B4630463946FEF7EFF95246B3
:101DF0005B46FEF7EBF90022374BFEF79DFB0446EE
:101E00000D4602460B4630463946FEF71BFE0028BB
:101E100054D122462B4640464946FEF713FE002881
:101E200051D122462B4650465946FEF70BFE10B1C3
:101E30009FED270B44E042464B4630463946FEF7BD
:101E40007BFB52465B46FEF777FB0022234BFEF7F7
:101E500073FBCDE9000132463B4620462946FEF79A
:101E6000B3F922462B46FEF767FB06460F4642466D
:101E70004B4620462946FEF7A7F902460B46304658
:101E80003946FEF759FB06460F4652465B4620464A
:101E90002946FEF799F902460B4630463946FEF7C9
:101EA0004BFB41EC100B09F051FD53EC102BDDE91D
:101EB0000001FEF76BFC41EC100B01E09FED040B01
:101EC00003B0BDE8F08F9FED020BF9E7AFF30080A0
:101ED00000000000000000000000E03F0000D03FD4
:101EE0002DE9704F0446D0E93C89D0E946235CA136
:101EF000D1E90001FEF768F941EC100B09F05CFD37
:101F000053EC102B04F1480540464946FEF714FBFC
:101F100041EC100B2146284600F0B8FDD4E93C897D
:101F2000D4E948234EA1D1E90001FEF74DF941EC77
:101F3000100B09F041FD53EC102B04F1600504F186
:101F4000180640464946FEF7F7FA41EC100B3146B9
:101F5000284600F09BFDD4E93CABD4E94A2340A1DC
:101F6000D1E90001FEF730F941EC100B09F024FD36
:101F700053EC102B04F1780804F130055046594613
:101F8000FEF7DAFA41EC100B2946404600F07EFDE0
:101F9000D4E900ABD4E93C89D4E9462330A1D1E9A6
:101FA0000001FEF711F941EC100B09F049FD53EC6B
:101FB000102B40464946FEF7BFFA02460B465046F4
:101FC0005946FEF703F9C4E90001D4E906ABD4E9A8
:101FD000482323A1D1E90001FEF7F6F841EC100BEC
:101FE00009F02EFD53EC102B40464946FEF7A4FAAB
:101FF00002460B4650465946FEF7E8F8C4E906018A
:10200000D4E90CABD4E94A2315A1D1E90001FEF7CC
:10201000DBF841EC100B09F013FD53EC102B40469C
:102020004946FEF789FA02460B4650465946FEF7E6
:10203000CDF8C4E90C01224604F19001204600F0DD
:1020400092FC324604F1A801304600F08CFC2A468E
:1020500004F1C001284600F086FCBDE8708F00BF87
:10206000182D4454FB2109402DE9F04F83B004465C
:1020700000F118066E4D2A460146304600F090FCED
:1020800004F13007DFF8C88142463146384600F097
:1020900087FCDFF8A8914A463946204600F080FCCC
:1020A000284600F011FD634D85ED000B404600F021
:1020B0000BFDDFF8A08188ED000B484600F004FD21
:1020C000B0EE402AF0EE602A5B4B83ED000B98EDFA
:1020D000001B95ED000BFFF77BFE5BEC10AB0022C5
:1020E000002350465946FEF78FFC28B10123C4F85F
:1020F000303103B0BDE8F08FDFF8548141464F48DE
:1021000000F00BFD8DED000BDFF84891D9E90001DF
:1021100002460B46FEF710FA02460B46484DDDE933
:102120000001FEF733FB41EC100B2946404600F05E
:10213000ADFC2A462946414800F032FC284600F012
:10214000C3FC53EC102B00203E49FEF71FFB41EC73
:10215000100B2946284600F099FC52465B46504633
:102160005946FEF7E9F9CDE90001D9E900AB0022B3
:10217000354B50465946FEF7DFF902460B465046AE
:102180005946FEF7D9F902460B46DDE90001FEF794
:102190001BF841EC100B09F0D9FB2946284600F04A
:1021A00075FC2A4D2A464146214800F0DFFC0022FA
:1021B0000023D5E90001FEF731FC48BBD4E93E011C
:1021C00002460B46FEF7B8F9DDE90023FDF7FCFFF8
:1021D00041EC100B09F0BAFB1C4D2946284600F0D3
:1021E00055FCD83422463946304600F0BCFB214627
:1021F00020469FED0B0B00F049FC2246104920467B
:1022000000F0B1FB22462946204600F0ACFB70E707
:10221000284629469FED040B00F038FCCEE700BFAE
:10222000000000000000E03F000000000000F0BFE0
:102230005813002020130020101300202813002022
:10224000F81200200000F03F0000D03FE012002014
:10225000401300201813002080B110B50446FFF78A
:102260003FFE2046FFF700FF054B1B782BB1044BC8
:1022700000221A700123C4F8303110BD704700BF2E
:10228000DC14002000B583B0002200920D4B596C85
:1022900041F480415964596C01F4804100910099E6
:1022A0000192196C41F0805119641B6C03F080534A
:1022B0000193019B0F216FF0010001F005F903B0BC
:1022C0005DF804FB0038024030B589B004460023B5
:1022D0000193224B1A6C42F001021A641B6C03F04A
:1022E00001030193019B02A903A802F089F8069B50
:1022F000D3B902F065F80346194AA2FB03239B0CED
:10230000013B18484FF08042026040F2E732C26061
:102310004360002303618360836102F0FFFA054696
:1023200030B1284609B030BD02F04AF84300E3E777
:102330000C4802F089F905460028F2D11C2001F072
:10234000D3F80F2C01D90125EBE7002221461C20F0
:1023500001F0BAF8044B1C60E3E700BF003802400C
:1023600083DE1B437013002008040020FEE7FEE715
:10237000FEE7FEE7FEE7704708B5024800F036FFCB
:1023800008BD00BFB80B002008B5024802F0A5F94F
:1023900008BD00BF7013002008B5024802F098FF86
:1023A00008BD00BF9814002008B5024802F090FF55
:1023B00008BD00BF5414002008B5024802F088FF91
:1023C00008BD00BF1014002038B5044602683E4B1B
:1023D0001B689A4205D022683C4B1B689A422FD05A
:1023E00038BD3B4B1B78A52B0CD03A4B1B78012BEF
:1023F00019D002223649344803F0C5F8354B002283
:102400001A70E8E7324B5B785A2BEED1314B1B78D0
:10241000002BEAD12F4B01221A7007222E492A489D
:1024200003F0B1F8D7E72B4B00221A702A4B9A79A8
:102430002A4B1A7002222649234803F0A4F8CAE75F
:10244000274B1B785A2B09D0264B1B78012B12D017
:10245000012223491D4803F096F8C1E7214B1B7860
:10246000002BF1D11F4B01221A7008221E49174878
:1024700003F089F8B4E71B4B00221A701A4A11784E
:1024800053781B0443EA0163917843EA0123D1782E
:102490000B4316490B60117953791B0443EA01631E
:1024A000917943EA0123D2791343114D2B60074CF4
:1024B00001220B49204603F066F82A680D492046A0
:1024C000FEF7FCFD8CE700BF1014002098140020DC
:1024D000780E0020610E0020640E0020B81300204A
:1024E000740E0020600E00206C0E0020C01300202F
:1024F000BC13002010D000080120704708B504F07C
:1025000003F8162303604FF0FF3008BD08B54FF005
:10251000FF31FFF7F3FFFEE770B50C4616460025C6
:1025200006E0AFF30080214601F8010B01350C46AF
:10253000B542F6DB304670BD70B50C461646002538
:1025400004E014F8010BAFF300800135B542F8DB6D
:10255000304670BD4FF0FF3070474FF400534B6072
:1025600000207047012070470020704710B50346D7
:102570000C4A0D490D48006840B10C4800680344FE
:10258000521A934206D8094A136010BD0748084CF6
:102590000460F2E703F0B8FF0C2303604FF0FF3054
:1025A000F3E700BF0000022000040000C413002075
:1025B000B0180020054BD3F8882042F47002C3F80D
:1025C00088204FF000629A60704700BF00ED00E085
:1025D0000268094B9A4200D0704782B000230193F1
:1025E000064B5A6C42F001025A645B6C03F0010323
:1025F0000193019B02B07047000001400038024087
:1026000000B587B0002301930293039304930593CD
:1026100002680F4B9A4202D007B05DF804FB00231A
:1026200000930C4B1A6B42F010021A631B6B03F001
:1026300010030093009B4FF4007301930223029355
:102640000123059301A9044800F0BAFFE4E700BFA5
:1026500000000140003802400010024010B596B062
:1026600000241294139414941594109411940994C2
:102670000A940B940C940D940E940F9420222146EE
:1026800001A803F089FE2D482D4B036040F28F63B3
:102690004360846040F2CF73C3600461446184612D
:1026A00002F03CF9002837D14FF48053129312A95D
:1026B000224802F03EFA002831D1204802F05AF9AF
:1026C00000282FD100231093119310A91B4802F06A
:1026D00041FB50BB6023099300220A920B920C929B
:1026E0000D920E920F9209A9144802F0A7F9F8B9B9
:1026F0000023019302930393049305934FF4005234
:102700000692089301A90D4802F06AFB98B90B489C
:10271000FFF776FF16B010BDFEF79FFEC4E7FEF789
:102720009CFECAE7FEF799FECCE7FEF796FED1E7DE
:10273000FEF793FEDCE7FEF790FEE8E7C813002003
:102740000000014008B50A480A4B03604FF4E1332A
:10275000436000238360C36003610C224261836194
:10276000C36102F091FC00B908BDFEF776FEFBE7FD
:10277000981400200010014008B50A480A4B036075
:102780004FF4E133436000238360C36003610C2294
:1027900042618361C36102F077FC00B908BDFEF7B6
:1027A0005CFEFBE7541400200044004008B50A48D2
:1027B0000A4B03604FF4E133436000238360C3603E
:1027C00003610C2242618361C36102F05DFC00B9C8
:1027D00008BDFEF742FEFBE7101400200014014084
:1027E000F0B58DB000230793089309930A930B93D8
:1027F0000368514A934207D0504A934244D0504A0A
:1028000093426CD00DB0F0BD002400944D4B5A6C37
:1028100042F010025A645A6C02F010020092009AC0
:1028200001941A6B42F002021A631A6B02F0020260
:102830000192019A02941A6B42F001021A631B6B17
:1028400003F001030293029B80230793022708975A
:1028500003260A9607250B9507A93B4800F0B0FE12
:102860004FF400730793089709940A960B9507A9EC
:10287000364800F0A5FE22460521252000F024FE62
:10288000252000F031FEBDE7002403942D4B1A6C87
:1028900042F400321A641A6C02F400320392039A72
:1028A00004941A6B42F008021A631B6B03F00803CE
:1028B0000493049B602307930223089303230A9342
:1028C00007230B9307A9224800F07AFE2246052130
:1028D000262000F0F9FD262000F006FE92E70024F5
:1028E0000594184B5A6C42F020025A645A6C02F05C
:1028F00020020592059A06941A6B42F040021A6370
:102900001B6B03F040030693069B4FF4844307932D
:102910000223089303230A9308230B9307A90D4866
:1029200000F04EFE22460521472000F0CDFD472055
:1029300000F0DAFD66E700BF0010014000440040EF
:102940000014014000380240000402400000024030
:10295000000C02400018024080ED000B80ED021BCD
:1029600080ED042B704770B505460E461446D1E93C
:102970000023D0E90001FDF729FCC4E90001D6E9F4
:102980000223D5E90201FDF721FCC4E90201D6E9E1
:102990000423D5E90401FDF719FCC4E9040170BD65
:1029A00070B505460E461446D1E90023D0E9000172
:1029B000FDF70AFCC4E90001D6E90223D5E90201CA
:1029C000FDF702FCC4E90201D6E90423D5E90401BC
:1029D000FDF7FAFBC4E9040170BD000090424ED03F
:1029E0002DE9704304460D4616468A4243D0D1E98C
:1029F0000423D0E90201FDF79FFD80468946D5E911
:102A00000223D4E90401FDF797FD02460B46404638
:102A10004946FDF7D9FBC6E90001D5E90023D4E911
:102A20000401FDF789FD80468946D5E90423D4E9F0
:102A30000001FDF781FD02460B4640464946FDF781
:102A4000C3FBC6E90201D5E90223D4E90001FDF781
:102A500073FD80468946D5E90023D4E90201FDF7DC
:102A60006BFD02460B4640464946FDF7ADFBC6E905
:102A70000401BDE87083044B01221A70F9E7024B90
:102A800001221A70704700BFDC140020F8B557EC23
:102A9000106B05460C4632463B46D0E90001FDF777
:102AA0004BFDC4E9000132463B46D5E90201FDF782
:102AB00043FDC4E9020132463B46D5E90401FDF776
:102AC0003BFDC4E90401F8BDD0B50446D0E90001DE
:102AD00002460B46FDF730FD06460F46D4E90201DB
:102AE00002460B46FDF728FD02460B4630463946A6
:102AF000FDF76CFB06460F46D4E9040102460B467F
:102B0000FDF71AFD02460B4630463946FDF75EFBDF
:102B100041EC100B08F01AFFD0BDF8B504460D4685
:102B2000D1E90023D0E90001FDF706FD06460F4676
:102B3000D5E90223D4E90201FDF7FEFC02460B466B
:102B400030463946FDF742FB06460F46D5E90423D9
:102B5000D4E90401FDF7F0FC02460B463046394645
:102B6000FDF734FB41EC100BF8BD0000D0B5144666
:102B7000FFF734FF2046FFF7A7FF57EC106B00224A
:102B8000002330463946FDF73FFF18B1084B0022BD
:102B90001A70D0BD32463B4600200649FDF7F6FDCF
:102BA00041EC100B21462046FFF770FFF1E700BF14
:102BB000DC1400200000F03FDFF834D00D480E494F
:102BC0000E4A002302E0D458C4500433C4188C4287
:102BD000F9D30B4A0B4C002301E013600432A242EC
:102BE000FBD3FFF7E7FC03F095FCFEF78DFC704785
:102BF0000000022000000020D00A0020A4D5000818
:102C0000D00A0020AC180020FEE7000008B50B4BEE
:102C10001A6842F400721A601A6842F480621A60FC
:102C20001A6842F480721A60032000F03BFC0F2007
:102C3000FFF74AFBFFF726FB002008BD003C0240DF
:102C4000034A1168034B1B780B441360704700BFA5
:102C5000E014002004040020014B1868704700BFF6
:102C6000E014002038B50446FFF7F6FF0546B4F13E
:102C7000FF3F02D0044B1B781C44FFF7EDFF401BC5
:102C8000A042FAD338BD00BF04040020002800F0A1
:102C9000A18038B5044690F82030D3B1226813687B
:102CA00043F001031360FFF7D7FF054623685A6816
:102CB00012F0010F10D1FFF7CFFF401B0A28F5D902
:102CC000636A43F400336362052384F820300120F3
:102CD00038BDFEF7ABF9E1E71A6822F002021A608C
:102CE000FFF7BAFF054623685A6812F0020F0DD0AD
:102CF000FFF7B2FF401B0A28F5D9636A43F400339B
:102D00006362052384F820300120E1E7227E012A56
:102D10003DD01A6822F080021A60637E012B3BD0FE
:102D20002268136823F040031360A37E012B39D07F
:102D30002268136823F020031360E37E012B37D051
:102D40002268136843F010031360237F012B35D0F2
:102D50002268136823F008031360637F012B33D0CC
:102D60002268136823F004031360A368E268134326
:102D700022691343626913436268013A216813436D
:102D8000CB6100206062012384F82030A0E71A683C
:102D900042F080021A60C0E72268136843F04003E3
:102DA0001360C2E72268136843F020031360C4E78E
:102DB0002268136823F010031360C6E722681368C3
:102DC00043F008031360C8E72268136843F0040364
:102DD0001360CAE70120704790F82030013BDBB256
:102DE000012B05D9436A43F48023436201207047D5
:102DF00030B5464BD3F8002242F00102C3F800225E
:102E0000D3F8002222F47C52C3F80022D3F8002227
:102E1000486A42EA0022C3F800224A6902F01F020F
:102E2000012000FA02F2D3F81C026FEA020C20EA39
:102E30000200C3F81C02CB69C3B9344BD3F80C02AF
:102E40000CEA0000C3F80C028C884869CD6844EA9B
:102E50000544483043F830408C68088840EA044014
:102E60004C6904F1480E03EBCE035860CB69012B8B
:102E70001ED08B69002B33D12448D0F804320CEAE1
:102E80000303C0F804320B698BBB2048D0F814321E
:102E90000CEA0303C0F814320B6A012B2ED01B4A34
:102EA000D2F8003223F00103C2F80032002030BD16
:102EB000164BD3F80C021043C3F80C028C884869F7
:102EC0000D6844EA0544483043F8304088894C692D
:102ED0008D6840EA0540483403EBC4035860C8E7F6
:102EE0000A48D0F804321343C0F80432CBE707484D
:102EF000D0F814321343C0F81432CDE70349D1F8A7
:102F00001C321343C1F81C32C9E700BF0064004003
:102F100070B5044690F82050EDB2012D06D0436AFA
:102F200043F4002343620125284670BD022380F844
:102F300020300268136823F001031360FFF78CFE52
:102F4000064623685B6813F0010F0CD0FFF784FE80
:102F5000831B0A2BF5D9636A43F4003363620523AC
:102F600084F82030E0E700256562DDE730B590F8B1
:102F700020C00468A4680CF1FF3C5FFA8CFCBCF133
:102F8000010F6BD814F0E05F62D0C4F3016CBCF1A8
:102F9000020F05D9436A43F400034362012062E053
:102FA000012404FA0CF41C608B68002B3DD10D68E1
:102FB000CB68046843EA45550CF118031B01E55042
:102FC00003680C690CF1180E03EB0E135C600B7DAB
:102FD000012B35D0D17993791B0443EA01635179F0
:102FE00043EA012314790168234301EB0C11C1F872
:102FF0008C31D17893781B0443EA0163517843EA1A
:103000000123117802680B4302EB0C12C2F88831DD
:1030100002680CF1180C4FEA0C1C52F80C3043F00B
:10302000010342F80C3000201DE04C6843EAC40361
:10303000CC6823430CF11804240105682B51BFE729
:10304000036803EB0E13596841F480715960C1E7BE
:10305000436A43F400134362012004E0436A43F4EB
:1030600080234362012030BD90F820C00CF1FF3C6A
:103070005FFA8CFCBCF1010F00F2958030B451B9BD
:103080000468E46814F0030F10D1436A43F400139A
:103090004362012077E00468246914F0030F05D12E
:1030A000436A43F40013436201206CE001F11B0406
:1030B000240105682C5904F004049460002C64D1A8
:1030C00001F11B04240105682C59640D1460046887
:1030D00001F11B0C4FEA0C1C54F80C4004F00204E4
:1030E000D46004686444646804F00F0414610468E4
:1030F00064446468C4F307249461046864446468A5
:10310000240C5461026802EB0112D2F8B8211A7043
:10311000026802EB0112D2F8B821C2F307225A70FA
:10312000026802EB0112D2F8B821C2F307429A708A
:10313000026802EB0112D2F8B821120EDA700268AE
:1031400002EB0112D2F8BC211A71026802EB0112E3
:10315000D2F8BC21C2F307225A71026802EB0112B5
:10316000D2F8BC21C2F307429A71026802EB011245
:10317000D2F8BC21120EDA7179B90268D36843F033
:103180002003D360002030BC704701F11B042401F0
:1031900005682C59E408546099E70268136943F004
:1031A00020031361EEE7436A43F480234362012066
:1031B000704790F82030013BDBB2012B05D9436A00
:1031C00043F48023436201207047026853690B4334
:1031D00053610020704770477047704770477047D1
:1031E0007047704770477047704770472DE9F84F38
:1031F000054603685C69D3F804809F68D3F80CA087
:10320000D3F81090D3F818B014F001063BD017F0A3
:10321000010616D001229A6017F0020F08D117F0AC
:10322000040F0CD117F0080606D04FF4805608E0C2
:10323000FFF7D1FF002604E0FFF7D0FF01E04FF4D5
:10324000006617F4807F0DD02B684FF480729A606F
:1032500017F4007F40F0968017F4806F00F096809E
:1032600046F4005617F4803F0DD02B684FF480329F
:103270009A6017F4003F40F0938017F4802F00F01D
:10328000938046F4004614F0080F07D01AF0100F90
:1032900004D046F400762B681022DA6014F0040F94
:1032A00003D01AF0080F40F0898014F0020F05D007
:1032B0002B68DB6813F0030F40F0878014F0400F99
:1032C00007D019F0100F04D046F480662B68102246
:1032D0001A6114F0200F02D019F0080F79D114F000
:1032E000100F04D02B681B6913F0030F78D114F46E
:1032F000003F02D018F0100F76D114F4803F02D0B6
:1033000018F0080F77D114F4004F37D018F0040FDD
:1033100031D014F4807F04D01BF0010F01D046F0AF
:10332000010614F4007F04D01BF0020F01D046F018
:10333000020614F4806F04D01BF0040F01D046F095
:10334000040614F4006F16D01BF0700B13D0BBF101
:10335000400F66D056D8BBF1200F5CD0BBF1300FC8
:103360005CD0BBF1100F01D146F008062A689369C2
:1033700023F0700393612B6804225A60002E56D10B
:10338000BDE8F88F2846FFF727FF6BE717F4006FBB
:1033900002D046F4804665E72846FFF720FF61E744
:1033A0002846FFF71AFF6EE717F4002F02D046F405
:1033B000803668E72846FFF713FF64E72B6808228A
:1033C000DA602846FFF70DFF6FE72846FDF742FD5C
:1033D00074E72B6808221A612846FFF704FF7EE78E
:1033E0002846FFF7FFFE82E72B6810225A60284626
:1033F000FFF7FAFE81E72B6808225A602846FFF79C
:10340000F4FE80E7BBF1500F0ED0BBF1600FADD1E1
:1034100046F48076AAE746F01006A7E746F02006B5
:10342000A4E746F04006A1E746F080069EE76B6AF7
:1034300033436B622846FDF737FEA1E7002808DB1F
:103440000901C9B200F1604000F5614080F8001345
:10345000704700F00F000901C9B2014B19547047C1
:1034600014ED00E000B500F00700C0F1070CBCF15E
:10347000040F28BF4FF0040C031D062B0FD9C31EE9
:103480004FF0FF3E0EFA0CF021EA000199400EFACF
:1034900003FE22EA0E0241EA02005DF804FB00236B
:1034A000EEE70000074AD36823F4E0631B041B0C1B
:1034B000000200F4E060034343F0BF6343F40033D1
:1034C000D360704700ED00E010B50446054BD868A6
:1034D000C0F30220FFF7C6FF01462046FFF7AEFF0C
:1034E00010BD00BF00ED00E0002807DB00F01F0268
:1034F000400901239340024A42F82030704700BF40
:1035000000E100E070B50446866DFFF7A5FB94F876
:103510003530DBB2022B06D080236365002384F8AC
:103520003430012070BD05462268136823F016036D
:1035300013602268536923F080035361236CE3B165
:103540002268136823F0080313602268136823F0CD
:103550000103136023681B6813F0010F11D0FFF7FC
:103560007BFB431B052BF5D920236365032084F8DF
:103570003500002384F83430D4E7A36C002BDFD16E
:10358000E3E7E26D3F239340B360012384F83530D5
:10359000002084F83400C5E790F83530DBB2022B08
:1035A00003D08023436501207047052380F8353020
:1035B0000268136823F001031360002070470000C5
:1035C00000230F2B00F2E98070B582B065E08568BA
:1035D0004FEA430E032404FA0EF425EA0405CC68EE
:1035E00004FA0EF42C438460446824EA02044A6816
:1035F000C2F300129A40224342605CE0DC080834C7
:1036000050F8242003F00705AD004FF00F0E0EFA1E
:1036100005FE22EA0E0E0A69AA4042EA0E0240F8AE
:1036200024205CE0072200E0002202FA0EF22A4386
:1036300002345A4D45F82420594A94686FEA0C0226
:1036400024EA0C054E6816F4801F01D04CEA0405EC
:10365000534CA560E46802EA04054E6816F4001FA6
:1036600001D04CEA04054E4CE560646802EA0405AA
:103670004E6816F4003F01D04CEA0405484C6560E2
:10368000246822404D6815F4803F01D04CEA0402C2
:10369000434C226001330F2B7DD801229A400C68E5
:1036A00004EA020C32EA0404F4D14C6804F0030486
:1036B000013C012C8BD94A6802F00302032A09D08D
:1036C000C4685D000322AA4024EA02048A68AA4072
:1036D0002243C2604A6802F00302022A8ED00468C4
:1036E0004FEA430E032202FA0EF224EA02044A6869
:1036F00002F0030202FA0EF2224302604A6812F458
:10370000403FC7D000220192264A546C44F48044C2
:103710005464526C02F480420192019A9C08A51CE8
:103720001E4A52F8255003F0030E4FEA8E0E0F2268
:1037300002FA0EF225EA02051B4A90423FF474AFEA
:1037400002F5806290421AD002F58062904218D051
:1037500002F58062904216D002F58062904214D049
:1037600002F58062904212D002F58062904210D041
:1037700002F5806290423FF455AF082255E70122DE
:1037800053E7022251E703224FE704224DE70522C7
:103790004BE7062249E702B070BD70470038014090
:1037A000003C014000380240000002400AB1816143
:1037B0007047090481617047436901EA030221EA05
:1037C000030141EA02418161704703685A6912F4BA
:1037D000806F01D1002070476FF480625A6100232E
:1037E0000363202280F83D2080F83E30026C42F0D6
:1037F0000402026480F83C30012070472DE9F0415A
:1038000007460D4690461E4624E0FFF725FA069B24
:10381000C01AB04200D8EEB900233B63202287F8DB
:103820003D2087F83E303A6C42F020023A6487F837
:103830003C3001201EE03B689C6925EA040C1FFA1D
:103840008CFCBCFA8CFC4FEA5C1CE04511D1B6F153
:10385000FF3FDAD1C5F30743012BECD13B685B692D
:1038600025EA030C1FFA8CFCBCFA8CFC4FEA5C1CAA
:10387000EBE70020BDE8F0812DE9F04105460E465A
:10388000174698463DE01A6842F400721A602B68A9
:103890006FF480625A6100232B63202285F83D205B
:1038A00085F83E302A6C42F004022A6485F83C30E8
:1038B000012034E0FFF7D0F9A0EB0800B84200D8AF
:1038C000FFB900232B63202285F83D2085F83E3088
:1038D0002A6C42F020022A6485F83C3001201EE068
:1038E0002B689C6926EA0404A4B2003C18BF01249A
:1038F000A4B12B685A6912F4806FC4D1B7F1FF3FAD
:10390000D8D1C6F30743012BEAD12B685C6926EABC
:103910000404A4B2003C18BF0124E9E70020BDE87C
:10392000F0810000F0B583B004460D4616461F46F0
:10393000C36A082B0DD0012B0BD013F5803F08D0A4
:10394000036B122B0AD10268136843F4807313606F
:1039500004E02268136843F48073136000973346D1
:1039600000224FF001112046FFF748FF80B923697C
:10397000B3F5804F16D1236805F0FE051D613B4667
:10398000324613492046FFF777FFF8B903B0F0BD80
:1039900023681B6813F4807F02D04FF40073236404
:1039A0000320F3E7EB11226803F0060343F0F00372
:1039B00013613B46324607492046FFF75DFF18B9C1
:1039C0002368EDB21D61DAE70120DFE70120DDE7C2
:1039D000020001000800010070B504460D461646BD
:1039E00023685B6913F0800F1CD12046FFF7EDFEC2
:1039F000D0B9B5F1FF3FF3D0FFF72EF9801BA842F5
:103A000001D8002DECD100232363202284F83D202F
:103A100084F83E30226C42F02002226484F83C306C
:103A2000012000E0002070BD0120FCE770B50446D5
:103A30000D46164623685B6913F0040F1CD120461F
:103A4000FFF7C3FED0B9B5F1FF3FF3D0FFF704F99C
:103A5000801BA84201D8002DECD100232363202233
:103A600084F83D2084F83E30226C42F0200222642B
:103A700084F83C30012000E0002070BD0120FCE70C
:103A8000002800F0CC8070B5044690F83D30002B43
:103A900077D0242384F83D302268136823F0010393
:103AA00013602268136843F40043136022681368AC
:103AB00023F40043136000F083FC62685A4B9A427F
:103AC00064D85A4B98428CBF00230123002B40F04E
:103AD000A8805749A1FB00318B0C25686A6822F049
:103AE0003F0242EA91426A6021680A6A22F03F027C
:103AF00066684D4DAE424FD8013313430B622168C7
:103B0000CA6922F44F4222F0FF026568464B9D428B
:103B10004CD8431E6D00B3FBF5F3013340F6FC7047
:103B2000034278D0C3F30B031A43CA6121680B68C0
:103B300023F0C003E269206A024313430B6021684B
:103B40008B6823F4034323F0FF032269E0680243F8
:103B500013438B602168CB6823F0FF036269A0697F
:103B600002431343CB602268136843F001031360E0
:103B700000202064202384F83D30206384F83E0038
:103B800070BD80F83C30FDF729FC82E7294B984254
:103B90008CBF0023012399E74FF4967505FB03F3CF
:103BA000254DA5FB03539B090133A6E7A668BEB9C3
:103BB000431E05EB450CB3FBFCF30133C3F30B03CE
:103BC000B3FA83F35B0943BBC6B9431E05EB450556
:103BD000B3FBF5F30133C3F30B0343F40043A3E753
:103BE000431E05EB850C0CEB8C0CB3FBFCF3013393
:103BF000C3F30B03B3FA83F35B09E4E7431E05EB5E
:103C0000850505EB8505B3FBF5F30133C3F30B0322
:103C100043F4404388E7042386E7012384E7012037
:103C200070470120ACE700BFA08601007F841E0022
:103C300083DE1B43FF083D00D34D62102DE9F043A6
:103C400085B004460F46914698460C9EFFF704F84F
:103C5000054694F83D00C0B2202804D0022738461B
:103C600005B0BDE8F0830095192301224F49204695
:103C7000FFF7C4FD002840F0928094F83C30012BFF
:103C800000F08F80012384F83C3023681A6812F01A
:103C9000010F03D11A6842F001021A60226813680A
:103CA00023F400631360212384F83D30102384F84B
:103CB0003E3000232364C4F82490A4F82A80638D46
:103CC00023853B4BE3622B46324639462046FFF7BD
:103CD00029FE0746002866D10023039323685A690A
:103CE00003929B690393039B11E0236C042B01D087
:103CF0000127B4E72268136843F400731360F7E701
:103D00002A4631462046FFF791FE00282ED1238D0A
:103D1000002B36D02A4631462046FFF75DFE0028AC
:103D2000E3D1626A236812781A61606A431C636295
:103D3000618D89B2013989B26185238D013B9BB2C6
:103D400023852268516911F0040FD9D0002BD7D0F8
:103D500043781361636A01336362638D9BB2013BF5
:103D60009BB26385238D013B2385C9E7236C042B1C
:103D700001D0012773E72268136843F400731360CE
:103D8000F7E72268136843F400731360202384F874
:103D90003D30002384F83E3084F83C305FE7022752
:103DA0005DE702275BE7012759E700BF020010002B
:103DB0000000FFFF002800F0E08170B582B00446EB
:103DC000036813F0010F3BD09F4B9B6803F00C037B
:103DD000042B2CD09C4B9B6803F00C03082B21D0A8
:103DE0006368B3F5803F4FD0B3F5A02F52D0964B08
:103DF0001A6822F480321A601A6822F480221A604B
:103E00006368002B50D0FEF727FF05468E4B1B68DA
:103E100013F4003F14D1FEF71FFF401B6428F5D9AF
:103E20000320B1E1884B5B6813F4800FD8D0864B38
:103E30001B6813F4003F03D06368002B00F09F81E0
:103E4000236813F0020F54D07F4B9B6813F00C0FC4
:103E50003ED07D4B9B6803F00C03082B33D0E36806
:103E6000002B68D0794B01221A60FEF7F5FE05465B
:103E7000754B1B6813F0020F54D1FEF7EDFE401B8B
:103E80000228F5D903207FE16F4A136843F4803399
:103E90001360B5E76C4B1A6842F480221A601A6806
:103EA00042F480321A60ABE7FEF7D6FE0546664B59
:103EB0001B6813F4003FC3D0FEF7CEFE401B6428FE
:103EC000F5D9032060E1604B5B6813F4800FC6D125
:103ED0005D4B1B6813F0020F03D0E368012B40F029
:103EE0005081594A136823F0F803216943EAC1035A
:103EF0001360236813F0080F42D063696BB3534B10
:103F00000122C3F8802EFEF7A7FE05464E4B5B6FDD
:103F100013F0020F34D1FEF79FFE401B0228F5D9A3
:103F2000032031E1484A136823F0F803216943EA8A
:103F3000C1031360DDE7454B00221A60FEF78CFEDB
:103F40000546414B1B6813F0020FD2D0FEF784FEEA
:103F5000401B0228F5D9032016E13C4B0022C3F890
:103F6000802EFEF779FE0546374B5B6F13F0020F8C
:103F700006D0FEF771FE401B0228F5D9032003E1AD
:103F8000236813F0040F77D02F4B1B6C13F0805F66
:103F900033D1002301932C4B1A6C42F080521A64E7
:103FA0001B6C03F080530193019B0125284B1B6878
:103FB00013F4807F23D0A368012B34D0052B38D095
:103FC000214B1A6F22F001021A671A6F22F00402C5
:103FD0001A67A368002B3DD0FEF73EFE06461A4B3B
:103FE0001B6F13F0020F46D1FEF736FE801B41F225
:103FF00088339842F3D90320C6E00025D6E7144A57
:10400000136843F480731360FEF726FE0646104BD8
:104010001B6813F4807FCED1FEF71EFE801B0228A2
:10402000F5D90320B0E0084A136F43F0010313678A
:10403000CFE7054B1A6F42F004021A671A6F42F07D
:1040400001021A67C5E700BF00380240000047427E
:1040500000700040FEF700FE0646524B1B6F13F047
:10406000020F08D0FEF7F8FD801B41F2883398421A
:10407000F3D9032088E0EDB9A369002B00F0838019
:10408000484A926802F00C02082A51D0022B17D03D
:10409000454B00221A66FEF7DFFD0446414B1B68C4
:1040A00013F0007F42D0FEF7D7FD001B0228F5D9A0
:1040B000032069E03B4A136C23F080531364DBE771
:1040C000394B00221A66FEF7C7FD0546354B1B68C3
:1040D00013F0007F06D0FEF7BFFD401B0228F5D984
:1040E000032051E0E369226A1343626A43EA8213C0
:1040F000A26A5208013A43EA0243E26A43EA0263CF
:10410000284A5360284B01221A66FEF7A5FD044693
:10411000244B1B6813F0007F06D1FEF79DFD001BAA
:104120000228F5D903202FE000202DE000202BE00D
:10413000012B2BD01B4B5B6803F48001E269914299
:1041400026D103F03F02216A8A4223D1616A47F6F1
:10415000C0721A40B2EB811F1ED103F44031A26A33
:104160005208013AB1EB024F18D103F07063E26AD2
:10417000B3EB026F14D1002006E00120704701204C
:1041800002E0012000E0002002B070BD0120FBE74A
:104190000120F9E70120F7E70120F5E70120F3E727
:1041A0000120F1E7003802400000474208B5264BE5
:1041B0009B6803F00C03042B41D0082B41D1224B08
:1041C0005A6802F03F025B6813F4800F12D01E4B56
:1041D0005968C1F388111D480023A1FB0001FCF7B9
:1041E0006DFC194B5B68C3F3014301335B00B0FB0B
:1041F000F3F008BD144B5868C0F388104FEA401C18
:10420000BCEB000C6EEB0E0E4FEA8E1343EA9C6380
:104210004FEA8C11B1EB0C0163EB0E03DB0043EAB8
:104220005173C90011EB000C43F100039902002304
:104230004FEA8C2041EA9C51FCF740FCD1E703484F
:10424000D7E70348D5E700BF00380240001BB7009E
:104250000024F400002800F09B8070B50D46044651
:104260004F4B1B6803F007038B4208D2CBB24C4A7A
:104270001370136803F007038B4240F08B802368B0
:1042800013F0020F17D013F0040F04D0454A9368BF
:1042900043F4E0539360236813F0080F04D0414ABD
:1042A000936843F4604393603E4A936823F0F003BD
:1042B000A1680B439360236813F0010F32D0636849
:1042C000012B21D09A1E012A25D9364A126812F0F4
:1042D000020F61D033498A6822F0030213438B60D6
:1042E000FEF7BAFC06462F4B9B6803F00C0362688E
:1042F000B3EB820F16D0FEF7AFFC801B41F2883380
:104300009842F0D9032042E0264A126812F4003F96
:10431000E0D101203BE0234A126812F0007FD9D19E
:10432000012034E01E4B1B6803F00703AB4207D9A2
:10433000EAB21B4B1A701B6803F00703AB422DD186
:10434000236813F0040F06D0164A936823F4E05351
:10435000E1680B439360236813F0080F07D0114AFC
:10436000936823F46043216943EAC1039360FFF734
:104370001DFF0C4B9B68C3F303130B4AD35CD8405F
:104380000A4B18600A4B1868FDF79EFF002070BDAD
:10439000012070470120FAE70120F8E70120F6E745
:1043A000003C02400038024068D1000800040020B0
:1043B00008040020014B1868704700BF000400206B
:1043C00008B5FFF7F7FF044B9B68C3F38223034A4A
:1043D000D35CD84008BD00BF0038024060D100085F
:1043E00008B5FFF7E7FF044B9B68C3F34233034A6A
:1043F000D35CD84008BD00BF0038024060D100083F
:104400000F2303600B4B9A6802F0030242609A6824
:1044100002F0F00282609A6802F4E052C2609B6887
:10442000DB0803F4E0530361034B1B6803F007034D
:104430000B60704700380240003C024030B4036A11
:1044400023F001030362036A4268846924F0730C59
:104450000C6844EA0C0423F0020C8B6843EA0C035A
:10446000114DA84203D005F58065A84205D123F07F
:104470000803CD682B4323F004030B4DA84203D05F
:1044800005F58065A84207D122F440724D6945EADE
:10449000020C8A6942EA0C02426084614A68426303
:1044A000036230BC704700BF0000014030B4036AB3
:1044B00023F480730362036A4268C46924F0730CB6
:1044C0000C6844EA0C0523F400738C6843EA042367
:1044D000114CA04203D004F58064A04206D123F41D
:1044E0000063CC6843EA042323F480630A4CA042AF
:1044F00003D004F58064A04207D122F440524C69F5
:1045000042EA04128C6942EA04124260C5614A68B8
:10451000C263036230BC70470000014030B4036ADC
:1045200023F480530362036A4468C26922F4E642BA
:104530000D6842EA052223F400538D6843EA0533EF
:10454000094DA84203D005F58065A84204D124F4A2
:1045500080444D6944EA85144460C2614A6802643B
:10456000036230BC704700BF0000014010B4036A12
:10457000046A24F001040462846924F0F00C4CEA1B
:10458000021223F00A030B43826103625DF8044BBD
:10459000704710B4036A23F0100303628469036A4E
:1045A00024F4704C4CEA023223F0A00343EA0113D6
:1045B000826103625DF8044B7047836823F07003E7
:1045C0000B4343F0070383607047000090F83D30D1
:1045D000DBB2012B32D1022380F83D300368194A47
:1045E000934220D0B3F1804F1DD0A2F57C4293427C
:1045F00019D002F58062934215D002F58062934291
:1046000011D002F5784293420DD002F570529342D8
:1046100009D0A2F59432934205D01A6842F0010203
:104620001A60002070479A6802F00702062A07D035
:104630001A6842F001021A6000207047012070479A
:10464000002070470000014090F83D30DBB2012BA4
:1046500037D1022380F83D300268D36843F001036C
:10466000D3600368194A934220D0B3F1804F1DD024
:10467000A2F57C42934219D002F58062934215D094
:1046800002F58062934211D002F5784293420DD038
:1046900002F57052934209D0A2F59432934205D0AC
:1046A0001A6842F001021A60002070479A6802F00E
:1046B0000702062A07D01A6842F001021A60002099
:1046C0007047012070470020704700BF0000014084
:1046D0007047704770477047704710B504460368CD
:1046E0001A6912F0020F11D0DA6812F0020F0DD021
:1046F0006FF002021A610123037703689B6913F0CC
:10470000030F70D0FFF7E6FF0023237723681A69B1
:1047100012F0040F12D0DA6812F0040F0ED06FF00E
:1047200004021A610223237723689B6913F4407FF4
:104730005FD02046FFF7CEFF0023237723681A6956
:1047400012F0080F12D0DA6812F0080F0ED06FF0D6
:1047500008021A61042323772368DB6913F0030F2F
:104760004ED02046FFF7B6FF0023237723681A694F
:1047700012F0100F12D0DA6812F0100F0ED06FF096
:1047800010021A61082323772368DB6913F4407F42
:104790003DD02046FFF79EFF0023237723681A6948
:1047A00012F0010F03D0DA6812F0010F36D123683E
:1047B0001A6912F0800F03D0DA6812F0800F34D13A
:1047C00023681A6912F0400F03D0DA6812F0400F24
:1047D00032D123681A6912F0200F03D0DA6812F080
:1047E000200F30D110BDFFF774FF2046FFF773FF95
:1047F0008AE72046FFF76DFF2046FFF76CFF9BE737
:104800002046FFF766FF2046FFF765FFACE720462E
:10481000FFF75FFF2046FFF75EFFBDE76FF0010285
:104820001A612046FCF710FEC1E76FF080021A61A2
:10483000204600F0FFFAC3E76FF040021A612046FD
:10484000FFF74AFFC5E76FF020021A61204600F02B
:10485000F0FAC7E70368304A904212D0B0F1804FB7
:104860000FD0A2F57C4290420BD002F580629042BC
:1048700007D002F58062904203D002F57842904260
:1048800003D123F070034A681343234A90422AD08D
:10489000B0F1804F27D0A2F57C42904223D002F5A0
:1048A000806290421FD002F5806290421BD002F5D8
:1048B0007842904217D002F57052904213D002F520
:1048C000806290420FD002F5806290420BD0A2F538
:1048D0009832904207D002F58062904203D002F5F0
:1048E0008062904203D123F44073CA68134323F0DB
:1048F00080034A69134303608B68C3620B68836259
:10490000054B984203D003F58063984201D10B69AF
:1049100003630123436170470000014040B310B5B9
:10492000044690F83D30F3B1022384F83D3021462F
:1049300051F8040BFFF78EFF012384F8463084F80A
:104940003E3084F83F3084F8403084F8413084F8B9
:10495000423084F8433084F8443084F8453084F899
:104960003D30002010BD80F83C30FDF731FEDBE724
:104970000120704740B310B5044690F83D30F3B1C4
:10498000022384F83D30214651F8040BFFF762FF03
:10499000012384F8463084F83E3084F83F3084F8B0
:1049A000403084F8413084F8423084F8433084F851
:1049B000443084F8453084F83D30002010BD80F844
:1049C0003C30FFF785FEDBE70120704730B4036A17
:1049D00023F010030362036A4468826922F4E6420A
:1049E0000D6842EA052223F020038D6843EA05138F
:1049F000114DA84203D005F58065A84206D123F0E9
:104A00008003CD6843EA051323F040030A4DA84212
:104A100003D005F58065A84207D124F440644D69B0
:104A200044EA85048D6944EA8504446082614A68E9
:104A30008263036230BC70470000014038B590F8D3
:104A40003C30012B66D004460D46012380F83C30F3
:104A50000C2A5AD8DFE802F0075959591B595959FD
:104A60003059595944000068FFF7E8FC22689369FF
:104A700043F0080393612268936923F00403936170
:104A80002268936929690B43936100203EE0006826
:104A9000FFF79CFF2268936943F4006393612268E7
:104AA000936923F48063936122689369296943EAD7
:104AB00001239361002029E00068FFF7F7FC2268DA
:104AC000D36943F00803D3612268D36923F0040358
:104AD000D3612268D36929690B43D361002015E0B3
:104AE0000068FFF71BFD2268D36943F40063D361BC
:104AF0002268D36923F48063D3612268D36929696A
:104B000043EA0123D361002000E00120002384F860
:104B10003C3038BD0220FCE710B4846824F47F4C9C
:104B200042EA03220A4342EA0C0282605DF8044B27
:104B3000704790F83C30012B78D010B50446012323
:104B400080F83C30022380F83D300268936823F4FB
:104B50007F4323F0770393600B68602B4CD023D8FE
:104B6000402B54D011D8202B03D00AD80BB1102BD6
:104B700005D119462068FFF720FD002028E001201C
:104B800026E0302BF5D0012022E0502B0AD1CA6854
:104B900049680068FFF7EAFC50212068FFF70DFD27
:104BA000002015E0012013E0B3F5805F3AD0B3F5A3
:104BB000005F14D0702B37D1CB684A6889680068D1
:104BC000FFF7AAFF2268936843F077039360002001
:104BD000012384F83D30002384F83C3010BDCB68BD
:104BE0004A6889680068FFF797FF2268936843F472
:104BF000804393600020EBE7CA6849680068FFF7CC
:104C0000C8FC60212068FFF7D8FC0020E0E7CA68F4
:104C100049680068FFF7AAFC40212068FFF7CDFC37
:104C20000020D5E70020D3E70120D1E7022070471C
:104C300001F01F014FF0010C0CFA01FC036A23EA9A
:104C40000C030362036A8A40134303627047000047
:104C500010B504460846002942D194F83E30DBB234
:104C6000013B18BF0123002B6ED1002851D1022334
:104C700084F83E30012201462068FFF7D9FF2368FF
:104C8000334A934203D002F58062934203D15A6CB7
:104C900042F400425A6423682D4A934249D0B3F14A
:104CA000804F46D0A2F57C42934242D002F580620A
:104CB00093423ED002F5806293423AD002F57842A8
:104CC000934236D002F57052934232D0A2F594321C
:104CD00093422ED01A6842F001021A60002032E09E
:104CE000042908D008290DD094F84130DBB2013BEB
:104CF00018BF0123B7E794F83F30DBB2013B18BF80
:104D00000123B0E794F84030DBB2013B18BF012328
:104D1000A9E7042805D0082807D0022384F84130E9
:104D2000A8E7022384F83F30A4E7022384F8403048
:104D3000A0E79A6802F00702062A07D01A6842F034
:104D400001021A60002010BD0120FCE70020FAE7F4
:104D50000000014090F83C20012A3DD010B40346E9
:104D6000012280F83C20022280F83D200268506831
:104D7000946820F0700C086840EA0C0050601A68D3
:104D8000164882421AD0B2F1804F17D0A0F57C406D
:104D9000824213D000F5806082420FD000F580601F
:104DA00082420BD000F57840824207D000F5705067
:104DB000824203D0A0F59430824204D124F08004D2
:104DC000496821439160012283F83D20002083F847
:104DD0003C005DF8044B7047022070470000014022
:104DE000024690F83C30012B21D0012380F83C3062
:104DF000CB6823F440738868034323F480634868D6
:104E0000034323F400630868034323F480530869D1
:104E1000034323F400534869034323F48043C969DF
:104E20000B4311684B64002082F83C00704702205D
:104E3000704770477047026802F10C0353E8003F67
:104E400023F490730C3242E800310029F3D1026858
:104E500002F1140353E8003F23F00103143242E847
:104E600000310029F3D1036B012B05D0202380F8FA
:104E70003E30002303637047026802F10C0353E8DD
:104E8000003F23F010030C3242E800310029F3D137
:104E9000ECE790F83D30DBB2212B01D002207047C7
:104EA0008368B3F5805F17D0036A5A1C02621A78D0
:104EB00003685A60C38C9BB2013B9BB2C3844BB95D
:104EC0000268D36823F08003D3600268D36843F09C
:104ED0004003D360002070470369002BE4D1036ACC
:104EE0001B880268C3F308035360036A023303623A
:104EF000E0E7000010B504460268136923F440534C
:104F0000C1680B431361836802691A4343691A43FA
:104F1000C3691A430168CB6823F4164323F00C03DA
:104F20001343CB600268536923F4407381690B43D8
:104F300053610368314A934206D002F5806293427E
:104F400002D0FFF73DFA01E0FFF74AFAE369B3F553
:104F5000004F29D00021031849411B1841F10001DD
:104F6000C90041EA5371DB00181863684FEA8302F5
:104F70004FEA937341F10001FBF7A0FD204AA2FB29
:104F800000314909642303FB11031B013233A2FBE7
:104F900003235B0903F0F00202EB011203F00F039D
:104FA000216813448B6010BD0023021843EB0301FA
:104FB000121841F10001C90041EA5271D2001018E3
:104FC00041F10001626892185B41FBF777FD0C4AE2
:104FD000A2FB00314909642303FB1103DB003233D8
:104FE000A2FB03235B095A0002F4F87202EB0112E0
:104FF00003F00703216813448B60D4E700100140DD
:105000001F85EB512DE9F84305460F461646994694
:10501000DDF820802B681C6837EA04040CBF0124EB
:105020000024B4422DD1B8F1FF3FF3D0B8F1000F06
:1050300005D0FDF711FEA0EB09004045EAD92A682A
:1050400002F10C0353E8003F23F4D0730C3242E822
:1050500000310029F3D12A6802F1140353E8003F1C
:1050600023F00103143242E800310029F3D1202358
:1050700085F83D3085F83E30002385F83C3003202C
:1050800000E00020BDE8F88358B310B5044690F85E
:105090003D300BB3242384F83D302268D36823F4D9
:1050A0000053D3602046FFF725FF2268136923F4DD
:1050B000904313612268536923F02A0353612268E5
:1050C000D36843F40053D36000202064202384F885
:1050D0003D3084F83E3010BD80F83C30FDF780FB59
:1050E000D8E7012070472DE9F04182B01E4690F8C4
:1050F0003D30DBB2202B54D104460D4690460029AA
:1051000053D0002A53D090F83C30012B51D00123CA
:1051100080F83C3000230364212380F83D30FDF704
:105120009BFD0746A4F82480A4F82680A368B3F565
:10513000805F05D04FF00008002384F83C3012E077
:10514000236913B14FF00008F6E7A8460025F3E7FE
:1051500038F8023B2268C3F308035360E28C92B232
:10516000013A92B2E284E38C9BB273B100963B4663
:10517000002280212046FFF745FFE0B9002DE7D04F
:1051800015F8012B23685A60E8E700963B46002299
:1051900040212046FFF736FF78B9202384F83D30C0
:1051A00000E0022002B0BDE8F0810120FAE7012012
:1051B000F8E70220F6E70320F4E70320F2E7704760
:1051C00008B50168CA6822F04002CA60202280F84F
:1051D0003D20FFF7F4FF002008BD704708B5806B45
:1051E0000023C385C384FFF7F8FF08BD704790F81C
:1051F0003E30DBB2222B67D18368B3F5805F4DD0A0
:10520000826AB3F5805F04D0002B54D10369002B70
:1052100051D103685B681370836A01338362C38D65
:105220009BB2013B9BB2C385002B4FD100B583B02D
:105230000268D36823F02003D3600268D36823F4A4
:105240008073D3600268536923F001035361202304
:1052500080F83E30036B012B33D1002303630268D7
:1052600002F10C0353E8003F23F010030C3242E834
:1052700000310029F3D103681A6812F0100F06D02C
:10528000002201921A6801925B680193019B818D53
:10529000FFF7ACFF002003B05DF804FB0269002AB1
:1052A000AED1826A03685B68C3F308031380836A24
:1052B00002338362B3E703685B6803F07F03137014
:1052C000AAE7FDF781F8E5E7022070470020704764
:1052D00010B582B0044602681368D068516913F0B3
:1052E0000F0F09D113F0200F0CD010F0200F09D0B0
:1052F0002046FFF77CFF16E011F0010115D110F4F4
:10530000907F12D1216B012979D013F0800F03D047
:1053100010F0800F40F0108113F0400F03D010F018
:10532000400F40F00D8102B010BD13F0010F06D008
:1053300010F4807F03D0226C42F00102226413F04B
:10534000040F04D019B1226C42F00202226413F05F
:10535000020F04D019B1226C42F00402226413F04F
:10536000080F07D010F0200F00D119B1226C42F0C5
:1053700008022264226C002AD5D013F0200F02D03C
:1053800010F0200F29D123685B6903F04003226CE1
:1053900012F0080F00D163B32046FFF74CFD2368DD
:1053A0005B6913F0400F20D0226802F1140353E828
:1053B000003F23F04003143242E800310029F3D1CA
:1053C000A36B73B1604A1A65A06BFEF7E5F800287D
:1053D000A9D0A06B036D9847A5E72046FFF707FF0C
:1053E000D1E72046FFF7F9FE9DE72046FFF7F5FEDF
:1053F00099E72046FFF7F1FE0023236493E713F0BB
:10540000100F82D010F0100F3FF47FAF00230193F4
:105410001368019353680193019B536913F0400F84
:1054200050D0A26B13685B689BB2002B3FF47BAF3C
:10543000A18D99427FF677AFE385D369B3F5807F7D
:1054400037D0226802F10C0353E8003F23F4807345
:105450000C3242E800310029F3D1226802F1140332
:1054600053E8003F23F00103143242E800310029E1
:10547000F3D1226802F1140353E8003F23F0400304
:10548000143242E800310029F3D1202384F83E3061
:1054900000232363226802F10C0353E8003F23F04A
:1054A00010030C3242E800310029F3D1A06BFEF763
:1054B00029F8A18DE38D9BB2C91A89B22046FFF766
:1054C00095FE30E7A18DE38D9BB2C91A89B2E38DB9
:1054D0009BB2002B3FF427AF00293FF424AF226892
:1054E00002F10C0353E8003F23F490730C3242E8BE
:1054F00000300028F3D1226802F1140353E8003F82
:1055000023F00103143242E800300028F3D12023B5
:1055100084F83E3000232363226802F10C0353E831
:10552000003F23F010030C3242E800300028F3D192
:105530002046FFF75BFEF6E62046FFF7AAFCF2E600
:105540002046FFF73DFEEEE6DD51000881628285D0
:10555000C28500230364222280F83E2080F83C307C
:10556000036923B10268D36843F48073D36002688F
:10557000536943F0010353610268D36843F0200389
:10558000D3600020704708B590F83E30DBB2202B86
:105590000DD171B17AB190F83C30012B0DD00123BF
:1055A00080F83C3000230363FFF7D0FF00E00220C7
:1055B00008BD0120FCE70120FAE70220F8E7436874
:1055C0004B609A688A605160996008610368013392
:1055D000036070470369416882688A60416851606E
:1055E0005A68824206D0002202611A68013A1A60A3
:1055F0001868704782685A60F5E7000000000000F4
:10560000074B19680868B0E8F04F80F30988BFF3CA
:105610006F8F4FF0000080F311887047AFF3008068
:1056200094150020000000000000000000000000B1
:10563000EFF30980BFF36F8F154B1A681EF0100F40
:1056400008BF20ED108A20E9F04F10602DE9090015
:105650004FF0500080F31188BFF34F8FBFF36F8F6F
:1056600000F0D0F84FF0000080F3118809BC1968F1
:105670000868B0E8F04F1EF0100F08BFB0EC108AB9
:1056800080F30988BFF36F8F704700BFAFF30080CE
:105690009415002008B54FF0500383F31188BFF331
:1056A0006F8FBFF34F8F00F021F828B14FF0E02348
:1056B0004FF08052C3F8042D002383F3118808BDF6
:1056C000084B1B681B6823B9074B4FF0FF321A6069
:1056D0007047044B1B68DB68DB685A68024B1A6032
:1056E000704700BF04150020E8140020F8B53A4BBD
:1056F0001B68002B69D1394B1D6801351D60C5B988
:10570000374B1B681B6843B14FF0500383F311887C
:10571000BFF36F8FBFF34F8FFEE7314A1168314BF4
:10572000186810601960304A136801331360FFF77E
:10573000C7FF2E4B1B68AB423DD900272C4B1B6883
:10574000DB6A03EB83039A002A4B9B58012B00D999
:105750000127294B1B68002B3CD001273AE0012789
:105760001F4B1B681B6843B31D4B1B68DB68DC6861
:1057700063689D4226D3261D3046FFF72BFFA36AA0
:105780001BB104F11800FFF725FFE36A01229A40DC
:105790001A49086802430A6003EB83039A00314602
:1057A00014481044FFF70BFFE26A114B1B68DB6AD9
:1057B0009A42D4D2D4E70027D2E70C4B4FF0FF3205
:1057C0001A60BBE7094A1360B8E70D4A1368013352
:1057D000136000273846F8BDE4140020FC140020B4
:1057E0000415002000150020EC140020E81400200F
:1057F0009415002008150020F0140020F814002053
:10580000F4140020204B1B681BB1204B01221A60AE
:1058100070471E4B00221A601D4B1B68B3FA83F3BE
:10582000DBB2C3F11F0303EB83018A0019498A58D5
:1058300042B94FF0500383F31188BFF36F8FBFF36A
:105840004F8FFEE7134803EB83018A00024451683F
:105850004968516003EB830C4FEA8C020832024422
:10586000914209D003EB83039A000A4B13445B680F
:10587000DA68094B1A607047486862469100054A29
:105880000A445060EEE700BFE4140020F01400204A
:10589000F814002008150020941500202DE9F04789
:1058A00086468C460846089E154674461946002BC7
:1058B00040F0C2808542B2FA82F245D94AB1C2F1C3
:1058C000200300FA02FC2EFA03F3954043EA0C0C85
:1058D00094404FEA154EA8B2BCFBFEF8230C0EFB19
:1058E00018CC08FB00F943EA0C43994528D9EB187A
:1058F00008F1FF3704D2994502D9A8F102072B44D9
:10590000A3EB0903A4B2B3FBFEFC0EFB1C330CFBA0
:1059100000F044EA0344A04214D92C190CF1FF33DF
:1059200004D2A04202D9ACF102032C44241A43EA67
:1059300007401EB1D440002334607360BDE8F08797
:105940004746DDE76346F1E792BB431B01214FEA7F
:10595000154EAFB2B3FBFEFC200C0EFB1C330CFB50
:1059600007F840EA0343984562D9EB180CF1FF3081
:1059700004D2984502D9ACF102002B44A3EB0803F2
:10598000A4B2B3FBFEFC0EFB1C330CFB07F744EA8E
:105990000344A7424ED92C190CF1FF3304D2A7427D
:1059A00002D9ACF102032C44E41B43EA0040C0E7F7
:1059B000C2F1200320FA03F1954090402EFA03F340
:1059C00003434FEA154EAFB2B1FBFEFC0EFB1C10B9
:1059D000190C0CFB07F841EA0041884504FA02F46F
:1059E00022D969180CF1FF3004D2884502D9ACF1F4
:1059F00002002944A1EB08019BB2B1FBFEFC0EFBA7
:105A00001C110CFB07F743EA01439F420ED9EB1828
:105A10000CF1FF3104D29F4202D9ACF102012B44B8
:105A2000DB1B41EA004192E76046E3E76146F7E7A6
:105A30006046A3E76346B7E7834206D916B900215B
:105A400008467BE7C6E900E0F9E7B3FA83F78FB9C8
:105A5000834201D3724508D8BEEB020460EB030316
:105A600001209C461EB9002168E73846FAE7C6E9DE
:105A7000004CF8E7C7F1200CBB4022FA0CF41C43A1
:105A80002EFA0CF120FA0CF3B84001434FEA144906
:105A90000EFA07F5B3FBF9F81FFA84FE09FB18307C
:105AA0000B0C08FB0EFA43EA00439A4502FA07F290
:105AB00040D9E31808F1FF3004D29A4502D9A8F181
:105AC00002002344A3EB0A0389B2B3FBF9F809FBF4
:105AD000183308FB0EFE41EA03418E452CD96118AC
:105AE00008F1FF3304D28E4502D9A8F10203214404
:105AF00043EA0040A0FB0298A1EB0E014145CE46CF
:105B0000434602D306D14D4504D2B9EB020E68EBF1
