:020000040800F2
:10000000984A0020E902000833240008C3210008B0
:1000100031240008430500084929000800000000B9
:10002000000000000000000000000000290200089D
:10003000E106000800000000850200080D25000808
:100040000303000803030008030300080303000878
:100050000303000803030008030300080303000868
:100060000303000803030008030300080303000858
:100070000303000803030008030300080303000848
:100080000303000803030008030300080303000838
:1000900045050008030300080303000803030008E4
:1000A00003030008E9250008030300080303000810
:1000B0000303000803030008030300080303000808
:1000C00003030008030300080303000803030008F8
:1000D000030300082529000831290008030300084C
:1000E00003030008030300080303000803030008D8
:1000F00003030008030300080303000803030008C8
:1001000003030008030300080303000803030008B7
:1001100003030008030300080303000803030008A7
:100120000303000803030008030300080303000897
:100130000303000803030008030300080303000887
:100140000303000803030008030300080303000877
:100150000303000803030008030300083D29000807
:100160000303000803030008030300080303000857
:100170000303000803030008030300080000000055
:10018000030300080303000800F002F800F03CF845
:100190000AA090E8000C82448344AAF10107DA45E2
:1001A00001D100F031F8AFF2090EBAE80F0013F0F8
:1001B000010F18BFFB1A43F0010318472835000050
:1001C00048350000103A24BF78C878C1FAD85207E1
:1001D00024BF30C830C144BF04680C6070470000C1
:1001E0000023002400250026103A28BF78C1FBD840
:1001F000520728BF30C148BF0B6070471FB503F0DE
:1002000039FA1FBD10B510BD00F066F91146FFF7B1
:10021000F5FF02F0ABFB00F084F903B4FFF7F2FF47
:1002200003BC00F087F900002C4B19680868B0E89F
:10023000F04F80F30988BFF36F8F4FF0000080F319
:10024000118870470000000008480068006880F3CB
:1002500008884FF0000080F3148862B661B6BFF3DF
:100260004F8FBFF36F8F00DF00BF00BF08ED00E0CE
:10027000DFF80C00016841F470010160704700BFB5
:1002800088ED00E0EFF30980BFF36F8F134B1A681E
:100290001EF0100F08BF20ED108A20E9F04F10600B
:1002A00009B44FF0500080F31188BFF34F8FBFF3B4
:1002B0006F8F03F017F84FF0000080F3118809BC2E
:1002C00019680868B0E8F04F1EF0100F08BFB0ECD6
:1002D000108A80F30988BFF36F8F704744000020B5
:1002E000EFF3058070470000094880470948004740
:1002F000FEE7FEE7FEE7FEE7FEE7FEE7FEE7FEE7D6
:10030000FEE7FEE704480549054A064B7047000032
:10031000CD2500088901000898440020984A002053
:10032000984600209846002053EA020C00F06980AD
:100330002DE9F04B4FF00006002B1FBFB3FA83F5F9
:1003400003FA05F424FA05F65E4012BF1643B2FA2A
:1003500082F502FA05F4C5F120051EBF22FA05FC5C
:1003600044EA0C04203556EA044C4FEA144418BF02
:10037000641C4FF000084FF00009904271EB030C31
:1003800039D3002919BFB1FA81F701FA07F6B0FA9B
:1003900080F700FA07F6C7F120071EBF20FA07FC16
:1003A00046EA0C062037B6FBF4FCA7EB0507103F26
:1003B00007F01F0BCBF120060CFA0BFB2CFA06F60C
:1003C00044BFB3460026202FA4BF5E464FF0000B6B
:1003D0005BEA060C08BF4FF0010B19EB0B09ABFBF6
:1003E000027C48EB0608C01B06FB02CC0BFB03CCCF
:1003F00071EB0C01C1E70B46024641464846BDE899
:10040000F08B13B54FF000004FF00001AFF3008008
:10041000BDE81C40704710B5203AC0F00B80B1E831
:100420001850203AA0E81850B1E81850A0E8185029
:10043000BFF4F5AF5FEA027C24BFB1E81850A0E832
:10044000185044BF18C918C0BDE810405FEA827C4C
:1004500024BF51F8043B40F8043B08BF7047D20763
:1004600028BF31F8023B48BF11F8012B28BF20F804
:10047000023B48BF00F8012B70474FF0000200B567
:10048000134694469646203922BFA0E80C50A0E8B7
:100490000C50B1F12001BFF4F7AF090728BFA0E865
:1004A0000C5048BF0CC05DF804EB890028BF40F831
:1004B000042B08BF704748BF20F8022B11F0804F73
:1004C00018BF00F8012B7047704770477047000055
:1004D00000487047384400207546FFF7F9FFAE46E4
:1004E00005006946534620F00700854618B020B540
:1004F000FFF708FFBDE820404FF000064FF000076F
:100500004FF000084FF0000B21F00701AC46ACE8BB
:10051000C009ACE8C009ACE8C009ACE8C0098D4628
:10052000704710B50446AFF300802046BDE8104088
:10053000FFF773BE01491820ABBEFEE7260002009C
:100540007047FEE7014800F07DBA0000000300207C
:1005500010B50D4C9FED0B0A84ED010A00EE100A58
:10056000216E2046B8EEC00A884794ED0C1A9FED24
:10057000070ABDE8104070EE410A31EE000A00F0B3
:10058000B1B80000000020425405002000C05A45C8
:100590002DE9F04700252DED028B84B01B4F9FED18
:1005A0001C8ADFED1C8A2E464FF4FA5842F210796D
:1005B0004FF4804A05EBC50000EB051007EB800403
:1005C000204602F0D1FACDE9006820460296A46DDB
:1005D000F0EE481AB0EE681AF7EE080AB2EE040A16
:1005E0004B4652460121A0476D1C042DE2DB074813
:1005F000643802F0B9FA08484178807804B0BDEC5C
:10060000028BBDE8F04701F015BF0000B8050020DF
:1006100000000000CDCC4C3D2C00002008B5FFF7B9
:10062000B7FF2A4D2A4C2878012823D12948006891
:10063000FFF78EFF94ED570ABDEEC00A10EE100AC8
:1006400000B2009094ED3E0ABDEEC00A10EE100A12
:1006500094ED250A03B2BDEEC00A10EE100A94ED27
:100660000C0A02B2BDEEC00A10EE100A01B21A481E
:1006700002F0E2FC287828BB9FED180AF0EE400A51
:1006800000F030F894ED570ABDEEC00A10EE100AE3
:1006900000B2009094ED3E0ABDEEC00A10EE100AC2
:1006A00094ED250A03B2BDEEC00A10EE100A94EDD7
:1006B0000C0A02B2BDEEC00A10EE100A01B20648E2
:1006C00002F0BAFC0A2002F09CF9ACE7010000201D
:1006D000B8050020180000200003002000000000E2
:1006E0007047000070B5124C124DB1EE400A2DED6E
:1006F000028BB0EE608A84ED010AB5F90000216E2C
:1007000000EE100A2046B8EEC00A884784ED1A8A27
:10071000B5F93000D4F8C41000EE100ABDEC028B1D
:1007200004F16400BDE87040B8EEC00A084700005C
:10073000B80500209404002072B6FEE790F820204F
:10074000012A07D0022A05D0416A41F48021416282
:1007500001207047006842690A43426100207047E7
:10076000F0B590F820500468A468012D05D0022D42
:1007700003D0416A41F480215DE014F0406F01D163
:10078000E50055D5C4F30164022C03D9416A41F454
:10079000000150E00125A5401D608D684FF4C07335
:1007A0009DB1CE6835434E6845EAC605066803EB41
:1007B0000417F5514FF4C275076805EB04150E696F
:1007C0007E51097D012905D009E00E88CD6845EAF2
:1007D0004655EBE701684E5946F480764E51117943
:1007E000D579567941EA056195792D0445EA0625C2
:1007F00029434FF4C676056806EB0416A951117813
:10080000D57841EA0561957852782D0445EA0222AF
:1008100011434FF4C475026805EB0415515100688B
:1008200003EB0411425842F0010242500020F0BD97
:10083000416A41F4001141620120F0BD10B590F809
:100840002020012A07D0022A05D0416A41F48021E4
:100850004162012010BD3B48D0F8002242F0010265
:10086000C0F80022D0F8002222F47C52C0F8002206
:10087000D0F800224B6A42EA0322C0F800220A7D27
:1008800002F01F0301229A40D0F81C329343C0F8B3
:100890001C32CB69B3B9D0F80C329343C0F80C3298
:1008A0008C894B6864F31F434C6900EBC404C4F8A3
:1008B00040320C890B6864F31F434C6900EBC4049D
:1008C000C4F84432CB69012B16D1D0F80C32134353
:1008D000C0F80C320C884B6864F31F434C6900EB82
:1008E000C404C4F840320C89CB6864F31F434C69DC
:1008F00000EBC404C4F844328B69002BD0F80432F6
:100900000ED01343C0F804320B69002BD0F8143218
:1009100008D01343C0F81432096A012904D008E052
:100920009343EFE79343F5E7D0F81C121143C0F867
:100930001C12D0F8001221F00101C0F800120020B2
:1009400010BD00000064004003480068416941F0A8
:1009500002014161704700000003002030B590F8AB
:100960002040012C05D0022C03D0416A41F48021A3
:100970005DE00468002955D02469A40754D04FF4E1
:10098000D874056804EB01142D5915F00405956021
:1009900005682D594ED0ED08556005682C5904F0B6
:1009A0000204D4604FF4DA74056804EB01142D5985
:1009B00005F00F05156105682D59C5F307259561EB
:1009C00005682C59240C54614FF4DC72046802EB66
:1009D0000112A4581C700468A458240A5C700468AE
:1009E000A458240C9C700468A258120EDA704FF4BC
:1009F000DE72046802EB0112A4581C710468A4584A
:100A0000240A5C710468A458240C9C710468A258E0
:100A1000120EDA71006881B1016941F020010161B3
:100A2000002030BDE468A8E7416A41F4001141624A
:100A3000012030BD6D0D1560AFE7C16841F02001A8
:100A4000C160EDE72DE9F05F0546006800244669C6
:100A5000D0F804908768D0F80CB0D0F810A0D0F887
:100A60001880F10748D0F90714D001218160B80738
:100A700003D5284600F065FA0CE0780702D54FF45C
:100A8000006407E0380702D54FF4805402E028469E
:100A900000F056FAF80516D529684FF48070886082
:100AA000B80503D5284600F04EFA0CE0780502D5CB
:100AB00044F4005407E0380502D544F4804402E0D1
:100AC000284600F03FFAF80316D529684FF4803025
:100AD0008860B80303D5284600F037FA0CE07803A5
:100AE00002D544F4004407E0380302D544F48034CE
:100AF00002E0284600F028FA300707D55FEACB600D
:100B000004D52968102044F40074C86070074FF0C1
:100B1000080707D55FEA0B7004D52868C760284628
:100B200000F058F9B00706D52868C068800702D0E1
:100B3000284600F051F9700607D55FEACA6004D56F
:100B40002968102044F480640861B00607D55FEA84
:100B50000A7004D528680761284600F0C1F9F0063C
:100B600006D528680069800702D0284600F0B9F948
:100B7000B00308D55FEAC96005D529681020486030
:100B8000284600F0AFF9F00307D55FEA097004D5F5
:100B900028684760284600F0D9F9300446D55FEA56
:100BA000497040D5F00504D55FEAC87001D044F023
:100BB0000104B00504D55FEA887001D544F0020451
:100BC000700504D55FEA487001D544F0040430058F
:100BD00029D518F0700F26D008F07000402815D0E5
:100BE00006DC102809D020280AD0302816D10AE0C7
:100BF00050280ED0602811D10EE044F008040DE01A
:100C000044F010040AE044F0200407E044F04004FB
:100C100004E044F0800401E044F4807428688169B1
:100C200021F070018161296804204860002C05D002
:100C3000686A204368622846FFF786FEBDE8F09F99
:100C400070B5040003D094F8200010B104E0012036
:100C500070BD204600F082F82068016841F0010173
:100C6000016000F0D5FA0546052604E000F0D0FA50
:100C7000401B0A2811D820684068C007F6D02068B9
:100C8000016821F00201016000F0C2FA05460BE0A4
:100C900000F0BEFA401B0A2806D9606A40F4003012
:100CA000606284F82060D2E7206840688007EFD453
:100CB000207E0128206801683DD021F0800101607C
:100CC000607E01282068016838D021F04001016071
:100CD000A07E01282068016833D021F02001016046
:100CE000E07E0128206801682ED041F010010160EB
:100CF000207F01282068016829D021F008010160C7
:100D0000607F01282068016824D021F0040101607F
:100D1000D4E902010843D4E904121143084361688D
:100D2000491E08432168C86100206062012084F8E0
:100D30002000002070BD41F08001C0E741F040017B
:100D4000C5E741F02001CAE721F01001CFE741F0EB
:100D50000801D4E741F00401D9E7000010B586B0DE
:100D6000044614216846FFF788FB1749206888422B
:100D700027D116480021026842F000720260006824
:100D800000F00070059011481038026842F0080227
:100D900002600068022200F0080005900320CDE9FF
:100DA0000210CDE90002092004906946084800F0CD
:100DB00029F900220521142000F0C2FA142000F0C5
:100DC000B1FA06B010BD0000006400404038024097
:100DD000000C02407047000030B587B0044640F276
:100DE00001200090002001900290039008200490C0
:100DF00000F00EFA354D2968401AB0F5FA7F07D990
:100E00004FF48061324800F0F5F900F001FA2860F3
:100E10002E4B6A461B1D00212046FFF79FFD0098C0
:100E200040F20222A0F2022190420FD007DCB0F57E
:100E3000887F10D0A0F5007001380CD104E00129A2
:100E400006D0022907D105E0002404E0012402E0D5
:100E5000022400E003241F4804EB440100EB0110CE
:100E60001A4A8389121DC3811188F1EE040A49BA16
:100E70008181548864BA0480948864BA00EE104A70
:100E8000B8EE400A20EE200ADFED130A20EE200A19
:100E900080ED010A92798272CA1AB2F5805F02DD92
:100EA0004269521E04E012F5805F426901DA521C69
:100EB000426101EB4231028A891A81610748006868
:100EC000416941F00201416107B030BD20000020BE
:100ED000001C024094040020000080380003002021
:100EE000704770477047000070B5044690F82000C6
:100EF000012804D0606A40F40020606218E00220FB
:100F000084F820002068016821F00101016000F0F0
:100F10007FF905460EE000BF00F07AF9401B0A2871
:100F200008D9606A40F400306062052084F820002F
:100F3000012070BD20684068C007EDD1606270BDBF
:100F400070477047704770477047704770472DE98A
:100F5000F0410446876D00F05BF9064694F83500D1
:100F60000025022806D08020606584F834500120D6
:100F7000BDE8F0812068016821F016010160206859
:100F8000416921F080014161206C08B9A06C20B159
:100F90002068016821F0080101602068016821F0E3
:100FA000010101600CE000F033F9801B052807D92E
:100FB00020206065032084F8350084F83450D7E79A
:100FC00020680068C007EED194F85C103F2088408C
:100FD000B860012084F8350084F834500020C7E759
:100FE00090F83510022903D0802141650120704717
:100FF000052180F835100068016821F001010160C9
:10100000002070472DE9F84FDFF8BCA10022012530
:1010100003264FF00F090AF1040BAAF1040E00BFDA
:101020000B6805FA02F42340A34270D10F7907F050
:101030000307012F01D0022F16D187684FEA42081B
:1010400006FA08FC27EA0C07D1F80CC00CFA08FCD9
:101050004CEA070CC0F808C04768A7430C79C4F3F2
:10106000001494403C4344600C79E443A4070AD044
:10107000C4684FEA420C06FA0CF7BC438F6807FAC3
:101080000CF72743C7600C7904F00304022C12D13B
:10109000D40800EB840CDCF820405707FF0E09FA57
:1010A00007F824EA0804D1F8108008FA07F848EA9B
:1010B0000408CCF8208004684FEA420C06FA0CF7CA
:1010C000BC430F7907F0030707FA0CF727430760C3
:1010D0004C6814F4403F70D03C4C276847F480477C
:1010E0002760246822F0030704F480440094384CFD
:1010F00007EB040CDCF8084897074FEA177809FA61
:1011000008F7BC43334FB84202D1002724E054E033
:10111000314FB84201D101271EE0304FB84201D112
:10112000022719E02E4FB84201D1032714E02D4FBA
:10113000B84201D104270FE02B4FB84201D1052757
:101140000AE02A4FB84201D1062705E0284FB842ED
:1011500001D1072700E0082707FA08F72743CCF852
:101160000878DAF800405746D1F804C09C435FEA9B
:10117000CC2C00D51C433C60DBF800405F46D1F826
:1011800004C09C435FEA8C2C00D51C433C60DEF815
:1011900000407746D1F804C09C435FEA8C3C00D500
:1011A0001C433C60084F083F3C68D1F804C09C4396
:1011B0005FEACC3C00D51C433C60521C102AFFF473
:1011C0002FAFBDE8F88F0000083C014044380240D2
:1011D00000300140000002400004024000080240CC
:1011E000000C0240001002400014024000180240AF
:1011F000001C0240426921EA02030A4043EA02411C
:10120000816170470AB1816170470904FBE7000002
:10121000014880687047000034000020024881685F
:101220000278114481607047340000200B4810B5EB
:10123000016841F400710160016841F4806101605E
:10124000016841F480710160032000F099F80F20DB
:1012500000F006F800F04AF8002010BD003C024003
:1012600030B505461C4887B00024016841F00101F3
:101270000160006806A900F00100009001A800F0DC
:101280002BF900F059F915494000B0FBF1F1154870
:10129000134A491E026040F2E732C0E90324C0E964
:1012A0000114846100F0D6FB040012D10D4800F057
:1012B000FFFB04000DD1192000F034F8102D07D2E7
:1012C00000222946192000F03BF80748056000E09D
:1012D000012407B0204630BD4438024040420F0090
:1012E000000001404C040020380000200C4882B06F
:1012F000016841F480410160006800F48040009082
:101300000748001F016841F0805101600068002219
:1013100000F0805000900F21901E02B000F010B835
:1013200044380240002809DB00F01F0201219140EF
:101330004009800000F1E020C0F800117047000073
:10134000F0B40E4B1B680C46C3F30223C3F1070530
:10135000042D00D90425191D072901D2002300E01E
:10136000DB1E012606FA05F1491E214099409E40E8
:10137000761E16403143F0BC01F0E7BA0CED00E0F8
:10138000064900F0070208684FF6FF03184040EADC
:101390000220034A10430860704700000CED00E093
:1013A0000000FA052DE9F0470E46050065D0DFF88C
:1013B0001481D8F80000F7B200F00700B04207D25D
:1013C00088F80070D8F8000000F00700B04254D14F
:1013D00028683D4C810712D5400703D5206840F4AA
:1013E000E05020602878000703D5206840F4604072
:1013F00020602068A96820F0F00008432060287869
:10140000C0072DD0304968680839012812D0022859
:1014100013D0032811D00968890700292DDA216823
:1014200021F0030101432160FFF7F2FE814641F202
:10143000883A0EE009688903EFE709688901ECE75B
:10144000FFF7E6FEA0EB0901514502D90320BDE8F4
:10145000F0872068696800F00C00B0EB810FEFD1D5
:10146000D8F80010404601F00701B14207D90770D3
:10147000006800F00700B04201D00120E7E72878BB
:10148000400705D52068E96820F4E0500843206053
:101490002878000706D52068296920F4604040EAD2
:1014A000C100206000F058F82168084AC1F3031118
:1014B000515CC8400649086006480068FFF7D0FE46
:1014C0000020C4E7003C024008380240B83600085B
:1014D00040000020380000200F2202600C4A1368F0
:1014E00003F003034360136803F0F00383601368A1
:1014F00003F4E053C36012684FF4E05303EAD202EE
:1015000002610448006800F00700086070470000AE
:1015100008380240003C0240044805490068096858
:10152000044AC1F38221515CC8407047400000204A
:1015300008380240C83600080448054900680968B0
:10154000044AC1F34231515CC8407047400000205A
:1015500008380240C8360008154810B5006810F079
:101560000C02144813D01449042A0FD0082A0ED1B3
:101570000F4C241F2268236802F03F025B0207D54C
:101580002068C0F38810A0FB010106E0084610BDEA
:101590002168C1F38811A1FB00010023FEF7C4FEFE
:1015A0002168C1F30141491C4900B0FBF1F010BDB5
:1015B000083802400024F400001BB7002DE9F84F62
:1015C00004006ED02078DFF84C93C007A9F1040521
:1015D0004AD009F104000168C1F38101012908D052
:1015E0000068C0F3810002280AD1D9F80000400247
:1015F00006D52868800337D560680028E1D033E03D
:101600006068B0F5803F10D0B0F5A02F286810D0EA
:1016100020F480302860286820F4802028606068EA
:10162000A8B1FFF7F5FD06460DE0286840F48030CC
:10163000F4E740F480202860F7E700BFFFF7E8FDFB
:10164000801B642873D828688003F7D50CE0FFF767
:10165000DFFD064605E000BFFFF7DAFD801B6428CA
:10166000F0D828688003F7D42078DFF8AC828007B0
:101670004FF0000A3ED5A748001D016811F00C0F7D
:1016800008D00068C0F3810002280BD1D9F800000F
:10169000400207D42868800716D5E068012800D1E9
:1016A00012E033E1E068B8B10120C8F80000FFF7AC
:1016B000AFFD064605E000BFFFF7AAFD801B02282C
:1016C000C0D828688007F7D52868216920F0F8007D
:1016D00040EAC10028600DE0C8F800A0FFF798FDBF
:1016E000064604E0FFF794FD801B02281FD82868F7
:1016F0008007F7D42078000722D5864F8748616994
:10170000703771B101210160FFF782FD064604E0E8
:10171000FFF77EFD801B022809D838688007F7D5BF
:101720000EE0C0F800A0FFF773FD064605E082E07A
:10173000FFF76EFD801B02287DD838688007F7D43C
:101740002078400768D5DFF8CCB100270BF13C0BBF
:10175000DBF80000C0000BD4DBF8001041F0805132
:10176000CBF80010DBF80000012700F0805000905B
:101770006B4E3068C00510D4306840F48070306023
:10178000FFF746FD009005E0FFF742FD0099401A83
:10179000022850D83068C005F6D55E4EA0686C3679
:1017A00001280FD00528306810D020F001003060EB
:1017B000306820F004003060A068B8B1FFF728FD61
:1017C00000900FE0306840F00100F4E740F00400C2
:1017D0003060F7E7FFF71CFD0099411A41F28830AD
:1017E000814266D830688007F4D50EE0FFF710FD1F
:1017F000009007E0FFF70CFD0099411A41F2883094
:10180000814256D830688007F4D42FB1DBF800103D
:1018100021F08051CBF80010A069C8B33D49091DE3
:101820000968C1F3810102294AD00228504607D035
:10183000C8F8600000E03CE0FFF7EAFC04463BE04B
:101840004746C8F86000FFF7E3FC064605E000BF26
:10185000FFF7DEFC801B02282BD828688001F7D414
:10186000D4E907010843A16A2E4A490802EB014165
:10187000626A41EA8211084394F82C1040EA01613F
:10188000C9F8001001203866FFF7C2FC044606E0E4
:101890003EE000BFFFF7BCFC001B022809D8286807
:1018A0008001F7D534E000BFFFF7B2FC001B02282F
:1018B00002D90320BDE8F88F28688001F4D427E01E
:1018C0000128F7D0D9F80000E26900F480019142C4
:1018D0001CD1226A00F03F01914217D147F6C07136
:1018E000626A0140B1EB821F10D1A26A4FF0FF3350
:1018F00000F4403103EB5202B1EB024F06D194F8F1
:101900002C1000F07060B0EB016F01D00120D1E726
:101910000020CFE70438024000004742800E4742D3
:10192000007000400000FFFF70B5040009D0606A3D
:10193000002540B125616561A56294F8510040B170
:101940000CE0012070BD6068B0F5827FF4D0E561E5
:10195000F2E784F85050204600F044F8022084F862
:1019600051002068016821F040010160A0882189B0
:1019700000F4827001F404410843A18901F400617C
:101980000843217C01F002010843217D01F001019F
:101990000843218B01F400710843217F01F03801D5
:1019A000084394F8201001F080010843218D01F4D0
:1019B0000051084321680860A069042101EA104031
:1019C00094F8241001F01001084321684860206851
:1019D000C16921F40061C1616565012084F851008D
:1019E000002070BD10B586B0044614216846FEF78D
:1019F00044FD14492068884221D11348002102681F
:101A000042F480420260006800F4804005900E4875
:101A10001038026842F002020260006800F0020022
:101A200005904FF4204000900220CDE901010320F1
:101A300003900520049069460448FFF7E3FA06B0D6
:101A400010BD000000380040403802400004024051
:101A50007047704710B5040003D094F83D0010B1F2
:101A600007E0012010BD002084F83C00204600F073
:101A70001EF8022084F83D00211D206800F0BAFD08
:101A8000012084F8460084F83E0084F83F0084F882
:101A9000400084F8410084F8420084F8430084F850
:101AA000440084F8450084F83D00002010BD7047D4
:101AB00090F83D10012901D001207047022180F8E3
:101AC0003D100168CA6842F00102CA60006811490D
:101AD000884214D0B0F1804F11D00F4988420ED007
:101AE0000E4988420BD00E49884208D00D498842E1
:101AF00005D00D49884202D00C49884204D1816842
:101B000001F00701062903D0016841F001010160DD
:101B10000020704700000140000400400008004021
:101B2000000C00400004014000400140001800404B
:101B3000704770B50446006801694FF00005C9435D
:101B4000890715D4C168C943890711D4E91E016109
:101B500001202077206880698007204602D0FFF7A7
:101B6000E7FF04E000F098F8204600F096F82577AB
:101B700020680169C943490717D4C168C9434907A7
:101B800013D46FF00401016102202077206880697E
:101B900010F4407F204602D0FFF7CAFF04E000F0B7
:101BA0007BF8204600F079F8257720680169C94361
:101BB000090716D4C168C943090712D46FF0080198
:101BC0000161042020772068C0698007204602D088
:101BD000FFF7AEFF04E000F05FF8204600F05DF88C
:101BE000257720680169C943C90617D4C168C9436C
:101BF000C90613D46FF01001016108202077206816
:101C0000C06910F4407F204602D0FFF791FF04E046
:101C100000F042F8204600F040F82577206801697E
:101C2000C943C90708D1C168C943C90704D1891E7E
:101C30000161204600F032F820680169C9430906B5
:101C400009D4C168C943090605D46FF08001016158
:101C50002046FFF7FDFE20680169C943490609D403
:101C6000C168C943490605D46FF0400101612046AF
:101C700000F01EF820680169C94389060BD4C168C9
:101C8000C943890607D46FF0200101612046BDE8F1
:101C90007040FFF7DEBE70BD7047704700680349B3
:101CA000884201D1FFF7BABA704700000000014036
:101CB0007047704770470000F8B50168044608682F
:101CC000CA684B6910F00F0F4FF0000559D003F0B0
:101CD000010602F49077374365D0C10705D0D105DE
:101CE00003D5216C41F001012164410705D5D907D5
:101CF00003D0216C41F002012164810705D5D90789
:101D000003D0216C41F004012164010707D502F0E2
:101D10002001314303D0216C41F008012164216C82
:101D200000293AD0800604D5900602D5204600F05E
:101D3000F4FC20684069216CC0F38010090700D4CE
:101D400060B3204600F0C2FC20684069400621D5FF
:101D50002068143050E8001F21F0400140E80012D4
:101D6000002AF5D1A06BA8B16C490165A06BFFF703
:101D700037F9002811D0A06B016D01B0BDE8F0402B
:101D8000084783060FD593060DD52046BDE8F840D9
:101D900000F0C3BC2046FFF78DFFF8BD2046FFF7DB
:101DA00089FF2564F8BD266B2023012E79D1C60654
:101DB00077D5D60675D5086848680090486940060A
:101DC00040D5A16B086840680004000CEAD0A28DE1
:101DD0008242E7D9E085C869B0F5807F2DD02068C0
:101DE0000C3050E8001F21F4807140E80012002AF6
:101DF000F5D12068143050E8001F21F0010140E8BF
:101E00000012002AF5D12068143050E8001F21F09C
:101E1000400140E80012002AF5D184F83E302563E5
:101E200020680C3050E8001F21F0100140E800123B
:101E3000002AF5D1A06BFFF78AF8A08DE18D401A3A
:101E400081B229E0A08DE18D401A81B2E08D002899
:101E5000A8D00029A6D020680C3050E8002F22F42A
:101E6000907240E80026002EF5D12068143050E82A
:101E7000002F22F0010240E80026002EF5D184F860
:101E80003E30256320680C3050E8002F22F010020D
:101E900040E80023002BF5D12046FFF70AFFF8BDEC
:101EA000FFE705062BD5150629D594F83D00212816
:101EB000F5D1A068B0F5805F01D12069B0B1206A8A
:101EC000411C2162216800784860E08C401E0004BB
:101ED000000CE084E3D12068C16821F08001C1607A
:101EE0002068C16841F04001C160D8E7206A0088DD
:101EF000C0F308004860206A801C2062E5E74006C5
:101F0000CDD55006CBD5CA68204622F04002CA6023
:101F100084F83D3000F054F9C1E70000BD26000808
:101F200070B5040004D094F83D00002510B106E01F
:101F3000012070BD84F83C50204600F023F8242096
:101F400084F83D002068C16821F40051C16020463A
:101F500000F044FC2068016921F49041016120688F
:101F6000416921F02A0141612068C16841F40051B2
:101F7000C1602564202084F83D0084F83E000020E4
:101F800070BD0000F0B587B0044614216846FEF726
:101F900074FA4748454B2268002445491438022505
:101FA000032607279A4232D10A6842F010020A60DB
:101FB000096801F010010591016841F0020101601A
:101FC000016801F002010591016841F00101016021
:101FD000006802AA00F0010005908020CDE900050C
:101FE00082E8D00069463348FFF70CF82802CDE9B3
:101FF000000502AA694682E8D0002F48FFF702F8E0
:10200000002205212520FFF79BF9252024E02B4BFA
:102010009A4225D12649091F0A6842F400320A6013
:10202000096801F400310591016841F0080101607F
:10203000006802AA00F0080005906020CDE90005C4
:1020400082E8D00069461E48FEF7DCFF0022052129
:102050002620FFF775F92620FFF764F907B0F0BDD9
:10206000184B9A42FAD10A6842F020020A600968C5
:1020700001F020010591016841F040010160006814
:10208000029400F0400005904FF48440CDE9000533
:102090000820CDE9036069460B48FEF7B3FF002234
:1020A00005214720FFF74CF94720D5E700100140F4
:1020B0004438024000040240000002400044004056
:1020C000000C0240001401400018024090F83E301D
:1020D000202B0ED159B152B190F83C30012B08D0D1
:1020E000012380F83C300023036300F0FDBB012096
:1020F00070470220704700002DE9F041284905464D
:102100000068096801260024884230D1DFF894C0B5
:1021100025489CF8007001785A2F00D111B101298F
:1021200002D01FE006701DE0214B20491A688F5431
:10213000521C1A60082A15D104701C608CF80040EB
:1021400008888A7840BA000440EA0220CA7810431E
:10215000586088888A7940BA0004C97940EA022028
:102160000843986001220F490D48FFF7AFFF11495E
:1021700028680968884210D10F480078312803D1B7
:102180000E48017839B10470BDE8F04101220A49D6
:102190000848FFF79BBF0670F6E7BDE8F081000036
:1021A000080400200200002000000020040000209D
:1021B0001400002080030020030000200100002004
:1021C0007047FEE7104810B50E49016003214160D9
:1021D00000214FF400228160C0E903124FF4401245
:1021E00042610176012242768176C176017741779C
:1021F000FEF726FD002803D0BDE81040FEF79CBA8C
:1022000010BD0000006400400003002010B58EB037
:102210001C220B496846FEF7FEF80021684600F0D4
:10222000FCFB084C06491C2260601C3107A8FEF725
:10223000F2F8002107A800F0F0FB20600EB010BDFE
:10224000803600080C0000202DE9F04786B01421EC
:102250006846FEF712F937480024016841F0400152
:102260000160016801F040010591016841F0010140
:102270000160016801F001010591016841F002016E
:102280000160016801F002010591016841F0080157
:102290000160016801F008010591016841F0040145
:1022A0000160016801F004010591016841F08001BD
:1022B0000160016801F080010591016841F0200191
:1022C00001600068DFF8708000F0200005900022B7
:1022D00002214046FEF796FF0122DFF86090960249
:1022E00031464846FEF78EFFDFF854A04FF4A04772
:1022F000002239465046FEF785FF02200090012556
:10230000CDE90154694640460394FEF77BFE0096F2
:10231000CDE90154694648460394FEF773FE0097E1
:10232000CDE90154694650460394FEF76BFE06B0B2
:10233000BDE8F0873038024000140240001C024023
:10234000000402400F4810B50D4901604FF482713E
:10235000416000218160C1604FF400720161C0E9F9
:102360000512C1610162416281620A21C162FFF707
:10237000DBFA002803D0BDE81040FEF7DDB910BD40
:1023800000380040280300200C4810B50A490160BD
:102390004FF4E1314160002181600C22C160C0E94D
:1023A00004128161C161FFF7BBFD002803D0BDE8C5
:1023B0001040FEF7C1B910BD00100140800300209D
:1023C0000C4810B50A4901604FF4E1314160002129
:1023D00081600C22C160C0E904128161C161FFF714
:1023E0009FFD002803D0BDE81040FEF7A5B910BD41
:1023F00000440040C40300200C4810B50A490160A5
:102400004FF4E1314160002181600C22C160C0E9DC
:1024100004128161C161FFF783FD002803D0BDE88C
:102420001040FEF789B910BD0014014008040020D7
:10243000FEE7FEE72DE9FE43DFF8B0802C4D46466F
:1024400098F802C0777800243678AD6D4FF47A633F
:1024500041F2883260451DD14FF4A0709FED251ADE
:10246000B94207D1CDE90040F0EE411ADFED220A72
:10247000029408E0B1420BD1CDE90040F2EE001A1F
:10248000F1EE0C0A0294B1EE040A02211848A847A2
:10249000BDE8FE83C14698F803809FED181ADFED72
:1024A000180A4FF4FA5C40450BD1B94201D0B14251
:1024B000EED1CDE9004CF2EE041AB0EE080A029417
:1024C000E3E799F804209042E2D140F6AC5341F2A0
:1024D0003012B94201D0B142DAD1CDE9004CF2EE6E
:1024E000041AB2EE040A0294CFE700002C00002088
:1024F00054050020000000009A993940CDCC4C3D95
:1025000000000C420A2000F07CFAFBE710B55020D6
:1025100080F31188BFF34F8FBFF36F8F00F0E2FF9E
:1025200018B104494FF080500860002080F31188F2
:1025300010BD000004ED00E030B593B030216846D6
:10254000FDF79BFF14210CA8FDF797FF1D48002500
:10255000016841F080510160006800F080501190E6
:102560001948016841F4804101600068022400F4C8
:102570008040119001200090000401908001CDE97D
:10258000064006200890A820CDE9090404200B90FD
:102590006846FFF713F808B172B6FEE70CA90F20E2
:1025A00081E831004FF4A0500F904FF4805010900C
:1025B00005210CA8FEF7F6FE002801D072B6FEE752
:1025C00013B030BD4038024000700040054801683B
:1025D00041F47001016003494FF0006080390860E8
:1025E0007047000088ED00E00148FFF7A2BA000044
:1025F0004C040020F0B50268254C264D264E274F8E
:10260000274B4FF0804CA04209D0604507D0A8422C
:1026100005D0B04203D0B84201D0984204D122F094
:10262000700E4A6842EA0E02A0421BD0604519D0E3
:10263000A84217D0B04215D0B84213D0984211D05A
:10264000184DA8420ED0184DA8420BD0174DA842E5
:1026500008D0174DA84205D0164DA84202D0164DFD
:10266000A84203D122F44075CA682A434D6922F07A
:1026700080022A4302608A68C2620A688262A042BB
:1026800001D0984201D10969016301214161F0BD86
:10269000000001400004004000080040000C004021
:1026A0000004014000400140004401400048014056
:1026B00000180040001C00400020004010B5806B56
:1026C0000021C185C184FFF7F5FA10BD01680C3106
:1026D00051E8002F22F4907241E80023002BF5D13D
:1026E0000168143151E8002F22F0010241E8002373
:1026F000002BF5D1016B012909D101680C3151E89A
:10270000002F22F0100241E80023002BF5D12021F8
:1027100080F83E1000210163704708B590F83E1024
:10272000222901D0022008BD82684FF480539A42CA
:1027300001D1016921B1816A9A421BD04AB10AE0F4
:102740000268816A5268C2F308020A80816A891CA1
:1027500008E0026972B10268526802F07F020A70F2
:10276000816A491C8162C18D491E0904090CC18519
:1027700003D019E002685268F1E70168CA6822F0E4
:102780002002CA600168CA6822F48072CA600168C7
:102790004A6922F001024A61202180F83E10016B53
:1027A000012903D0FFF7A8FC002008BD0021016328
:1027B00001680C3151E8002F22F0100241E800239B
:1027C000002BF5D101680A68D20602D50A6849686B
:1027D0000091818DFFF76DFAE6E7000070B50446C1
:1027E00000680169E26821F44051114301612169E7
:1027F000A068E26908436169114308432168CA6817
:1028000049F20C639A430243CA6020684169A26995
:1028100021F440711143416131492068884202D05E
:102820003049884202D1FEF787FE01E0FEF774FED0
:10283000E2690023192164253226B2F5004F62684F
:1028400028D0A0FB0101930F9200FDF76DFD01461A
:10285000B0FBF5F06FF01802504301EB800006EB7F
:102860000010B0FBF5F000F0F002B1FBF5F002EB68
:102870000012B1FBF5F06FF01803584301EB800034
:1028800006EB0010B0FBF5F000F00F0021681044DB
:10289000886070BDA0FB010192185B41FDF744FD0B
:1028A0000146B0FBF5F00201B1FBF5F06FF0180343
:1028B000584301EB800006EBC000B0FBF5F000F0E0
:1028C000F80002EB4002B1FBF5F0584301EB800049
:1028D00006EBC000B0FBF5F000F00700D6E7000003
:1028E000001001400014014081628285C2850021F0
:1028F0000164222280F83E2080F83C10016921B159
:102900000168CA6842F48072CA6001684A6942F08C
:1029100001024A610068C16841F02001C1600020E5
:10292000704700000148FFF7C7B90000800300208E
:102930000148FFF7C1B90000C40300200148FFF7B8
:10294000BBB9000008040020FEE70907090E0028B3
:1029500004DB00F1E02080F80014704700F00F0065
:1029600000F1E02080F8141D70470000FEF75EFCC7
:10297000FFF7E2FDFFF768FCFFF724FCFFF704FD1B
:10298000FFF71EFDFFF738FDFFF7DCFC0C48FEF7F4
:10299000ABFA0B4800F022F802210948FDF7CEFE01
:1029A000012208490848FFF791FB06490122491E08
:1029B0000648FFF78BFBFFF729FC00F029F8FEE73C
:1029C00000030020030000208003002008040020F2
:1029D00001460020842900D0C81C704700B58BB088
:1029E00000210122CDE9061203910091019102918B
:1029F00004910E21059108926946FDF71FFF0BB067
:102A000000BD10B500B9012000F008FC002010BD89
:102A100010B500F029FC002010BD7FB50D4604461E
:102A20004169B0F9080081B1A16971B1FFF7D0FF28
:102A3000D4E905128DE80700D4E900102B4622697D
:102A400000F025FD039004B070BDFFF7C1FF03A99E
:102A5000CDE90001208A2B4682B2D4E9001000F0B3
:102A6000E9FC012801D00020EDE70398EBE710B561
:102A700004462DED028BB0EE408AC06C2065FEF757
:102A8000C7FBE06494F85010401A84F8540084EDB9
:102A9000068AD4ED071AC4ED081A94ED0C0A84EDE9
:102AA0000D0A94ED010A30EE480A84ED070AB5EEEE
:102AB000C00AF1EE10FA02DDF0EE400A01E0F1EE9C
:102AC000400A94ED101AF4EEC10AF1EE10FA46DD58
:102AD000D4ED030A20EE801A84ED091AD4ED0A0A17
:102AE00094ED042A42EE000A30EE610AC4ED0A0AAF
:102AF000D4ED051A60EE211AC4ED0B1A94ED0F0AFD
:102B0000F4EEC00AF1EE10FA01DD84ED0A0AD4ED0C
:102B10000A0AB1EE400AF4EEC00AF1EE10FA02D34E
:102B2000B0EE600A01E084ED0A0A31EE000A70EEB0
:102B3000210AC4ED0C0A94ED0E0AF4EEC00AF1EE7F
:102B400010FA01DD84ED0C0AD4ED0C0AB1EE400A56
:102B5000F4EEC00AF1EE10FA01D284ED0C0A94ED05
:102B60000C0ABDEC028B10BD034981650349C165A8
:102B70000349016670470000852B0008DD2B000823
:102B80006F2A00089DED003A9DED022ADDED012A35
:102B9000B8EE433A017080ED113A80ED100A00EE74
:102BA000103AB8EE400A80ED0F0A00EE102AB8EE97
:102BB000400A80ED0E0AB8EEE20A80ED120AB8EE85
:102BC000C20A80ED010A9FED040A80ED0C0A0C3068
:102BD000C0EC030A70470000000000000C3080ECDD
:102BE000030A70472DE9F041184C0F460546E66888
:102BF0002068001D00F04AFA38B9206890F82C10BF
:102C000001208840216981432161681C07D137B1C7
:102C10002168BDE8F0410E48091D00F07BBA20682C
:102C20003544B5424560216805D2A06BBDE8F0414E
:102C3000091D00F057BA606B091D00F053FAA06A35
:102C4000854200D2A562BDE8F0810000440000206A
:102C5000240800202DE9F041054600F067FA2E4CCB
:102C6000A068401CA06020682C4F10B1606940B380
:102C70002DE02560A068012829D1002606EB8600FA
:102C800007EB800000F020FA761C072EF6D32348CD
:102C90008C3000F019FA2148A03000F015FA1F48D6
:102CA000B43000F011FA1D48C83000F00DFA1B488E
:102CB000DC3000F009FA19488C3060631430A063EE
:102CC00005E02068E96AC06A884200D82560606A29
:102CD000401C6062E96A012022698840104320613B
:102CE00001EB810007EB8000291D00F013FA00F0D2
:102CF0003DFA606900280CD02068E96AC06A884201
:102D000007D207494FF080500860BFF34F8FBFF3E1
:102D10006F8FBDE8F08100004400002048070020CC
:102D200004ED00E010B5044690F8510058B10128B8
:102D30000CD002280FD0502080F31188BFF34F8FA2
:102D4000BFF36F8FFEE7206B00F024FA2046BDE84A
:102D5000104000F01FBA10BD10484FF470514207E8
:102D600006D0C01D0D4920F00700411AC1F5705171
:102D70000B4A00230144C2E900030839183A21F044
:102D8000070111604B600B600B1AC0E900139360E0
:102D90004FF0004053605061704700003808002039
:102DA00098000020144E154CA6F1C8074FF080582B
:102DB000DFF84C9012E000BF00F0B8F9F068C56889
:102DC000281D00F063F9A068401EA0606068401EE6
:102DD000606000F0CBF92846FFF7A4FF6068002888
:102DE000EAD138680128F9D9C9F80080BFF34F8FBC
:102DF000BFF36F8FF2E700001008002044000020AE
:102E000004ED00E02DE9F0479A46DDE909848146AA
:102E10006FF00303206B03EB82021044089E20F046
:102E20000707780707D0502080F31188BFF34F8F32
:102E3000BFF36F8FFEE7002561B1002023180A5C05
:102E400083F834200A5C12B1401C1028F6D384F8B1
:102E5000435001E084F83450072E00D30626E66282
:102E6000C4E91165201D00F03AF904F1180000F0E2
:102E700036F92461C6F107006462A061E56484F854
:102E8000505052464946384600F0C0F82060B8F12C
:102E9000000F01D0C8F80040BDE8F08730B51149F7
:102EA00000E011460A688242FBD34B685C188442FA
:102EB00003D1406818444860084643681C1894428F
:102EC00009D1084C183C2468A24209D052681A441F
:102ED00042600A6812680260814200D0086030BD1A
:102EE0000460F9E7980000200648416B096829B1A1
:102EF000416BC968C9684968816270474FF0FF310A
:102F0000FAE700004400002008484068401C4FF0E9
:102F1000500080F3118804D0BFF34F8FBFF36F8F41
:102F2000FEE7BFF34F8FBFF36F8FFEE7A0000020D7
:102F30002DE9F0410546002700F0CCF9324E30680B
:102F400008B9FFF709FF706905424ED1C5B30835CE
:102F500068070ED005F00700C0F1080005446807B7
:102F600007D0502080F31188BFF34F8FBFF36F8FCE
:102F7000FEE72DB37068854237D8234818300146E4
:102F80000C6801E020460C466168A94202D2216823
:102F90000029F7D131688C4227D007682168016089
:102FA00060680837411B10290FD96019420708D003
:102FB000502080F31188BFF34F8FBFF36F8FFEE770
:102FC00013E041606560FFF769FF61687068401A4F
:102FD0007060B268904200D2B06070690143002016
:102FE000C4E90001F068401CF06000F0E1FA7807E5
:102FF00007D0502080F31188BFF34F8FBFF36F8F3E
:10300000FEE73846BDE8F0818000002010B5031FC0
:103010004FF080741C601B1F21F001011960191F03
:10302000044B0B6014390A60091F6FF00202443828
:103030000A6010BD092F000870B58AB000244FF453
:103040000076CDE900640E9D089408260294CDE92F
:1030500003468DF814400C0A8DF818408DF81910AD
:10306000110A8DF81A10190A8DF81C108DF81D30F0
:10307000290A8DF81E108DF81B208DF81F5008AB03
:1030800006AA6946FDF76CFB0AB070BDD0E90132B3
:1030900001699A60D0E901235A604A68824201D1ED
:1030A00082684A60002202610868401E0860086861
:1030B00070470000034B036003F154000860802058
:1030C00010607047AC00002000F108014FF0FF32A3
:1030D000C0E90112C1600161002101607047002157
:1030E0000161704730B50B685A1C02D000F108022C
:1030F00002E0026904E02246546825689D42FAD93C
:1031000053684B6099608A60516008610168491C8E
:10311000016030BD42684A6093688B609368596073
:10312000916008610168491C01607047502080F37C
:103130001188BFF34F8FBFF36F8F0A494868401C57
:10314000486001280CD10848006810F0FF0F07D034
:10315000502080F31188BFF34F8FBFF36F8FFEE7CE
:1031600070470000A000002004ED00E00849486816
:1031700028B1401E486001D180F31188704750206B
:1031800080F31188BFF34F8FBFF36F8FFEE700000E
:10319000A000002070B500282AD0164DA0F1080428
:1031A00060686969084207D1502080F31188BFF335
:1031B0004F8FBFF36F8FFEE722683AB1502080F344
:1031C0001188BFF34F8FBFF36F8FFEE788436060B6
:1031D00000F080F860686968084468602046FFF77E
:1031E0005DFE2869401C2861BDE8704000F0E0B930
:1031F00070BD0000800000204FF0E0200021016140
:10320000816105494FF47A720968B1FBF2F1491EF8
:1032100041610721016170474000002010B50200A4
:1032200014D00F48006B38B1502080F31188BFF3E1
:103230004F8FBFF36F8FFEE700F04CF80021104670
:10324000FFF7D0FC00F0B4F9002807D105494FF092
:1032500080500860BFF34F8FBFF36F8F10BD000029
:103260004400002004ED00E010B586B00024039473
:1032700005AA04A903A80494FFF71CFFDDE90301D4
:103280000094CDE9011000230EA11048059A00F02A
:10329000FEF80F490028C86211D0502080F3118831
:1032A000BFF34F8FBFF36F8F4FF0FF308862012065
:1032B0004861CC6006B0BDE8104000F041B806B0EF
:1032C00010BD000049444C4500000000A52D000839
:1032D000440000200248016B491C01637047000054
:1032E000440000201448016B11B10121C1617047F5
:1032F0000021C1610169B1FA81F1C1F11F0101EB46
:1033000081020E4951F822306BB101EB820101F1CB
:1033100008034A6852684A609A4201D152684A607A
:10332000D16801607047502080F31188BFF34F8F40
:10333000BFF36F8FFEE70000440000204807002025
:103340001CB537480168374A914207D1502080F3B5
:103350001188BFF34F8FBFF36F8FFEE700683149CD
:10336000491E884207D1502080F31188BFF34F8F48
:10337000BFF36F8FFEE72C4908780190FF2008709B
:1033800008788DF800009DF800009DF8002000F0FE
:10339000F000904207D0502080F31188BFF34F8F88
:1033A000BFF36F8FFEE79DF80000204C00F0500047
:1033B00020700720A06005E09DF8002052008DF8E5
:1033C0000020401E9DF800201206F5D4A0600328BE
:1033D00007D0502080F31188BFF34F8FBFF36F8F5A
:1033E000FEE74FF44070A060019808700C48203050
:1033F000016841F470010160016841F070410160B1
:10340000FFF7FAFE00206060FCF732FF0848016811
:1034100041F040410160FCF717FF00201CBD000097
:1034200000ED00E071C20F4100E400E0A0000020C8
:1034300034EF00E02DE9FF5F8346DDE90E87994612
:1034400016468A469000FFF773FD05001CD05420F5
:10345000FFF76EFD040014D00020256384F85100AE
:10346000CDE90240CDE900874B46324651465846E9
:10347000FFF7C8FC2046FFF7EDFB012004B0BDE8D4
:10348000F09F2846FFF786FE4FF0FF30F6E7F0B5D5
:1034900085B0DDE90B640A9DA6B1DCB15427009725
:1034A0002663022684F85160002604AFCDE9024667
:1034B000CDE90057FFF7A6FC2046FFF7CBFB0498A9
:1034C00005B0F0BD502080F31188BFF34F8FBFF3DC
:1034D0006F8FFEE7502080F31188BFF34F8FBFF34B
:1034E0006F8FFEE72DE9F0412F4C0026206B28B1AD
:1034F000A069401CA0613046BDE8F081E5686D1C04
:10350000E56013D1606B006838B1502080F31188FA
:10351000BFF34F8FBFF36F8FFEE7606BA16B6163EB
:10352000A063206A401C2062FFF7DEFCA06ADFF87F
:103530007C80854209D3606B0068A0B1606BC06875
:10354000C7687868854211D2A0622068C06A00EB23
:10355000800158F82100012800D90126E0690028DF
:10356000C9D00126C7E74FF0FF30EDE7381DFFF760
:103570008DFDB86A18B107F11800FFF787FDF96AE9
:103580000120226988401043206101EB810108EB92
:103590008100391DFFF7BEFDF86A2168C96A8842BB
:1035A000C9D30126C7E700004400002048070020D7
:1035B0002DE9F0472C4D00242746286B38B1FFF742
:1035C000B5FD286B401E2863286B40B146E05020B3
:1035D00080F31188BFF34F8FBFF36F8FFEE7A968A9
:1035E000224E0120D1B3A6F1B40980463068E8B17B
:1035F000F068C46804F11800FFF748FD201DFFF7CC
:1036000045FDE06A2A6908FA00F11143296100EBDF
:10361000800109EB8100211DFFF77CFDE06A29682C
:10362000C96A8842E2D3C5F81C80DFE70CB1FFF716
:103630005BFCAC6944B14646FFF754FF00B1EE6154
:10364000641EF9D10020A861E86938B10849012752
:1036500038070860BFF34F8FBFF36F8FFFF786FD0A
:103660003846BDE8F087000044000020FC07002039
:1036700004ED00E04FF04070E1EE100A70470000EA
:10368000D0360008052500080000000000000000FA
:10369000800000000000000000000000DC36000890
:1036A0001D060008000000000000000000010000EE
:1036B000000000000000000000000000000000000A
:1036C00001020304060708090000000001020304C8
:1036D00064656661756C745461736B0043686173F3
:1036E000736973000437000800000020AC0000007C
:1036F000C4010008B0370008AC000020EC4900000D
:10370000E0010008000000000000000000000000D0
:1037100000000000000000000000000000000000A9
:103720004001000000000000000000000000000058
:103730000001000102000000010000001000000074
:10374000000000000024F400000000000000000061
:103750000000000000000000000000000000000069
:103760000000000000000000000000000000000059
:103770000000000000000000000000000000000049
:103780000000000000000000000000000000000039
:103790000000000000000000000000000000000029
:1037A0000000000000000000AAAAAAAA0000000071
:040000050800018965
:00000001FF
