:020000040800F2
:1000000000000220892800083D2000083F20000849
:10001000412000084320000845200008000000009F
:10002000000000000000000000000000B1510008C6
:100030004720000800000000E15100084552000878
:10004000D9280008D9280008D9280008D92800088C
:10005000D9280008D9280008D9280008D92800087C
:10006000D9280008D9280008D9280008D92800086C
:10007000D9280008D9280008D9280008D92800085C
:10008000D9280008D9280008D9280008D92800084C
:1000900049200008D9280008D9280008D9280008D4
:1000A000D9280008D9280008D9280008D92800082C
:1000B00059200008D9280008D9280008D9280008A4
:1000C000D9280008D9280008D9280008D92800080C
:1000D000D92800086920000879200008D9280008DC
:1000E000D9280008D9280008D9280008D9280008EC
:1000F000D9280008D9280008D9280008D9280008DC
:10010000D9280008D9280008D9280008D9280008CB
:10011000D9280008D9280008D9280008D9280008BB
:10012000D9280008D9280008D9280008D9280008AB
:10013000D9280008D9280008D9280008D92800089B
:10014000D9280008D9280008D9280008D92800088B
:10015000D9280008D9280008D928000889200008D3
:10016000D9280008D9280008D9280008D92800086B
:10017000D9280008D9280008D92800080000000064
:08018000D9280008D928000865
:1001C00010B5054C237833B9044B13B10448AFF391
:1001D00000800123237010BDB80D00200000000036
:1001E000A4CA000808B5034B1BB103490348AFF389
:1001F000008008BD00000000BC0D0020A4CA00085B
:1002000081F0004102E000BF83F0004330B54FEAC7
:1002100041044FEA430594EA050F08BF90EA020F34
:100220001FBF54EA000C55EA020C7FEA645C7FEAC7
:10023000655C00F0E2804FEA5454D4EB5555B8BFEA
:100240006D420CDD2C4480EA020281EA030382EA5B
:10025000000083EA010180EA020281EA0303362DED
:1002600088BF30BD11F0004F4FEA01314FF4801CC0
:100270004CEA113102D0404261EB410113F0004FD2
:100280004FEA03334CEA133302D0524263EB430389
:1002900094EA050F00F0A780A4F10104D5F1200E27
:1002A0000DDB02FA0EFC22FA05F2801841F1000182
:1002B00003FA0EF2801843FA05F359410EE0A5F156
:1002C00020050EF1200E012A03FA0EFC28BF4CF087
:1002D000020C43FA05F3C01851EBE37101F000453D
:1002E00007D54FF0000EDCF1000C7EEB00006EEB4A
:1002F0000101B1F5801F1BD3B1F5001F0CD34908D4
:100300005FEA30004FEA3C0C04F101044FEA44522A
:1003100012F5800F80F09A80BCF1004F08BF5FEAB1
:10032000500C50F1000041EB045141EA050130BD91
:100330005FEA4C0C404141EB0101013C28BFB1F5A3
:10034000801FE9D291F0000F04BF01460020B1FAEE
:1003500081F308BF2033A3F10B03B3F120020CDAC1
:100360000C3208DD02F1140CC2F10C0201FA0CF09F
:1003700021FA02F10CE002F11402D8BFC2F1200C04
:1003800001FA02F120FA0CFCDCBF41EA0C019040BA
:10039000E41AA2BF01EB0451294330BD6FEA040403
:1003A0001F3C1CDA0C340EDC04F11404C4F12002EE
:1003B00020FA04F001FA02F340EA030021FA04F300
:1003C00045EA030130BDC4F10C04C4F1200220FA57
:1003D00002F001FA04F340EA0300294630BD21FA95
:1003E00004F0294630BD94F0000F83F4801306BF5B
:1003F00081F480110134013D4EE77FEA645C18BF4F
:100400007FEA655C29D094EA050F08BF90EA020FE5
:1004100005D054EA000C04BF1946104630BD91EADD
:10042000030F1EBF0021002030BD5FEA545C05D1E0
:100430004000494128BF41F0004130BD14F580041F
:100440003CBF01F5801130BD01F0004545F0FE4193
:1004500041F470014FF0000030BD7FEA645C1ABFC8
:10046000194610467FEA655C1CBF0B46024650EAFF
:10047000013406BF52EA033591EA030F41F400212B
:1004800030BD00BF90F0000F04BF0021704730B5B1
:100490004FF4806404F132044FF000054FF0000186
:1004A00050E700BF90F0000F04BF0021704730B547
:1004B0004FF4806404F1320410F0004548BF40421C
:1004C0004FF000013EE700BF42004FEAE2014FEA71
:1004D00031014FEA02701FBF12F07F4393F07F4F4C
:1004E00081F06051704732F07F4208BF704793F04F
:1004F0007F4F04BF41F40021704730B54FF4607462
:1005000001F0004521F000411CE700BF50EA010264
:1005100008BF704730B54FF000050AE050EA01020D
:1005200008BF704730B511F0004502D5404261EB7D
:1005300041014FF4806404F132045FEA915C3FF4BE
:10054000D8AE4FF003025FEADC0C18BF03325FEA5B
:10055000DC0C18BF033202EBDC02C2F1200300FA0C
:1005600003FC20FA02F001FA03FE40EA0E0021FA31
:1005700002F11444BDE600BF70B54FF0FF0C4CF41F
:10058000E06C1CEA11541DBF1CEA135594EA0C0FD1
:1005900095EA0C0F00F0DEF82C4481EA030621EA0C
:1005A0004C5123EA4C5350EA013518BF52EA033547
:1005B00041F4801143F4801338D0A0FB02CE4FF0F9
:1005C0000005E1FB02E506F00042E0FB03E54FF029
:1005D0000006E1FB03569CF0000F18BF4EF0010E21
:1005E000A4F1FF04B6F5007F64F5407404D25FEA1D
:1005F0004E0E6D4146EB060642EAC62141EA5551D0
:100600004FEAC52040EA5E504FEACE2EB4F1FD0C11
:1006100088BFBCF5E06F1ED8BEF1004F08BF5FEA8F
:10062000500E50F1000041EB045170BD06F0004641
:1006300046EA010140EA020081EA0301B4EB5C04EE
:10064000C2BFD4EB0C0541EA045170BD41F48011E6
:100650004FF0000E013C00F3AB8014F1360FDEBF0B
:10066000002001F0004170BDC4F10004203C35DAE7
:100670000C341BDC04F11404C4F1200500FA05F36A
:1006800020FA04F001FA05F240EA020001F000420B
:1006900021F0004110EBD37021FA04F642EB060181
:1006A0005EEA430E08BF20EAD37070BDC4F10C04AB
:1006B000C4F1200500FA04F320FA05F001FA04F26F
:1006C00040EA020001F0004110EBD37041F100015B
:1006D0005EEA430E08BF20EAD37070BDC4F1200566
:1006E00000FA05F24EEA020E20FA04F301FA05F2CE
:1006F00043EA020321FA04F001F0004121FA04F276
:1007000020EA020000EBD3705EEA430E08BF20EA45
:10071000D37070BD94F0000F0FD101F0004640007F
:1007200041EB010111F4801F08BF013CF7D041EA01
:10073000060195F0000F18BF704703F00046520005
:1007400043EB030313F4801F08BF013DF7D043EAD6
:100750000603704794EA0C0F0CEA135518BF95EA8C
:100760000C0F0CD050EA410618BF52EA4306D1D113
:1007700081EA030101F000414FF0000070BD50EA32
:10078000410606BF1046194652EA430619D094EABC
:100790000C0F02D150EA013613D195EA0C0F05D1A6
:1007A00052EA03361CBF104619460AD181EA0301FA
:1007B00001F0004141F0FE4141F470014FF00000B2
:1007C00070BD41F0FE4141F4780170BD70B54FF04D
:1007D000FF0C4CF4E06C1CEA11541DBF1CEA1355CD
:1007E00094EA0C0F95EA0C0F00F0A7F8A4EB0504AF
:1007F00081EA030E52EA03354FEA013100F08880A6
:100800004FEA03334FF0805545EA131343EA12636E
:100810004FEA022245EA111545EA10654FEA002623
:100820000EF000419D4208BF964244F1FD0404F5DC
:10083000407402D25B084FEA3202B61A65EB030538
:100840005B084FEA32024FF480104FF4002CB6EBF5
:10085000020E75EB030E22BFB61A754640EA0C0075
:100860005B084FEA3202B6EB020E75EB030E22BFB5
:10087000B61A754640EA5C005B084FEA3202B6EBF6
:10088000020E75EB030E22BFB61A754640EA9C00B5
:100890005B084FEA3202B6EB020E75EB030E22BF85
:1008A000B61A754640EADC0055EA060E18D04FEA43
:1008B000051545EA16754FEA06164FEAC30343EAE3
:1008C00052734FEAC2025FEA1C1CC0D111F4801FB0
:1008D0000BD141EA00014FF000004FF0004CB6E7A9
:1008E00011F4801F04BF01430020B4F1FD0C88BF48
:1008F000BCF5E06F3FF6AFAEB5EB030C04BFB6EB53
:10090000020C5FEA500C50F1000041EB045170BD45
:100910000EF0004E4EEA113114EB5C04C2BFD4EB72
:100920000C0541EA045170BD41F480114FF0000EF6
:10093000013C90E645EA060E8DE60CEA135594EA72
:100940000C0F08BF95EA0C0F3FF43BAF94EA0C0F75
:100950000AD150EA01347FF434AF95EA0C0F7FF4EA
:1009600025AF104619462CE795EA0C0F06D152EA3E
:1009700003353FF4FDAE1046194622E750EA410622
:1009800018BF52EA43067FF4C5AE50EA41047FF433
:100990000DAF52EA43057FF4EBAE12E74FF0FF3C98
:1009A00006E000BF4FF0010C02E000BF4FF0010C69
:1009B0004DF804CD4FEA410C7FEA6C5C4FEA430CE2
:1009C00018BF7FEA6C5C1BD001B050EA410C0CBF31
:1009D00052EA430C91EA030F02BF90EA020F002093
:1009E000704710F1000F91EA030F58BF994208BFFA
:1009F00090422CBFD8176FEAE37040F001007047B7
:100A00004FEA410C7FEA6C5C02D150EA013C07D10D
:100A10004FEA430C7FEA6C5CD6D152EA033CD3D058
:100A20005DF8040B704700BF8446104662468C4652
:100A30001946634600E000BF01B5FFF7B7FF002885
:100A400048BF10F1000F01BD4DF808EDFFF7F4FFAE
:100A50000CBF012000205DF808FB00BF4DF808ED39
:100A6000FFF7EAFF34BF012000205DF808FB00BF5C
:100A70004DF808EDFFF7E0FF94BF012000205DF87E
:100A800008FB00BF4DF808EDFFF7CEFF94BF012033
:100A900000205DF808FB00BF4DF808EDFFF7C4FF2C
:100AA00034BF012000205DF808FB00BF53B94AB9EC
:100AB000002908BF00281CBF4FF0FF314FF0FF3066
:100AC00000F074B9ADF1080C6DE904CE00F006F841
:100AD000DDF804E0DDE9022304B070472DE9F047BA
:100AE000089D04468E46002B4DD18A42944669D912
:100AF000B2FA82F252B101FA02F3C2F1200120FAF5
:100B000001F10CFA02FC41EA030E94404FEA1C4842
:100B1000210CBEFBF8F61FFA8CF708FB16E341EA3E
:100B2000034306FB07F199420AD91CEB030306F1C4
:100B3000FF3080F01F81994240F21C81023E6344E5
:100B40005B1AA4B2B3FBF8F008FB103344EA034489
:100B500000FB07F7A7420AD91CEB040400F1FF339E
:100B600080F00A81A74240F207816444023840EADB
:100B70000640E41B00261DB1D4400023C5E9004314
:100B80003146BDE8F0878B4209D9002D00F0EF8097
:100B90000026C5E9000130463146BDE8F087B3FACA
:100BA00083F6002E4AD18B4202D3824200F2F980B2
:100BB000841A61EB030301209E46002DE0D0C5E9B5
:100BC000004EDDE702B9FFDEB2FA82F2002A40F001
:100BD0009280A1EB0C014FEA1C471FFA8CFE012604
:100BE000200CB1FBF7F307FB131140EA01410EFBA8
:100BF00003F0884208D91CEB010103F1FF3802D24F
:100C0000884200F2CB804346091AA4B2B1FBF7F048
:100C100007FB101144EA01440EFB00FEA64508D96B
:100C20001CEB040400F1FF3102D2A64500F2BB80A8
:100C30000846A4EB0E0440EA03409CE7C6F12007F7
:100C4000B34022FA07FC4CEA030C20FA07F401FA3D
:100C500006F31C43F9404FEA1C4900FA06F3B1FBC6
:100C6000F9F8200C1FFA8CFE09FB181140EA01412B
:100C700008FB0EF0884202FA06F20BD91CEB0101C8
:100C800008F1FF3A80F08880884240F28580A8F120
:100C900002086144091AA4B2B1FBF9F009FB101172
:100CA00044EA014100FB0EFE8E4508D91CEB010110
:100CB00000F1FF346CD28E456AD90238614440EAB3
:100CC0000840A0FB0294A1EB0E01A142C846A64633
:100CD00056D353D05DB1B3EB080261EB0E0101FABC
:100CE00007F722FA06F3F1401F43C5E90071002619
:100CF0003146BDE8F087C2F12003D8400CFA02FC6F
:100D000021FA03F3914001434FEA1C471FFA8CFE7E
:100D1000B3FBF7F007FB10360B0C43EA064300FB6E
:100D20000EF69E4204FA02F408D91CEB030300F10C
:100D3000FF382FD29E422DD9023863449B1B89B2C3
:100D4000B3FBF7F607FB163341EA034106FB0EF34C
:100D50008B4208D91CEB010106F1FF3816D28B42F9
:100D600014D9023E6144C91A46EA004638E72E46C5
:100D7000284605E70646E3E61846F8E64B45A9D2BD
:100D8000B9EB020864EB0C0E0138A3E74646EAE72C
:100D9000204694E74046D1E7D0467BE7023B6144DA
:100DA00032E7304609E76444023842E7704700BF43
:100DB000844641EA000313F003036DD1403A41D366
:100DC00051F8043B40F8043B51F8043B40F8043B25
:100DD00051F8043B40F8043B51F8043B40F8043B15
:100DE00051F8043B40F8043B51F8043B40F8043B05
:100DF00051F8043B40F8043B51F8043B40F8043BF5
:100E000051F8043B40F8043B51F8043B40F8043BE4
:100E100051F8043B40F8043B51F8043B40F8043BD4
:100E200051F8043B40F8043B51F8043B40F8043BC4
:100E300051F8043B40F8043B51F8043B40F8043BB4
:100E4000403ABDD2303211D351F8043B40F8043B54
:100E500051F8043B40F8043B51F8043B40F8043B94
:100E600051F8043B40F8043B103AEDD20C3205D364
:100E700051F8043B40F8043B043AF9D2043208D05C
:100E8000D2071CBF11F8013B00F8013B01D30B88CE
:100E900003806046704700BF082A13D38B078DD0AC
:100EA00010F003038AD0C3F10403D21ADB071CBF7E
:100EB00011F8013B00F8013B80D331F8023B20F8E8
:100EC000023B7BE7043AD9D3013A11F8013B00F821
:100ED000013BF9D20B7803704B7843708B788370A9
:100EE00060467047000000000000000000000000A5
:100EF00000000000000000000000000000000000F2
:100F000090F800F06DE9024520F007016FF0000C49
:100F100010F0070491F820F040F049804FF00004F1
:100F20006FF00700D1E9002391F840F000F10800CC
:100F300082FA4CF2A4FA8CF283FA4CF3A2FA8CF304
:100F40004BBBD1E9022382FA4CF200F10800A4FA6B
:100F50008CF283FA4CF3A2FA8CF3E3B9D1E90423BF
:100F600082FA4CF200F10800A4FA8CF283FA4CF3F6
:100F7000A2FA8CF37BB9D1E9062301F1200182FAB0
:100F80004CF200F10800A4FA8CF283FA4CF3A2FAB6
:100F90008CF3002BC6D0002A04BF04301A4612BAC4
:100FA000B2FA82F2FDE8024500EBD2007047D1E9C7
:100FB000002304F00305C4F100004FEAC50514F056
:100FC000040F91F840F00CFA05F562EA05021CBF27
:100FD00063EA050362464FF00004A9E70000000041
:100FE00001F0FF01102A2BDB10F0070F08D010F8DA
:100FF000013B013A8B422DD010F0070F42B3F6D1DE
:10100000F0B441EA012141EA014122F007047FF0F6
:1010100000070023F0E80256083C85EA010586EA4D
:10102000010685FA47F5A3FA87F586FA47F6A5FA89
:1010300087F68EB9EED1F0BC01F0FF0102F0070295
:1010400032B110F8013B013A83EA010313B1F8D140
:101050000020704701387047002D06BF3546033821
:10106000073815F0010F07D1013015F4807F02BF5A
:10107000013015F4C03F0130F0BC0138704700BFAB
:101080004FEA410C7FEA6C5C02D150EA013C0AD184
:101090004FEA430C7FEA6C5C02D152EA033C02D176
:1010A0004FF0000070474FF0010070474FEA4102D7
:1010B00012F5001215D211D56FF47873B3EB6252AA
:1010C00012D94FEAC12343F0004343EA505311F0D1
:1010D000004F23FA02F018BF404270474FF0000063
:1010E000704750EA013005D111F0004008BF6FF0A1
:1010F000004070474FF00000704700BF00B58BB054
:101100000023069301220792009301930293039315
:1011100004930E2305930892694601F0C5FC0BB0B9
:101120005DF804FBF0B589B00546002440F20523C4
:1011300001930294039404940823059301F0F4FBB3
:10114000404B1B68C01AB0F5FA7F0ED83E4B01AA7F
:101150000021284601F072FD019BA3F20123032B1D
:1011600014D8DFE803F0120C0E104FF480613748FA
:1011700002F0FAF801F0D8FB324B1860E6E70124E0
:1011800004E0022402E0032400E00024A446304DE1
:1011900004EB44010E0105EB0111B1F80CE0A1F8DC
:1011A0000EE029480278437843EA02238B8187784E
:1011B000C27842EA0722AA530579427942EA052217
:1011C00007EE902AF8EEE77AB1EE047A67EE877AB6
:1011D0009FED207A67EE877AC1ED017A82798A7273
:1011E000A3EB0E0EBEF5805F1FDD04EB4402184931
:1011F00001EB0212516901395161154A0CEB4C01A6
:1012000002EB0111486903EB4033098A5B1A0CEBCE
:101210004C0C02EB0C1CCCF818300F4B1A685369BD
:1012200043F00203536109B0F0BD1EF5805FE4DABC
:1012300004EB4402064901EB02125169013151618C
:10124000DBE700BFDC0D0020D40D0020001C0240B5
:10125000E00D002000008038A00E002008B50E48E8
:101260000E4B03600323436000238360C3604FF48D
:10127000002202614FF4401242610376012242765D
:101280008376C3760377437701F068FB00B908BD26
:1012900000F039F9FBE700BFA00E00200064004019
:1012A00010B588B000230393049305930693079326
:1012B0000268184B9A4201D008B010BD0024019476
:1012C00003F5EA331A6C42F000721A641A6C02F0E9
:1012D00000720192019A02941A6B42F008021A639A
:1012E0001B6B03F008030293029B03230393022268
:1012F000049206930923079303A9074801F03CFFD2
:1013000022460521142001F093FE142001F0C8FEAE
:10131000D2E700BF00640040000C0240034B1A6893
:10132000536943F002035361704700BFA00E0020D1
:101330000EB470B583B0054607AA52F8041B01929B
:10134000084E304604F0FEF804464FF6FF7382B2B2
:101350003146284603F09BFC204603B0BDE87040B0
:1013600003B07047C80E002030B58FB00024099438
:101370000A940B940C940D940194324B1A6B42F026
:1013800040021A631A6B02F040020192019A029421
:101390001A6B42F001021A631A6B02F00102029208
:1013A000029A03941A6B42F002021A631A6B02F05B
:1013B00002020392039A04941A6B42F008021A6321
:1013C0001A6B02F008020492049A05941A6B42F018
:1013D00004021A631A6B02F004020592059A06943D
:1013E0001A6B42F020021A631A6B02F02002069276
:1013F000069A07941A6B42F080021A631A6B02F085
:1014000080020792079A08941A6B42F010021A633E
:101410001B6B03F010030893089B0B4D01224FF444
:101420008061284601F09AFF4FF4806309930123FD
:101430000A930B940C9409A9284601F09DFE0FB065
:1014400030BD00BF00380240001C024008B50B4808
:101450000B4B03600B4B436000238360C3604FF46E
:101460008042026143618361C361036202F0E0F87C
:1014700000B908BD00F047F8FBE700BFC810002026
:1014800000580040A086010030B589B000230393C6
:1014900004930593069307930268134B9A4201D075
:1014A00009B030BD00250195104C236B43F020039B
:1014B0002363236B03F020030193019B0323039316
:1014C0001222049206930423079303A9084801F00B
:1014D00053FE0295236C43F480032364236C03F4CE
:1014E00080030293029BDBE7005800400038024073
:1014F0000014024008B50368B3F1804F00D008BD66
:1015000001F006FAFBE772B6FEE7000000B595B001
:101510003022002108A803F0C3FF002303930493A3
:101520000593069307930193204A116C41F0805173
:101530001164126C02F080520192019A02931C4BCA
:101540001A6842F480421A601B6803F480430293D5
:10155000029B012308934FF48033099302230E93D7
:101560004FF480020F9206221092A8221192129339
:101570000423139308A802F0F5F998B90F230393F5
:1015800002230493002305934FF4A05306934FF4D2
:1015900080530793052103A802F032FC20B915B04F
:1015A0005DF804FBFFF7AFFFFFF7ADFF0038024027
:1015B000007000400000000010B584B001F08EF90A
:1015C000FFF7A4FFFFF7D0FEFFF748FE00F022FF71
:1015D00000F03AFF00F052FFFFF738FF00F0A6FEE0
:1015E0004F4C204602F0C4FD0021204603F002F9D2
:1015F0004C4C204601F0F4FA2046FFF77FFD022113
:10160000204601F0C0FB01224749484803F091FD04
:1016100002224749474803F08CFD00F0FEF800F035
:10162000F7F8454B0093402380220021084600F044
:101630008FF900F0B1F84FF47A7001F07BF99FED6B
:101640002E3B9FED2F2B9FED301B9FED310B3B4829
:1016500000F0B2F93EE03A4B53F8240004EB4402A8
:10166000384B03EB02139B89C01AFEF71BFF0022C5
:10167000354BFEF781FF02460B46FEF7C7FD26A35A
:10168000D3E90023FEF778FF304B03EBC403C3E933
:1016900000010134022CDEDD2C4BD3E90001274C84
:1016A000C4E90A01D3E90201C4E90C01D3E9042326
:1016B000C4E90E23204600F037FCD4F830315BB18A
:1016C00023491A48FFF734FE0022C4F830210120D4
:1016D00001F030F90024DDE7184BD3E94A01CDE9E8
:1016E0000201D3E94801CDE90001D3E946231949B4
:1016F0000E48FFF71DFEEAE70000000000005E4014
:1017000000000000008056400000000000404540FE
:101710000000000000804440182D4454FB21094083
:10172000D0170020A00E00201C1100201818002047
:1017300034110020A01800200000002050110020CB
:10174000E0CA0008E00D00200000203F3811002012
:10175000C0CA0008C8CA000800B585B08DF80C00E2
:101760008DF80D100A230093022303AA7821034861
:1017700002F03CF805B05DF804FB00BFC810002083
:1017800008B501460020FFF7E7FF08BD08B5014690
:101790004020FFF7E1FF08BD38B500250CE00E4BF7
:1017A0008C2202FB0533185DFFF7F0FF0134A4B271
:1017B000832CF4D90135ADB2072D0CD8A5F150001A
:1017C000C0B2FFF7DDFF0020FFF7DAFF1020FFF7C0
:1017D000D7FF0024ECE738BD8812002008B5844606
:1017E00000200BE0094A8C2101FB002202F803C013
:1017F00001339BB27F2BF5D9013080B2072801D885
:101800000023F7E7FFF7C8FF08BD00BF88120020DC
:1018100008B50020FFF7E2FF08BD08B54FF4FA70E5
:1018200001F088F8AE20FFF7ABFF2020FFF7A8FFFC
:101830001020FFF7A5FFB020FFF7A2FFC820FFF799
:101840009FFF0020FFF79CFF1020FFF799FF40202B
:10185000FFF796FF8120FFF793FFFF20FFF790FF30
:10186000A120FFF78DFFA620FFF78AFFA820FFF732
:1018700087FF3F20FFF784FFA420FFF781FFD320DD
:10188000FFF77EFF0020FFF77BFFD520FFF778FFF3
:10189000F020FFF775FFD920FFF772FF2220FFF736
:1018A0006FFFDA20FFF76CFF1220FFF769FFDB20E4
:1018B000FFF766FF2020FFF763FF8D20FFF760FF33
:1018C0001420FFF75DFFAF20FFF75AFFFFF7A0FFDF
:1018D00008BD000083B27F2B35D8002933DB3F29B8
:1018E00031DCCAB10B46002914DBDA104B4201F09F
:1018F000070103F0070358BF59424FF0010C0CFADF
:1019000001FC124B8C2101FB0233195C41EA0C01F2
:1019100019547047CB1DE8E70B46002914DBDA1099
:101920004B4201F0070103F0070358BF59424FF043
:10193000010C0CFA01FC054B8C2101FB0233195CF4
:1019400021EA0C0119547047CB1DE8E788120020EA
:101950002DE9F0470F46089E81B27F290ED88146B7
:1019600000EB0208B8F1800F08DC002F06DB3F2FE8
:1019700004DC07EB030ABAF1400F19DDBDE8F0877C
:1019800094B2E119337843FA02F202F0010209B28B
:101990002846FFF79FFF013422B2072AF0DD013607
:1019A00001352DB2A84501DD0022F6E708373FB228
:1019B000BA45E3DD4D46F5E7F8B52DED048B044659
:1019C00051EC100B53EC112B84ED040B84ED061B32
:1019D00084ED002B84ED023BFEF716FCC4E9080100
:1019E00004F188079FED248B9FED252BB0EE481A5C
:1019F000F0EE681AB0EE480AF0EE680A384600F0D9
:101A000013FE04F1A0069FED209BB0EE492AF0EEF4
:101A1000692A9FED1F1BB0EE480AF0EE680A3046B7
:101A200000F002FE04F1B805B0EE492AF0EE692A92
:101A30009FED191BB0EE480AF0EE680A284600F048
:101A4000F3FD04F1D001384694ED080B00F086FE5A
:101A500004F1E801304694ED080B00F07FFE04F538
:101A60008071284694ED080B00F078FE0023C4F83E
:101A70003031BDEC048BF8BD000000000000000018
:101A8000000000000000F03FFFFFFFFFFFFFDFBF8F
:101A9000AB4C58E87AB6EB3FAB4C58E87AB6EBBFA4
:101AA0002DE9F04F83B057EC106B59EC118B5BECC8
:101AB00012AB11EE102A4B4610EE100A3946FEF713
:101AC000A5FB52465B46FEF7A1FB0022364BFEF714
:101AD00053FD04460D4602460B4630463946FEF796
:101AE000D1FF002854D122462B4640464946FEF7F6
:101AF000C9FF002851D122462B4650465946FEF7D1
:101B0000C1FF10B19FED260B44E042464B463046E4
:101B10003946FEF731FD52465B46FEF72DFD0022A9
:101B2000224BFEF729FDCDE9000132463B46204617
:101B30002946FEF769FB22462B46FEF71DFD0646A9
:101B40000F4642464B4620462946FEF75DFB0246BD
:101B50000B4630463946FEF70FFD06460F46524605
:101B60005B4620462946FEF74FFB02460B463046B1
:101B70003946FEF701FD41EC100B09F025FD53EC51
:101B8000102BDDE90001FEF721FE41EC100B01E016
:101B90009FED030B03B0BDE8F08F9FED010BF9E75C
:101BA00000000000000000000000E03F0000D03F07
:101BB0002DE9F84F0446D0E90089D0E90A235AA15B
:101BC000D1E90001FEF720FB41EC100B09F06CFCA1
:101BD00053EC102B04F1880504F1400740464946B8
:101BE000FEF7CAFC41EC100B3946284600F0B6FD62
:101BF000D4E90089D4E90C234BA1D1E90001FEF717
:101C000003FB41EC100B09F04FFC53EC102B04F1DB
:101C1000A00504F1580640464946FEF7ADFC41ECEC
:101C2000100B3146284600F099FDD4E900ABD4E909
:101C30000E233DA1D1E90001FEF7E6FA41EC100BBD
:101C400009F032FC53EC102B04F1B80804F17005D4
:101C500050465946FEF790FC41EC100B2946404691
:101C600000F07CFDD4E90089D4E90A232EA1D1E952
:101C70000001FEF7C9FA41EC100B09F05DFC53ECD2
:101C8000102B40464946FEF777FC02460B46D4E946
:101C90001001FEF7BBFAC4E91001D4E90C2322A11C
:101CA000D1E90001FEF7B0FA41EC100B09F044FC59
:101CB00053EC102B40464946FEF75EFC02460B46AD
:101CC000D4E91601FEF7A2FAC4E91601D4E90E23FD
:101CD00015A1D1E90001FEF797FA41EC100B09F0CC
:101CE0002BFC53EC102B40464946FEF745FC0246C0
:101CF0000B46D4E91C01FEF789FAC4E91C013A46F7
:101D000004F1D001384600F096FC324604F1E801B7
:101D1000304600F090FC2A4604F58071284600F019
:101D20008AFCBDE8F88F00BF182D4454FB21094000
:101D30002DE9F04F83B0044600F1580600F1400A47
:101D40006F4D2A465146304600F092FC04F1700770
:101D5000DFF8CC8142463146384600F089FCDFF896
:101D6000AC914A463946504600F082FC284600F0C5
:101D700014FD644D85ED000B404600F00EFDDFF8CC
:101D8000A48188ED000B484600F007FDB0EE402A24
:101D9000F0EE602A5C4B83ED000B98ED001B95ED97
:101DA000000BFFF77DFE5BEC10AB0022002310EE72
:101DB000100A5946FEF748FE28B10123C4F8303115
:101DC00003B0BDE8F08FDFF8588141464F4800F07E
:101DD0000DFD8DED000BDFF84C91D9E900010246B5
:101DE0000B46FEF7C9FB02460B46494DDDE90001F3
:101DF000FEF7ECFC41EC100B2946404600F0AEFC2F
:101E00002A462946414800F033FC284600F0C5FC2C
:101E100053EC102B00203F49FEF7D8FC41EC100B8F
:101E20002946284600F09AFC52465B4650465946E1
:101E3000FEF7A2FBCDE90001D9E900AB0022364B49
:101E400050465946FEF798FB02460B465046594607
:101E5000FEF792FB02460B46DDE90001FEF7D4F9DE
:101E600041EC100B09F0B0FB2946284600F076FC47
:101E70002A4D2A464146224800F0E0FC0022002379
:101E8000D5E90001FEF7EAFD50BBD4E902010246A4
:101E90000B46FEF771FBDDE90023FEF7B5F941ECD7
:101EA000100B09F091FB1D4D2946284600F056FC09
:101EB00004F58C7422463946304600F0BCFB2146BE
:101EC00020469FED0B0B00F049FC224610492046AE
:101ED00000F0B1FB22462946204600F0ACFB6FE73C
:101EE000284629469FED040B00F038FCCDE700BFE3
:101EF000000000000000E03F000000000000F0BF14
:101F000000170020E8160020F816002030170020E7
:101F1000481700200000F03F0000D03F601700206D
:101F200018170020F016002080B110B50446FFF706
:101F30003FFE2046FFF7FCFE054B1B782BB1044B00
:101F400000221A700123C4F8303110BD704700BF61
:101F5000E418002000B583B0002200920D4B596CAC
:101F600041F480415964596C01F480410091009919
:101F70000192196C41F0805119641B6C03F080537D
:101F80000193019B0F216FF0010001F051F803B0A4
:101F90005DF804FB0038024030B589B004460023E8
:101FA0000193224B1A6C42F001021A641B6C03F07D
:101FB00001030193019B02A903A801F0F7FF069B0F
:101FC000D3B901F0D3FF03461948A0FB03239B0CB0
:101FD000013B18484FF08042026040F2E732C26095
:101FE0004360002303618360836102F069FA054660
:101FF00030B1284609B030BD01F0B8FF4300E3E737
:102000000C4802F0F3F805460028F2D11C2001F03C
:1020100047F80F2C01D90125EBE7002221461C20AF
:1020200001F006F8044B1C60E3E700BF00380240F3
:1020300083DE1B437817002008040020FEE7FEE73C
:10204000FEE7FEE7FEE7704708B5024800F0B8FE7D
:1020500008BD00BFA00E002008B5024802F00FF92D
:1020600008BD00BF7817002008B5024802F004FF41
:1020700008BD00BF1818002008B5024802F0FCFE99
:1020800008BD00BF5C18002008B5024802F0F4FE4D
:1020900008BD00BFA018002038B5044602683E4BBA
:1020A0001B689A4205D022683C4B1B689A422FD08D
:1020B00038BD3B4B1B78A52B0CD03A4B1B78012B22
:1020C00019D002223649344803F033F8354B002248
:1020D0001A70E8E7324B5B785A2BEED1314B1B7804
:1020E000002BEAD12F4B01221A7007222E492A48D1
:1020F00003F01FF8D7E72B4B00221A702A4B9A796E
:102100002A4B1A7002222649234803F012F8CAE724
:10211000274B1B785A2B09D0264B1B78012B12D04A
:10212000012223491D4803F004F8C1E7214B1B7825
:10213000002BF1D11F4B01221A7008221E491748AB
:1021400002F0F7FFB4E71B4B00221A701A4A11780D
:1021500053781B0443EA0163917843EA0123D17861
:102160000B4316490B60117953791B0443EA016351
:10217000917943EA0123D2791343114D2B60074C27
:1021800001220B49204602F0D4FF2A680D4920465F
:10219000FFF7CEF88CE700BFA01800201818002029
:1021A000341100202F11002028110020C01700201A
:1021B0001C1100203011002020110020C417002025
:1021C000C8170020ECCA00080120704708B503F0CA
:1021D0003DF9162303604FF0FF3008BD08B54FF0FE
:1021E000FF31FFF7F3FFFEE770B50C4616460025FA
:1021F00006E0AFF30080214601F8010B01350C46E3
:10220000B542F6DB304670BD70B50C46164600256B
:1022100004E014F8010BAFF300800135B542F8DBA0
:10222000304670BD4FF0FF3070474FF400534B60A5
:1022300000207047012070470020704710B503460A
:102240000C4A0D490D48006840B10C480068034431
:10225000521A934206D8094A136010BD0748084C29
:102260000460F2E703F0F2F80C2303604FF0FF3054
:10227000F3E700BF0000022000040000CC1700209C
:10228000E8190020054BD3F8882042F47002C3F807
:1022900088204FF000629A60704700BF00ED00E0B8
:1022A0000268094B9A4200D0704782B00023019324
:1022B000064B5A6C42F001025A645B6C03F0010356
:1022C0000193019B02B070470000014000380240BA
:1022D00000B587B000230193029303930493059301
:1022E00002680F4B9A4202D007B05DF804FB00234E
:1022F00000930C4B1A6B42F010021A631B6B03F035
:1023000010030093009B4FF4007301930223029388
:102310000123059301A9044800F02EFFE4E700BF64
:1023200000000140003802400010024010B596B095
:1023300000241294139414941594109411940994F5
:102340000A940B940C940D940E940F942022214621
:1023500001A803F0A5F82D482D4B036040F28F63D0
:102360004360846040F2CF73C36004614461846160
:1023700002F0A6F8002837D14FF48053129312A927
:10238000224802F0A8F9002831D1204802F0C4F810
:1023900000282FD100231093119310A91B4802F09D
:1023A000ABFA50BB6023099300220A920B920C9265
:1023B0000D920E920F9209A9144802F011F9F8B982
:1023C0000023019302930393049305934FF4005267
:1023D0000692089301A90D4802F0D4FA98B90B4867
:1023E000FFF776FF16B010BDFFF78DF8C4E7FFF7D3
:1023F0008AF8CAE7FFF787F8CCE7FFF784F8D1E758
:10240000FFF781F8DCE7FFF77EF8E8E7D017002058
:102410000000014008B50A480A4B03604FF4E1335D
:10242000436000238360C36003610C2242618361C7
:10243000C36102F0FDFB00B908BDFFF764F8FBE7DC
:10244000181800200010014008B50A480A4B036024
:102450004FF4E133436000238360C36003610C22C7
:1024600042618361C36102F0E3FB00B908BDFFF77D
:102470004AF8FBE75C1800200044004008B50A4811
:102480000A4B03604FF4E133436000238360C36071
:1024900003610C2242618361C36102F0C9FB00B990
:1024A00008BDFFF730F8FBE7A0180020001401403A
:1024B000F0B58DB000230793089309930A930B930B
:1024C0000368514A934207D0504A934244D0504A3D
:1024D00093426CD00DB0F0BD002400944D4B5A6C6B
:1024E00042F010025A645A6C02F010020092009AF4
:1024F00001941A6B42F002021A631A6B02F0020294
:102500000192019A02941A6B42F001021A631B6B4A
:1025100003F001030293029B80230793022708978D
:1025200003260A9607250B9507A93B4800F024FED1
:102530004FF400730793089709940A960B9507A91F
:10254000364800F019FE22460521252000F070FDD6
:10255000252000F0A5FDBDE7002403942D4B1A6C47
:1025600042F400321A641A6C02F400320392039AA5
:1025700004941A6B42F008021A631B6B03F0080301
:102580000493049B602307930223089303230A9375
:1025900007230B9307A9224800F0EEFD22460521F0
:1025A000262000F045FD262000F07AFD92E7002469
:1025B0000594184B5A6C42F020025A645A6C02F08F
:1025C00020020592059A06941A6B42F040021A63A3
:1025D0001B6B03F040030693069B4FF48443079361
:1025E0000223089303230A9308230B9307A90D489A
:1025F00000F0C2FD22460521472000F019FD4720CA
:1026000000F04EFD66E700BF0010014000440040AE
:102610000014014000380240000402400000024063
:10262000000C02400018024080ED000B80ED021B00
:1026300080ED042B704770B505460E461446D1E96F
:102640000023D0E90001FDF7E1FDC4E90001D6E96E
:102650000223D5E90201FDF7D9FDC4E90201D6E95B
:102660000423D5E90401FDF7D1FDC4E9040170BDDF
:1026700070B505460E461446D1E90023D0E90001A5
:10268000FDF7C2FDC4E90001D6E90223D5E9020144
:10269000FDF7BAFDC4E90201D6E90423D5E9040136
:1026A000FDF7B2FDC4E9040170BD000090424ED0B8
:1026B0002DE9704304460D4616468A4243D0D1E9BF
:1026C0000423D0E90201FDF757FF80468946D5E98A
:1026D0000223D4E90401FDF74FFF02460B464046B2
:1026E0004946FDF791FDC6E90001D5E90023D4E98B
:1026F0000401FDF741FF80468946D5E90423D4E96A
:102700000001FDF739FF02460B4640464946FDF7FA
:102710007BFDC6E90201D5E90223D4E90001FDF7FA
:102720002BFF80468946D5E90023D4E90201FDF755
:1027300023FF02460B4640464946FDF765FDC6E9C4
:102740000401BDE87083044B01221A70F9E7024BC3
:1027500001221A70704700BFE4180020F8B557EC4A
:10276000106B05460C4610EE102A3B46D0E90001DE
:10277000FDF702FFC4E9000132463B46D5E90201FC
:10278000FDF7FAFEC4E9020132463B46D5E90401F1
:10279000FDF7F2FEC4E90401F8BDD0B50446D0E966
:1027A000000102460B46FDF7E7FE06460F46D4E958
:1027B000020102460B46FDF7DFFE02460B4630469D
:1027C0003946FDF723FD06460F46D4E904010246CB
:1027D0000B46FDF7D1FE02460B4630463946FDF763
:1027E00015FD41EC100B08F0EFFED0BDF8B5044626
:1027F0000D46D1E90023D0E90001FDF7BDFE0646F4
:102800000F46D5E90223D4E90201FDF7B5FE0246E1
:102810000B4630463946FDF7F9FC06460F46D5E92A
:102820000423D4E90401FDF7A7FE02460B46304617
:102830003946FDF7EBFC41EC100BF8BDD0B5144662
:10284000FFF734FF2046FFF7A8FF57EC106B00227C
:10285000002310EE100A3946FEF7F6F818B1084BBF
:1028600000221A70D0BD32463B4600200549FDF7D4
:10287000ADFF41EC100B21462046FFF76FFFF1E75B
:10288000E41800200000F03FDFF834D00D480E4976
:102890000E4A002302E0D458C4500433C4188C42BA
:1028A000F9D30B4A0B4C002301E013600432A2421F
:1028B000FBD3FFF7E7FC02F0CFFDFEF77DFE70478C
:1028C0000000022000000020B80D002004D1000804
:1028D000B80D0020E8190020FEE7000008B50B4BFA
:1028E0001A6842F400721A601A6842F480621A6030
:1028F0001A6842F480721A60032000F087FB0F20F0
:10290000FFF74AFBFFF726FB002008BD003C024012
:10291000034A1168034B1B780B441360704700BFD8
:10292000E818002004040020014B1868704700BF1D
:10293000E818002038B50446FFF7F6FF0546B4F165
:10294000FF3F02D0044B1B781C44FFF7EDFF401BF8
:10295000A042FAD338BD00BF04040020002800F0D4
:10296000A18038B5044690F82030D3B122681368AE
:1029700043F001031360FFF7D7FF054623685A6849
:1029800012F0010F10D1FFF7CFFF401B0A28F5D935
:10299000636A43F400336362052384F82030012026
:1029A00038BDFEF77DFCE1E71A6822F002021A60EA
:1029B000FFF7BAFF054623685A6812F0020F0DD0E0
:1029C000FFF7B2FF401B0A28F5D9636A43F40033CE
:1029D0006362052384F820300120E1E7227E012A8A
:1029E0003DD01A6822F080021A60637E012B3BD032
:1029F0002268136823F040031360A37E012B39D0B3
:102A00002268136823F020031360E37E012B37D084
:102A10002268136843F010031360237F012B35D025
:102A20002268136823F008031360637F012B33D0FF
:102A30002268136823F004031360A368E268134359
:102A400022691343626913436268013A21681343A0
:102A5000CB6100206062012384F82030A0E71A686F
:102A600042F080021A60C0E72268136843F0400316
:102A70001360C2E72268136843F020031360C4E7C1
:102A80002268136823F010031360C6E722681368F6
:102A900043F008031360C8E72268136843F0040397
:102AA0001360CAE70120704790F82030013BDBB289
:102AB000012B05D9436A43F4802343620120704708
:102AC00030B5464BD3F8002242F00102C3F8002291
:102AD000D3F8002222F47C52C3F80022D3F800225B
:102AE000486A42EA0022C3F800224A6902F01F0243
:102AF000012000FA02F2D3F81C026FEA020C20EA6D
:102B00000200C3F81C02CB69C3B9344BD3F80C02E2
:102B10000CEA0000C3F80C028C884869CD6844EACE
:102B20000544483043F830408C68088840EA044047
:102B30004C6904F1480E03EBCE035860CB69012BBE
:102B40001ED08B69002B33D12448D0F804320CEA14
:102B50000303C0F804320B698BBB2048D0F8143251
:102B60000CEA0303C0F814320B6A012B2ED01B4A67
:102B7000D2F8003223F00103C2F80032002030BD49
:102B8000164BD3F80C021043C3F80C028C8848692A
:102B90000D6844EA0544483043F8304088894C6960
:102BA0008D6840EA0540483403EBC4035860C8E729
:102BB0000A48D0F804321343C0F80432CBE7074880
:102BC000D0F814321343C0F81432CDE70349D1F8DA
:102BD0001C321A43C1F81C22C9E700BF0064004040
:102BE00070B5044690F82050EDB2012D06D0436A2E
:102BF00043F4002343620125284670BD022380F878
:102C000020300268136823F001031360FFF78CFE85
:102C1000064623685B6813F0010F0CD0FFF784FEB3
:102C2000831B0A2BF5D9636A43F4003363620523DF
:102C300084F82030E0E700256562DDE790F820C0E9
:102C40000CF1FF3C5FFA8CFCBCF1010F00F29580A7
:102C500030B451B90468E46814F0030F10D1436A2A
:102C600043F400134362012077E00468246914F000
:102C7000030F05D1436A43F40013436201206CE063
:102C800001F11B04240105682C5904F0040494602C
:102C9000002C64D101F11B04240105682C59640D3A
:102CA0001460046801F11B0C4FEA0C1C54F80C4032
:102CB00004F00204D46004686444646804F00F04FF
:102CC0001461046864446468C4F30724946104686C
:102CD00064446468240C5461026802EB0112D2F867
:102CE000B8211A70026802EB0112D2F8B821C2F3BF
:102CF00007225A70026802EB0112D2F8B821C2F31F
:102D000007429A70026802EB0112D2F8B821120E43
:102D1000DA70026802EB0112D2F8BC211A71026863
:102D200002EB0112D2F8BC21C2F307225A710268E9
:102D300002EB0112D2F8BC21C2F307429A71026879
:102D400002EB0112D2F8BC21120EDA7179B90268D5
:102D5000D36843F02003D360002030BC704701F1FA
:102D60001B04240105682C59E408546099E70268A3
:102D7000136943F020031361EEE7436A43F48023B1
:102D800043620120704790F82030013BDBB2012BF9
:102D900005D9436A43F480234362012070470268E7
:102DA000536919435161002070477047704770475D
:102DB000704770477047704770477047704770475B
:102DC0002DE9F84F054603685C69D3F804809F68D5
:102DD000D3F80CB0D3F810A0D3F8189014F0010673
:102DE0003BD017F0010616D001229A6017F0020FAF
:102DF00008D117F0040F0CD117F0080606D04FF4D5
:102E0000805608E0FFF7D1FF002604E0FFF7D0FF6F
:102E100001E04FF4006617F4807F0DD02B684FF46B
:102E200080729A6017F4007F40F0868017F4806FFC
:102E300000F0868046F4005617F4803F0DD02B68D2
:102E40004FF480329A6017F4003F40F0838017F40B
:102E5000802F00F0838046F4004614F0080F07D05E
:102E60001BF0100F04D046F400762B681022DA60B5
:102E700014F0040F02D01BF0080F79D114F0020FE8
:102E800004D02B68DB6813F0030F78D114F0400FE7
:102E900007D01AF0100F04D046F480662B68102279
:102EA0001A6114F0200F02D01AF0080F6BD114F041
:102EB000100F04D02B681B6913F0030F6AD114F4B0
:102EC000003F02D018F0100F68D114F4803F02D0F8
:102ED00018F0080F69D114F4004F7AD018F0040FDD
:102EE00074D014F4807F04D019F0010F01D046F0A3
:102EF000010614F4007F04D019F0020F01D046F04F
:102F0000020614F4806F04D019F0040F01D046F0CB
:102F1000040614F4006F59D019F0700956D0B9F1B5
:102F2000400F65D058D8B9F1200F5ED0B9F1300FFD
:102F300042D146F0200644E02846FFF737FF7BE702
:102F400017F4006F02D046F4804675E72846FFF775
:102F500030FF71E72846FFF72AFF7EE717F4002FBE
:102F600002D046F4803678E72846FFF723FF74E75F
:102F70002B680822DA602846FFF71DFF7EE7284607
:102F8000FEF7D0F882E72B6808221A612846FFF77F
:102F900014FF8CE72846FFF70FFF90E72B681022FD
:102FA0005A602846FFF70AFF8FE72B6808225A600D
:102FB0002846FFF704FF8EE7B9F1100F01D146F064
:102FC00008062A68936923F0700393612B68042232
:102FD0005A609EB9BDE8F88FB9F1500F0BD0B9F126
:102FE000600FEED146F48076EBE746F01006E8E796
:102FF00046F04006E5E746F08006E2E76B6A1E43CE
:103000006E622846FEF78AF9E4E70000074AD368B3
:1030100023F4E0631B041B0C000200F4E060034394
:1030200043F0BF6343F40033D360704700ED00E02A
:1030300000B5194BDB68C3F30223C3F1070CBCF1E5
:10304000040F28BF4FF0040C03F1040EBEF1060F6D
:1030500018D9033B4FF0FF3E0EFA0CFC21EA0C019D
:1030600099400EFA03F322EA0303194300280BDB0D
:103070000901C9B200F1604000F5614080F8001319
:103080005DF804FB0023E5E700F00F000901C9B279
:10309000024B1954F4E700BF00ED00E014ED00E02E
:1030A000002807DB00F01F02400901239340024A79
:1030B00042F82030704700BF00E100E070B50446E0
:1030C000866DFFF731FC94F83530DBB2022B06D069
:1030D00080236365002384F83430012070BD0546E9
:1030E0002268136823F0160313602268536923F0E3
:1030F00080035361236CE3B12268136823F0080353
:1031000013602268136823F00103136023681B68AF
:1031100013F0010F11D0FFF707FC431B052BF5D966
:1031200020236365032084F83500002384F83430BD
:10313000D4E7A36C002BDFD1E3E7E26D3F2393409C
:10314000B360012384F83530002084F83400C5E7EB
:1031500090F83530DBB2022B03D080234365012089
:103160007047052380F835300268136823F00103A7
:10317000136000207047000000230F2B00F2E48052
:1031800070B582B060E085685E000324B44025EA33
:103190000405CC68B4402C438460456825EA0205E8
:1031A0004C68C4F300129A402A4342605AE0DC089B
:1031B000083450F8246003F0070295000F22AA405B
:1031C00026EA020E0A69AA4042EA0E0240F82420CA
:1031D0005CE0072200E0002202FA0EF22A430234E9
:1031E0005A4D45F824205A4A94686FEA0C0224EAA2
:1031F0000C054E6816F4801F01D04CEA0405544CAF
:10320000A560E46802EA04054E6816F4001F01D0C8
:103210004CEA04054E4CE560646802EA04054E6819
:1032200016F4003F01D04CEA0405494C656024685F
:1032300022404D6815F4803F01D04CEA0402444C12
:10324000226001330F2B7DD801229A400C6804EADA
:10325000020C32EA0404F4D14C6804F00304013C8B
:10326000012C90D94A6802F00302032A09D0C468ED
:103270005D000322AA4024EA02048A68AA4022438D
:10328000C2604A6802F00302022A90D004684FEA42
:10329000430E032202FA0EF224EA02044A6802F004
:1032A000030202FA0EF2224302604A6812F4403F1F
:1032B000C7D000220192274A546C44F480445464DD
:1032C000526C02F480420192019A9C08A51C1F4A8C
:1032D00052F8255003F003024FEA820E0F2202FA41
:1032E0000EF225EA02051C4A90423FF474AF02F543
:1032F000806290421AD002F58062904218D002F5A6
:103300008062904216D002F58062904214D002F59D
:103310008062904212D002F58062904210D002F595
:10332000806290423FF455AF082255E7012253E7EF
:10333000022251E703224FE704224DE705224BE723
:10334000062249E702B070BD704700BF0038014057
:10335000003C014000380240000002400AB1816197
:103360007047090481617047436901EA030221EA59
:10337000030141EA02418161704703685A6912F40E
:10338000806F01D1002070476FF480625A61002382
:103390000363202280F83D2080F83E30026C42F02A
:1033A0000402026480F83C30012070472DE9F041AE
:1033B00007460D4690461E4624E0FFF7B5FA069BE9
:1033C000C01AB04200D8EEB900233B63202287F830
:1033D0003D2087F83E303A6C42F020023A6487F88C
:1033E0003C3001201EE03B689C6925EA040C1FFA72
:1033F0008CFCBCFA8CFC4FEA5C1CE04511D1B6F1A8
:10340000FF3FDAD1C5F30743012BECD13B685B6981
:1034100025EA030C1FFA8CFCBCFA8CFC4FEA5C1CFE
:10342000EBE70020BDE8F0812DE9F04105460E46AE
:10343000174698463DE01A6842F400721A602B68FD
:103440006FF480625A6100232B63202285F83D20AF
:1034500085F83E302A6C42F004022A6485F83C303C
:10346000012034E0FFF760FAA0EB0800B84200D872
:10347000FFB900232B63202285F83D2085F83E30DC
:103480002A6C42F020022A6485F83C3001201EE0BC
:103490002B689C6926EA0404A4B2003C18BF0124EE
:1034A000A4B12B685A6912F4806FC4D1B7F1FF3F01
:1034B000D8D1C6F30743012BEAD12B685C6926EA11
:1034C0000404A4B2003C18BF0124E9E70020BDE8D1
:1034D000F0810000F0B583B004460D4616461F4645
:1034E000C36A082B0DD0012B0BD013F5803F08D0F9
:1034F000036B122B0AD10268136843F480731360C4
:1035000004E02268136843F4807313600097334625
:1035100000224FF001112046FFF748FF80B92369D0
:10352000B3F5804F16D1236805F0FE051D613B46BB
:10353000324613492046FFF777FFF8B903B0F0BDD4
:1035400023681B6813F4807F02D04FF40073236458
:103550000320F3E7EB11226803F0060343F0F003C6
:1035600013613B46324607492046FFF75DFF18B915
:103570002368EDB21D61DAE70120DFE70120DDE716
:10358000020001000800010070B504460D46164611
:1035900023685B6913F0800F1CD12046FFF7EDFE16
:1035A000D0B9B5F1FF3FF3D0FFF7BEF9801BA842B9
:1035B00001D8002DECD100232363202284F83D2084
:1035C00084F83E30226C42F02002226484F83C30C1
:1035D000012000E0002070BD0120FCE770B504462A
:1035E0000D46164623685B6913F0040F1CD1204674
:1035F000FFF7C3FED0B9B5F1FF3FF3D0FFF794F961
:10360000801BA84201D8002DECD100232363202287
:1036100084F83D2084F83E30226C42F0200222647F
:1036200084F83C30012000E0002070BD0120FCE760
:10363000002800F0CC8070B5044690F83D30002B97
:1036400077D0242384F83D302268136823F00103E7
:1036500013602268136843F4004313602268136800
:1036600023F40043136000F081FC62685A4B9A42D5
:1036700064D85A4B98428CBF00230123002B40F0A2
:10368000A8805749A1FB00318B0C25686A6822F09D
:103690003F0242EA91426A6021680A6A22F03F02D0
:1036A00066684D4DAE424FD8013313430B6221681B
:1036B000CA6922F44F4222F0FF026668464B9E42DE
:1036C0004CD8431E7600B3FBF6F3013340F6FC7092
:1036D000034278D0C3F30B031343CB6121680B681B
:1036E00023F0C003E269206A024313430B602168A0
:1036F0008B6823F4034323F0FF032269E06802434D
:1037000013438B602168CB6823F0FF036269A069D3
:1037100002431343CB602268136843F00103136034
:1037200000202064202384F83D30206384F83E008C
:1037300070BD80F83C30FDF7A7FE82E7294B984228
:103740008CBF0023012399E74FF4967505FB03F323
:10375000254DA5FB03539B090133A6E7A368BBB91D
:10376000451E06EB460CB5FBFCF50135C5F30B0514
:10377000B5FA85F56D0945BBC3B9013806EB4603BB
:10378000B0FBF3F30133C3F30B0343F40043A3E7AC
:10379000451E06EB860C0CEB8C0CB5FBFCF50135DD
:1037A000C5F30B05B5FA85F56D09E4E7013806EBBD
:1037B000860303EB8303B0FBF3F30133C3F30B0383
:1037C00043F4404388E7042386E7012384E701208C
:1037D00070470120ACE700BFA08601007F841E0077
:1037E00083DE1B43FF083D00D34D62102DE9F043FB
:1037F00085B004460F46914698460C9EFFF794F814
:10380000054694F83D00C0B2202804D0022738466F
:1038100005B0BDE8F0830095192301224F492046E9
:10382000FFF7C4FD002840F0928094F83C30012B53
:1038300000F08F80012384F83C3023681A6812F06E
:10384000010F03D11A6842F001021A60226813685E
:1038500023F400631360212384F83D30102384F89F
:103860003E3000232364C4F82490A4F82A80638D9A
:1038700023853B4BE3622B46324639462046FFF711
:1038800029FE0746002866D10023039323685A695E
:1038900003929B690393039B11E0236C042B01D0DB
:1038A0000127B4E72268136843F400731360F7E755
:1038B0002A4631462046FFF791FE00282ED1238D5F
:1038C000002B36D02A4631462046FFF75DFE002801
:1038D000E3D1626A236812781A61606A431C6362EA
:1038E000618D89B2013989B26185238D013B9BB21B
:1038F00023852268516911F0040FD9D0002BD7D04D
:1039000043781361636A01336362638D9BB2013B49
:103910009BB26385238D013B2385C9E7236C042B70
:1039200001D0012773E72268136843F40073136022
:10393000F7E72268136843F400731360202384F8C8
:103940003D30002384F83E3084F83C305FE70227A6
:103950005DE702275BE7012759E700BF020010007F
:103960000000FFFF002800F0E08170B582B004463F
:10397000036813F0010F3BD09F4B9B6803F00C03CF
:10398000042B2CD09C4B9B6803F00C03082B21D0FC
:103990006368B3F5803F4FD0B3F5A02F52D0964B5C
:1039A0001A6822F480321A601A6822F480221A609F
:1039B0006368002B50D0FEF7B7FF05468E4B1B689F
:1039C00013F4003F14D1FEF7AFFF401B6428F5D974
:1039D0000320B1E1884B5B6813F4800FD8D0864B8D
:1039E0001B6813F4003F03D06368002B00F09F8135
:1039F000236813F0020F54D07F4B9B6813F00C0F19
:103A00003ED07D4B9B6803F00C03082B33D0E3685A
:103A1000002B68D0794B01221A60FEF785FF05461E
:103A2000754B1B6813F0020F54D1FEF77DFF401B4E
:103A30000228F5D903207FE16F4A136843F48033ED
:103A40001360B5E76C4B1A6842F480221A601A685A
:103A500042F480321A60ABE7FEF766FF0546664B1C
:103A60001B6813F4003FC3D0FEF75EFF401B6428C1
:103A7000F5D9032060E1604B5B6813F4800FC6D179
:103A80005D4B1B6813F0020F03D0E368012B40F07D
:103A90005081594A136823F0F803216943EAC103AE
:103AA0001360236813F0080F42D063696BB3534B64
:103AB0000122C3F8802EFEF737FF05464E4B5B6FA1
:103AC00013F0020F34D1FEF72FFF401B0228F5D967
:103AD000032031E1484A136823F0F803216943EADF
:103AE000C1031360DDE7454B00221A60FEF71CFF9F
:103AF0000546414B1B6813F0020FD2D0FEF714FFAE
:103B0000401B0228F5D9032016E13C4B0022C3F8E4
:103B1000802EFEF709FF0546374B5B6F13F0020F4F
:103B200006D0FEF701FF401B0228F5D9032003E170
:103B3000236813F0040F77D02F4B1B6C13F0805FBA
:103B400033D1002301932C4B1A6C42F080521A643B
:103B50001B6C03F080530193019B0125284B1B68CC
:103B600013F4807F23D0A368012B34D0052B38D0E9
:103B7000214B1A6F22F001021A671A6F22F0040219
:103B80001A67A368002B3DD0FEF7CEFE06461A4BFF
:103B90001B6F13F0020F46D1FEF7C6FE801B41F2E9
:103BA00088339842F3D90320C6E00025D6E7144AAB
:103BB000136843F480731360FEF7B6FE0646104B9D
:103BC0001B6813F4807FCED1FEF7AEFE801B022867
:103BD000F5D90320B0E0084A136F43F001031367DF
:103BE000CFE7054B1A6F42F004021A671A6F42F0D2
:103BF00001021A67C5E700BF0038024000004742D3
:103C000000700040FEF790FE0646524B1B6F13F00B
:103C1000020F08D0FEF788FE801B41F288339842DD
:103C2000F3D9032088E0EDB9A369002B00F083806D
:103C3000484A926802F00C02082A51D0022B17D091
:103C4000454B00221A66FEF76FFE0446414B1B6887
:103C500013F0007F42D0FEF767FE001B0228F5D963
:103C6000032069E03B4A136C23F080531364DBE7C5
:103C7000394B00221A66FEF757FE0546354B1B6886
:103C800013F0007F06D0FEF74FFE401B0228F5D947
:103C9000032051E0E369226A1343626A43EA821314
:103CA000A26A5208013A43EA0243E26A43EA026323
:103CB000284A5360284B01221A66FEF735FE044657
:103CC000244B1B6813F0007F06D1FEF72DFE001B6E
:103CD0000228F5D903202FE000202DE000202BE062
:103CE000012B2BD01B4B5B6803F48001E2699142EE
:103CF00026D103F03F02216A8A4223D1616A47F646
:103D0000C0721A40B2EB811F1ED103F44031A26A87
:103D10005208013AB1EB024F18D103F07063E26A26
:103D2000B3EB026F14D1002006E0012070470120A0
:103D300002E0012000E0002002B070BD0120FBE79E
:103D40000120F9E70120F7E70120F5E70120F3E77B
:103D50000120F1E7003802400000474208B5254B3A
:103D60009B6803F00C03042B3FD0082B3FD1214B61
:103D70005A6802F03F025B6813F4800F12D01D4BAB
:103D80005968C1F388111C480023A1FB0001FCF70E
:103D90008DFE184B5B68C3F3014301335B00B0FB3E
:103DA000F3F025E0134B5968C1F3881C4FEA4C111E
:103DB000B1EB0C006EEB0E0E4FEA8E1343EA9063EC
:103DC0008101091A63EB0E03DB0043EA5173C9005A
:103DD00011EB0C0C43F10003990200234FEA8C20F5
:103DE00041EA9C51FCF762FED3E7034800E0034838
:103DF00008BD00BF00380240001BB7000024F400DB
:103E0000002800F09B8070B50D4604464F4B1B68A0
:103E100003F007038B4208D2CBB24C4A13701368ED
:103E200003F007038B4240F08B80236813F0020FEE
:103E300017D013F0040F04D0454A936843F4E053BD
:103E40009360236813F0080F04D0414A936843F449
:103E5000604393603E4A936823F0F003A1680B43EC
:103E60009360236813F0010F32D06368012B21D0D7
:103E70009A1E012A25D9364A126812F0020F61D023
:103E800033498A6822F0030213438B60FEF74CFD2E
:103E900006462F4B9B6803F00C036268B3EB820F5E
:103EA00016D0FEF741FD801B41F288339842F0D9CD
:103EB000032042E0264A126812F4003FE0D10120BC
:103EC0003BE0234A126812F0007FD9D1012034E090
:103ED0001E4B1B6803F00703AB4207D9EAB21B4B2A
:103EE0001A701B6803F00703AB422DD1236813F04F
:103EF000040F06D0164A936823F4E053E1680B439D
:103F00009360236813F0080F07D0114A936823F4D5
:103F10006043216943EAC1039360FFF71FFF0C4B25
:103F20009B68C3F303130B4AD35CD8400A4B186059
:103F30000A4B1868FEF730F8002070BD012070476A
:103F40000120FAE70120F8E70120F6E7003C0240F3
:103F500000380240FCCA00080004002008040020C9
:103F6000014B1868704700BF0004002008B5FFF738
:103F7000F7FF044B9B68C3F38223034AD35CD8400A
:103F800008BD00BF003802400CCB000808B5FFF7A1
:103F9000E7FF044B9B68C3F34233034AD35CD8402A
:103FA00008BD00BF003802400CCB00080F2303609F
:103FB0000B4B9A6802F0030242609A6802F0F0022A
:103FC00082609A6802F4E052C2609B68DB0803F4E6
:103FD000E0530361034B1B6803F007030B6070475A
:103FE00000380240003C024030B4036A23F0010371
:103FF0000362036A4268846924F073040D682C43E9
:1040000023F0020C8B6843EA0C03104DA84203D046
:1040100005F58065A84205D123F00803CD682B4340
:1040200023F00403094DA84203D005F58065A8429A
:1040300005D122F440724D692A438D692A434260BA
:1040400084614A684263036230BC704700000140EB
:1040500030B4036A23F480730362036A4268C4695C
:1040600024F0730C0C6844EA0C0523F400738C688C
:1040700043EA0423114CA04203D004F58064A0421B
:1040800006D123F40063CC6843EA042323F480635D
:104090000A4CA04203D004F58064A04207D122F468
:1040A00040524C6942EA04128C6942EA04124260AE
:1040B000C5614A68C263036230BC704700000140BA
:1040C00030B4036A23F480530362036A4468C2690C
:1040D00022F4E6420D6842EA052223F400538D687B
:1040E00043EA0533094DA84203D005F58065A8428F
:1040F00004D124F480444D6944EA85144460C261CB
:104100004A680264036230BC704700BF000001408F
:1041100010B4036A046A24F001040462846924F080
:10412000F00C4CEA021223F00A030B438261036293
:104130005DF8044B704710B4046A24F01004046264
:104140008469036A24F4704C4CEA023223F0A00321
:1041500043EA0113826103625DF8044B7047836890
:1041600023F070030B4343F00703836070470000A4
:1041700090F83D30DBB2012B32D1022380F83D3084
:104180000368194A934220D0B3F1804F1DD0A2F5A5
:104190007C42934219D002F58062934215D002F519
:1041A0008062934211D002F5784293420DD002F51D
:1041B0007052934209D0A2F59432934205D01A6806
:1041C00042F001021A60002070479A6802F007026C
:1041D000062A07D01A6842F001021A6000207047D0
:1041E00001207047002070470000014090F83D30EA
:1041F000DBB2012B37D1022380F83D300268D3684F
:1042000043F00103D3600368194A934220D0B3F10D
:10421000804F1DD0A2F57C42934219D002F58062F6
:10422000934215D002F58062934211D002F5784294
:1042300093420DD002F57052934209D0A2F5943208
:10424000934205D01A6842F001021A6000207047BC
:104250009A6802F00702062A07D01A6842F00102A3
:104260001A6000207047012070470020704700BF8F
:10427000000001407047704770477047704710B5A5
:10428000044603681A6912F0020F11D0DA6812F0BE
:10429000020F0DD06FF002021A6101230377036849
:1042A0009B6913F0030F70D0FFF7E6FF002323771D
:1042B00023681A6912F0040F12D0DA6812F0040FA2
:1042C0000ED06FF004021A610223237723689B69E2
:1042D00013F4407F5FD02046FFF7CEFF0023237703
:1042E00023681A6912F0080F12D0DA6812F0080F6A
:1042F0000ED06FF008021A61042323772368DB696C
:1043000013F0030F4ED02046FFF7B6FF00232377AC
:1043100023681A6912F0100F12D0DA6812F0100F29
:104320000ED06FF010021A61082323772368DB692F
:1043300013F4407F3DD02046FFF79EFF00232377F4
:1043400023681A6912F0010F03D0DA6812F0010F26
:1043500036D123681A6912F0800F03D0DA6812F0A0
:10436000800F34D123681A6912F0400F03D0DA6845
:1043700012F0400F32D123681A6912F0200F03D0D7
:10438000DA6812F0200F30D110BDFFF774FF20461D
:10439000FFF773FF8AE72046FFF76DFF2046FFF720
:1043A0006CFF9BE72046FFF766FF2046FFF765FF9F
:1043B000ACE72046FFF75FFF2046FFF75EFFBDE753
:1043C0006FF001021A612046FDF794F8C1E76FF023
:1043D00080021A61204600F0FFFAC3E76FF0400246
:1043E0001A612046FFF74AFFC5E76FF020021A6105
:1043F000204600F0F0FAC7E70368304A904212D036
:10440000B0F1804F0FD0A2F57C4290420BD002F564
:104410008062904207D002F58062904203D002F59C
:104420007842904203D123F070034A681343234A31
:1044300090422AD0B0F1804F27D0A2F57C42904222
:1044400023D002F5806290421FD002F58062904234
:104450001BD002F57842904217D002F5705290427C
:1044600013D002F5806290420FD002F58062904234
:104470000BD0A2F59832904207D002F580629042AC
:1044800003D002F58062904203D123F44073CA68DE
:10449000134323F080034A69134303608B68C362AC
:1044A0000B688362054B984203D003F58063984202
:1044B00001D10B6903630123436170470000014090
:1044C00040B310B5044690F83D30F3B1022384F8B0
:1044D0003D30214651F8040BFFF78EFF012384F88D
:1044E000463084F83E3084F83F3084F8403084F819
:1044F000413084F8423084F8433084F8443084F802
:10450000453084F83D30002010BD80F83C30FDF788
:10451000C7FEDBE70120704740B310B5044690F8B2
:104520003D30F3B1022384F83D30214651F8040BAD
:10453000FFF762FF012384F8463084F83E3084F8A8
:104540003F3084F8403084F8413084F8423084F8B9
:10455000433084F8443084F8453084F83D300020FE
:1045600010BD80F83C30FFF785FEDBE70120704787
:1045700030B4036A23F010030362036A446882695B
:1045800022F4E6420D6842EA052223F020038D68FA
:1045900043EA0513114DA84203D005F58065A842F2
:1045A00006D123F08003CD6843EA051323F04003CE
:1045B0000A4DA84203D005F58065A84207D124F42E
:1045C00040644D6944EA85048D6944EA8504446089
:1045D00082614A688263036230BC70470000014018
:1045E00038B590F83C30012B66D004460D460123C7
:1045F00080F83C300C2A5AD8DFE802F007595959A4
:104600001B5959593059595944000068FFF7ECFCBF
:104610002268936943F0080393612268936923F049
:10462000040393612268936929690B439361002015
:104630003EE00068FFF79CFF2268936943F4006343
:1046400093612268936923F480639361226893697C
:10465000296943EA01239361002029E00068FFF7FC
:10466000F7FC2268D36943F00803D3612268D36959
:1046700023F00403D3612268D36929690B43D36112
:10468000002015E00068FFF71BFD2268D36943F4A2
:104690000063D3612268D36923F48063D361226805
:1046A000D369296943EA0123D361002000E0012096
:1046B000002384F83C3038BD0220FCE710B4846845
:1046C00024F47F4C42EA03220A4342EA0C0282604D
:1046D0005DF8044B704790F83C30012B78D010B552
:1046E0000446012380F83C30022380F83D30026804
:1046F000936823F47F4323F0770393600B68602B68
:104700004CD029D8402B54D00CD9502B22D1CA6878
:1047100049680068FFF7FCFC50212068FFF71FFD87
:10472000002005E0202B0DD009D9302B0AD0012024
:10473000012384F83D30002384F83C3010BD0BB1D8
:10474000102B05D119462068FFF709FD0020EFE77F
:104750000120EDE70120EBE7B3F5805F34D0B3F53E
:10476000005F0CD1CB684A6889680068FFF7A6FF34
:104770002268936843F4804393600020D8E7702B4D
:1047800024D1CB684A6889680068FFF797FF2268E0
:10479000936843F0770393600020C9E7CA684968CB
:1047A0000068FFF7C8FC60212068FFF7D8FC0020F4
:1047B000BEE7CA6849680068FFF7AAFC4021206884
:1047C000FFF7CDFC0020B3E70020B1E70120AFE701
:1047D0000220704701F01F01012303FA01FC036A64
:1047E00023EA0C030362036A02FA01F10B4303623A
:1047F0007047000010B504460846002942D194F8DD
:104800003E30DBB2013B18BF0123002B6ED10028E4
:1048100051D1022384F83E30012201462068FFF77F
:10482000D9FF2368334A934203D002F58062934252
:1048300003D15A6C42F400425A6423682D4A9342D1
:1048400049D0B3F1804F46D0A2F57C42934242D08A
:1048500002F5806293423ED002F5806293423AD0E4
:1048600002F57842934236D002F57052934232D02C
:10487000A2F5943293422ED01A6842F001021A60D7
:10488000002032E0042908D008290DD094F84130E6
:10489000DBB2013B18BF0123B7E794F83F30DBB22E
:1048A000013B18BF0123B0E794F84030DBB2013B75
:1048B00018BF0123A9E7042805D0082807D0022340
:1048C00084F84130A8E7022384F83F30A4E70223AC
:1048D00084F84030A0E79A6802F00702062A07D061
:1048E0001A6842F001021A60002010BD0120FCE7A6
:1048F0000020FAE70000014090F83C30012B3DD049
:1049000010B4012380F83C30022380F83D30036866
:104910005A689C6822F0700C0A6842EA0C025A60DD
:104920000368174A93421AD0B3F1804F17D0A2F50B
:104930007C42934213D002F5806293420FD002F57D
:10494000806293420BD002F57842934207D002F581
:104950007052934203D0A2F59432934204D124F0D2
:1049600080044A6814439C60012380F83D30002392
:1049700080F83C3018465DF8044B704702207047C1
:104980000000014090F83C30012B22D0012380F838
:104990003C30CB6823F440738A68134323F480636C
:1049A0004A68134323F400630A68134323F48053D3
:1049B0000A69134323F400534A69134323F48043E1
:1049C000CA69134302685364002380F83C301846D8
:1049D00070470220704770477047026802F10C036D
:1049E00053E8003F23F490730C3242E80031002971
:1049F000F3D1026802F1140353E8003F23F00103EE
:104A0000143242E800310029F3D1036B012B05D0A9
:104A1000202380F83E30002303637047026802F1D0
:104A20000C0353E8003F23F010030C3242E800313E
:104A30000029F3D1ECE790F83D30DBB2212B01D017
:104A4000022070478368B3F5805F17D0036A5A1C51
:104A500002621A7803685A60C38C9BB2013B9BB216
:104A6000C3844BB90268D36823F08003D360026823
:104A7000D36843F04003D360002070470369002BE4
:104A8000E4D1036A1B880268C3F308035360036A16
:104A900002330362E0E7000038B504460268136998
:104AA00023F44053C1680B431361836802691343C5
:104AB00042691343C2691A430168CB6823F4164361
:104AC00023F00C031343CB600268536923F4407353
:104AD00081690B4353610368314A934206D002F562
:104AE0008062934202D0FFF741FA01E0FFF74EFAED
:104AF000E369B3F5004F29D00021031849411B1881
:104B000041F10001C90041EA5371DB0018186368E4
:104B10004FEA83024FEA937341F10001FBF7C6FFAE
:104B2000204DA5FB00325109642303FB11031B0137
:104B30003233A5FB03235B0903F0F00202EB011201
:104B400003F00F03216813448B6038BD0023021863
:104B500043EB0301121841F10001C90041EA52710F
:104B6000D200101841F10001626892185B41FBF716
:104B70009DFF0C4DA5FB00325109642303FB11037B
:104B8000DB003233A5FB03235B095A0002F4F87201
:104B900002EB011203F00703216813448B60D4E792
:104BA000001001401F85EB512DE9F84305460F46E3
:104BB00016469946DDF820802C68246837EA0403FD
:104BC0000CBF4FF0010C4FF0000CB4452DD1B8F1E3
:104BD000FF3FF1D0B8F1000F05D0FDF7A5FEA0EB27
:104BE00009004045E8D92A6802F10C0353E8003F68
:104BF00023F4D0730C3242E800310029F3D12A6843
:104C000002F1140353E8003F23F00103143242E899
:104C100000310029F3D1202385F83D3085F83E305E
:104C2000002385F83C30032000E00020BDE8F88335
:104C300058B310B5044690F83D300BB3242384F8E4
:104C40003D302268D36823F40053D3602046FFF739
:104C500023FF2268136923F4904313612268536988
:104C600023F02A0353612268D36843F40053D360CE
:104C700000202064202384F83D3084F83E3010BDAD
:104C800080F83C30FDF714FCD8E7012070472DE98F
:104C9000F04182B01E4690F83D30DBB2202B54D15B
:104CA00004460D469046002953D0002A53D090F870
:104CB0003C30012B51D0012380F83C3000230364A9
:104CC000212380F83D30FDF72FFE0746A4F824800D
:104CD000A4F82680A368B3F5805F05D04FF00008E4
:104CE000002384F83C3012E0236913B14FF0000830
:104CF000F6E7A8460025F3E738F8023B2268C3F33D
:104D000008035360E28C92B2013A92B2E284E38CDF
:104D10009BB273B100963B46002280212046FFF7EC
:104D200043FFE0B9002DE7D015F8012B23685A6046
:104D3000E8E700963B46002240212046FFF734FF7B
:104D400078B9202384F83D3000E0022002B0BDE8AD
:104D5000F0810120FAE70120F8E70220F6E70320BE
:104D6000F4E70320F2E7704708B50168CA6822F04B
:104D70004002CA60202280F83D20FFF7F4FF0020A7
:104D800008BD704708B5806B0023C385C384FFF757
:104D9000F8FF08BD704790F83E30DBB2222B67D198
:104DA0008368B3F5805F4DD0826AB3F5805F04D02D
:104DB000002B54D10369002B51D103685B68137039
:104DC000836A01338362C38D9BB2013B9BB2C3856F
:104DD000002B4FD100B583B00268D36823F02003C5
:104DE000D3600268D36823F48073D3600268536988
:104DF00023F001035361202380F83E30036B012B25
:104E000033D100230363026802F10C0353E8003F2F
:104E100023F010030C3242E800310029F3D103687B
:104E20001A6812F0100F06D0002201921A6801923F
:104E30005B680193019B818DFFF7ACFF002003B0FD
:104E40005DF804FB0269002AAED1826A03685B68E0
:104E5000C3F308031380836A02338362B3E70368F2
:104E60005B6803F07F031370AAE7FDF715F9E5E728
:104E7000022070470020704730B583B004460268B6
:104E80001368D068516913F00F0505D113F0200F96
:104E900002D010F0200F19D12DB111F0010119D15C
:104EA00010F4907F16D1216B01297DD013F0800F73
:104EB00003D010F0800F40F0158113F0400F03D0A5
:104EC00010F0400F40F0128103B030BD2046FFF7D4
:104ED00062FFF9E713F0010F06D010F4807F03D0D2
:104EE000226C42F00102226413F0040F04D019B1C5
:104EF000226C42F00202226413F0020F04D019B1B6
:104F0000226C42F00402226413F0080F07D010F064
:104F1000200F00D119B1226C42F008022264226CE9
:104F2000002AD1D013F0200F02D010F0200F29D189
:104F300023685B6903F04003226C12F0080F00D174
:104F400063B32046FFF749FD23685B6913F0400F08
:104F500020D0226802F1140353E8003F23F04003FD
:104F6000143242E800310029F3D1A36B73B1614AD6
:104F70001A65A06BFEF7ECF80028A5D0A06B036DB6
:104F80009847A1E72046FFF706FFD1E72046FFF745
:104F9000F8FE99E72046FFF7F4FE95E72046FFF775
:104FA000F0FE002323648FE713F0100F3FF47EAF71
:104FB00010F0100F3FF47AAF0023019313680193B0
:104FC00053680193019B536913F0400F50D0A26BBB
:104FD00013685B689BB2002B3FF476AFA18D9942BA
:104FE0007FF672AFE385D369B3F5807F37D022684F
:104FF00002F10C0353E8003F23F480730C3242E8C3
:1050000000310029F3D1226802F1140353E8003F74
:1050100023F00103143242E800310029F3D1226861
:1050200002F1140353E8003F23F04003143242E836
:1050300000310029F3D1202384F83E30002323637C
:10504000226802F10C0353E8003F23F010030C32F6
:1050500042E800310029F3D1A06BFEF72FF8A18DB3
:10506000E38D9BB2C91A89B22046FFF793FE2BE766
:10507000A18DE38D9BB2C91A89B2E38D9BB2002B3F
:105080003FF422AF00293FF41FAF226802F10C0366
:1050900053E8003F23F490730C3242E800300028BC
:1050A000F3D1226802F1140353E8003F23F0010317
:1050B000143242E800300028F3D1202384F83E3037
:1050C00000232363226802F10C0353E8003F23F01E
:1050D00010030C3242E800300028F3D12046FFF7DD
:1050E00059FEF1E62046FFF7A6FCEDE62046FFF765
:1050F0003BFEE9E6854D000881628285C28500237A
:105100000364222280F83E2080F83C30036923B1FA
:105110000268D36843F48073D3600268536943F034
:10512000010353610268D36843F02003D360002079
:10513000704708B590F83E30DBB2202B0DD171B12D
:105140007AB190F83C30012B0DD0012380F83C302F
:1051500000230363FFF7D0FF00E0022008BD012019
:10516000FCE70120FAE70220F8E743684B609A6801
:105170008A60516099600861036801330360704779
:105180000369416882688A60416851605A68824256
:1051900006D0002202611A68013A1A601868704746
:1051A00082685A60F5E7000000000000000000007F
:1051B000074B19680868B0E8F04F80F30988BFF31F
:1051C0006F8F4FF0000080F311887047AFF30080BD
:1051D000EC180020000000000000000000000000AB
:1051E000EFF30980BFF36F8F154B1A681EF0100F95
:1051F00008BF20ED108A20E9F04F10602DE909006A
:105200004FF0500080F31188BFF34F8FBFF36F8FC3
:1052100000F0D0F84FF0000080F3118809BC196845
:105220000868B0E8F04F1EF0100F08BFB0EC108A0D
:1052300080F30988BFF36F8F704700BFAFF3008022
:10524000EC18002008B54FF0500383F31188BFF32A
:105250006F8FBFF34F8F00F021F828B14FF0E0239C
:105260004FF08052C3F8042D002383F3118808BD4A
:10527000084B1B681B6823B9074B4FF0FF321A60BD
:105280007047044B1B68DB68DB685A68024B1A6086
:10529000704700BFF01800208C190020F8B53A4B79
:1052A0001B68002B69D1394B1D6801351D60C5B9DC
:1052B000374B1B681B6843B14FF0500383F31188D1
:1052C000BFF36F8FBFF34F8FFEE7314A1168314B49
:1052D000186810601960304A136801331360FFF7D3
:1052E000C7FF2E4B1B68AB423DD900272C4B1B68D8
:1052F000DB6A03EB83039A002A4B9B58012B00D9EE
:105300000127294B1B68002B3CD001273AE00127DD
:105310001F4B1B681B6843B31D4B1B68DB68DC68B5
:1053200063689D4226D3261D3046FFF729FFA36AF6
:105330001BB104F11800FFF723FFE36A01229A4032
:105340001A49086802430A6003EB83039A00314656
:1053500014481044FFF709FFE26A114B1B68DB6A2F
:105360009A42D4D2D4E70027D2E70C4B4FF0FF3259
:105370001A60BBE7094A1360B8E70D4A13680133A6
:10538000136000273846F8BD8419002098190020C2
:10539000F0180020F4180020901900208C1900202B
:1053A000EC180020F81800209C1900208819002013
:1053B00094190020204B1B681BB1204B01221A605E
:1053C00070471E4B00221A601D4B1B68B3FA83F313
:1053D000DBB2C3F11F0303EB83018A0019498A582A
:1053E00042B94FF0500383F31188BFF36F8FBFF3BF
:1053F0004F8FFEE7134903EB830082000A44506895
:105400004068506003EB830C4FEA8C020832114471
:10541000884209D003EB83039A000A4B13445B686C
:10542000DA68094B1A607047406862469100054A85
:105430000A445060EEE700BF841900209C19002048
:1054400088190020F8180020EC180020014B18687B
:10545000704700BF0C04002070B50D4E0D4D761B3B
:10546000B61006D0002455F8043B01349847A642F4
:10547000F9D1094E094D761B07F014FBB61006D082
:10548000002455F8043B01349847A642F9D170BD79
:10549000F8D00008F8D0000800D10008F8D00008C3
:1054A000830730B548D0541E002A3FD0CAB2034605
:1054B00001E0013C3AD303F8012B9D07F9D1032CFD
:1054C0002DD9CDB245EA05250F2C45EA054536D93B
:1054D000A4F1100222F00F0C03F1200EE6444FEA73
:1054E000121C03F1100242E9045542E90255103240
:1054F0007245F8D10CF1010214F00C0F03EB02120B
:1055000004F00F0C13D0ACF1040323F003030433B5
:10551000134442F8045B9342FBD10CF003042CB11A
:10552000CAB21C4403F8012B9C42FBD130BD644637
:105530001346002CF4D1F9E703461446BFE71A4698
:10554000A446E0E770B50B4E9AB004466FF00045F4
:10555000CDE90445134600940A463068064C02958E
:105560006946039402F034FF009B00221A701AB0BF
:1055700070BD00BF0C0400200802FFFF38B5334B9C
:105580001B6805460C460BB19A6B12B3B4F90C308C
:1055900018079AB225D5216900292DD012F00100F3
:1055A00007D00020A06060694042A06139B10020AE
:1055B00038BD950758BF6069A0600029F7D1120671
:1055C00058BF0846F4D543F04003A3814FF0FF30A5
:1055D00038BD184601F04AF9B4F90C3018079AB2F0
:1055E000D9D4D1062AD5520714D4216943F008032F
:1055F000A3819AB20029D1D102F42070B0F5007FC6
:10560000CCD02146284601F0D7FCB4F90C302169F2
:105610009AB2C3E7216B51B104F14002914204D028
:10562000284601F01BFAB4F90C30002222632169EC
:105630000022C4E9001223F02403D7E7092243F033
:1056400040032A604FF0FF30A38138BD0C040020D6
:10565000024B13B1024800F005B87047000000008B
:1056600091690008002301461A46184605F0FEBB62
:105670002DE9F04F03690C69A34283B0C0F2878023
:10568000013C01F11405A30000F11408009355F842
:10569000243058F82420013381469A4208EB8400D4
:1056A00005EB84070190B2FBF3F63BD30023AE4633
:1056B00040469B465EF804AB02681FFA8AFC06FB74
:1056C0000C334FEA134C4FEA1A4A06FB0ACA1FFA78
:1056D00083FCABEB0C0C1FFA8AF31CFA82FCC3EBC5
:1056E000124202EB2C421FFA8CFC4CEA0243774533
:1056F00040F8043B4FEA224B4FEA1A43DAD2009BB0
:1057000058F8033073B9019B043B984504D307E074
:10571000984504F1FF3403D253F80429002AF7D046
:10572000C9F81040484602F077FA00282BDB013612
:105730004046002355F8041BD0F800C08AB29A1ADC
:105740000B0C12FA8CF2C3EB1C4303EB224392B214
:1057500042EA0342AF4240F8042B4FEA2343E9D226
:1057600058F8242008EB84036AB9043B984504D315
:1057700007E0984504F1FF3403D253F80429002AC6
:10578000F7D0C9F81040304603B0BDE8F08F0020D4
:1057900003B0BDE8F08F00BF2DE9F04F2DED068B73
:1057A00095B08DED020B0191016C249D099259EC8D
:1057B000108B0446069341B1426C4A60012393402A
:1057C0008B6001F0C7FF00232364B9F1000AB4BF66
:1057D000012300232B607C4BBCBF2AF0004ACDF88C
:1057E0000CA033EA0A0300F0B2809DED027B002298
:1057F00051EC170BB0EE479AF0EE679A0023FBF7D7
:1058000023F9074680B1069A01231360259B002BDC
:1058100000F0DB826D481860431E0093009815B0BD
:10582000BDEC068BBDE8F08F12AA13A92046B0EE9E
:10583000490AF0EE690A02F0B7FAB0EE498AF0EED2
:10584000698A5FEA1A56054640F09980DDE91276CA
:105850003E4406F23240202840F3AB83C0F14000C2
:105860000AFA00FA06F2124028FA00F04AEA0000AA
:10587000FAF708FE0123013E0D93A1F1F871544B94
:105880000022FAF7C1FC4AA3D3E90023FAF774FE19
:1058900049A3D3E90023FAF7B9FC8046304689468C
:1058A000FAF700FE46A3D3E90023FAF765FE0246A5
:1058B0000B4640464946FAF7A9FC80468946FBF765
:1058C000F5FB00228346002340464946FBF7C6F815
:1058D000002840F06D82BBF1160F00F25C823D4B58
:1058E00003EBCB03D3E9002351EC190BFBF7B6F81C
:1058F000002875D00023BE1B0C93731E0BF1FF3BD9
:10590000049300F14F8200230893BBF1000F6EDA7D
:10591000089BCDF814B0A3EB0B030893CBF1000365
:105920000B93019B092B4FF0000B69D8052B40F31B
:105930003E83043B01930026019B023B032B00F2B4
:105940009986DFE813F04E044B0443042604069ABC
:1059500042F20F73CAF3130A13605AEA08031DD107
:10596000259B002B00F07D861B4B00930833259A66
:105970000098136015B0BDEC068BBDE8F08F18EEF3
:10598000903AC3F3130351EC190B43F07F510D9779
:10599000A6F2FF36129F41F4401170E7259B002BC1
:1059A00040F0DB830D4B009338E700BFAFF300807E
:1059B00061436F63A787D23FB3C8608B288AC63F15
:1059C000FB799F501344D33F0000F07F2DCC00089B
:1059D0000000F83F70CD000820CC00081CCC000867
:1059E000BE1B731E049300F19A840C900890049BD4
:1059F0005B44CDE9043B00230B93019B092B95D914
:105A0000002301264FF0FF3201930A960792099373
:105A1000079B0F9300216164204601F075FE009002
:105A2000002800F02F86009B2364079B0E2B00F2BA
:105A3000F980002E00F0F6800599002940F371846A
:105A4000BD4B01F00F0203EBC2034FEA2118C90559
:105A5000D3E9006740F10384B84B51EC190BD3E94B
:105A60000823FAF7B3FE41EC180B08F00F084FF0CB
:105A7000030AB8F1000F13D0DFF8C09218F0010F3D
:105A800009D030463946D9E90023FAF775FD0AF105
:105A9000010A06460F465FEA680809F10809EDD1D8
:105AA00051EC180B32463B46FAF790FE41EC1A0BCC
:105AB0000C9B5BB157EC1A6BA14B1AEE100A00223B
:105AC0003946FAF7CBFF002840F052855046FAF7E6
:105AD000E9FC53EC1A2BFAF74FFD9A4B0022FAF728
:105AE00095FB079B8046A1F15079002B00F0F383D2
:105AF000059B1093079B0E930A9B002B00F0C0841C
:105B00000E9A8D4B9049DDF800A003EBC20353E9D8
